{
  "_format": "hh-sol-artifact-1",
  "contractName": "WaveXNFT",
  "sourceName": "contracts/WaveXNFT.sol",
  "abi": [
    {
      "inputs": [],
      "stateMutability": "nonpayable",
      "type": "constructor"
    },
    {
      "inputs": [],
      "name": "ERC721EnumerableForbiddenBatchMint",
      "type": "error"
    },
    {
      "inputs": [
        {
          "internalType": "address",
          "name": "sender",
          "type": "address"
        },
        {
          "internalType": "uint256",
          "name": "tokenId",
          "type": "uint256"
        },
        {
          "internalType": "address",
          "name": "owner",
          "type": "address"
        }
      ],
      "name": "ERC721IncorrectOwner",
      "type": "error"
    },
    {
      "inputs": [
        {
          "internalType": "address",
          "name": "operator",
          "type": "address"
        },
        {
          "internalType": "uint256",
          "name": "tokenId",
          "type": "uint256"
        }
      ],
      "name": "ERC721InsufficientApproval",
      "type": "error"
    },
    {
      "inputs": [
        {
          "internalType": "address",
          "name": "approver",
          "type": "address"
        }
      ],
      "name": "ERC721InvalidApprover",
      "type": "error"
    },
    {
      "inputs": [
        {
          "internalType": "address",
          "name": "operator",
          "type": "address"
        }
      ],
      "name": "ERC721InvalidOperator",
      "type": "error"
    },
    {
      "inputs": [
        {
          "internalType": "address",
          "name": "owner",
          "type": "address"
        }
      ],
      "name": "ERC721InvalidOwner",
      "type": "error"
    },
    {
      "inputs": [
        {
          "internalType": "address",
          "name": "receiver",
          "type": "address"
        }
      ],
      "name": "ERC721InvalidReceiver",
      "type": "error"
    },
    {
      "inputs": [
        {
          "internalType": "address",
          "name": "sender",
          "type": "address"
        }
      ],
      "name": "ERC721InvalidSender",
      "type": "error"
    },
    {
      "inputs": [
        {
          "internalType": "uint256",
          "name": "tokenId",
          "type": "uint256"
        }
      ],
      "name": "ERC721NonexistentToken",
      "type": "error"
    },
    {
      "inputs": [
        {
          "internalType": "address",
          "name": "owner",
          "type": "address"
        },
        {
          "internalType": "uint256",
          "name": "index",
          "type": "uint256"
        }
      ],
      "name": "ERC721OutOfBoundsIndex",
      "type": "error"
    },
    {
      "inputs": [
        {
          "internalType": "address",
          "name": "owner",
          "type": "address"
        }
      ],
      "name": "OwnableInvalidOwner",
      "type": "error"
    },
    {
      "inputs": [
        {
          "internalType": "address",
          "name": "account",
          "type": "address"
        }
      ],
      "name": "OwnableUnauthorizedAccount",
      "type": "error"
    },
    {
      "anonymous": false,
      "inputs": [
        {
          "indexed": true,
          "internalType": "address",
          "name": "owner",
          "type": "address"
        },
        {
          "indexed": true,
          "internalType": "address",
          "name": "approved",
          "type": "address"
        },
        {
          "indexed": true,
          "internalType": "uint256",
          "name": "tokenId",
          "type": "uint256"
        }
      ],
      "name": "Approval",
      "type": "event"
    },
    {
      "anonymous": false,
      "inputs": [
        {
          "indexed": true,
          "internalType": "address",
          "name": "owner",
          "type": "address"
        },
        {
          "indexed": true,
          "internalType": "address",
          "name": "operator",
          "type": "address"
        },
        {
          "indexed": false,
          "internalType": "bool",
          "name": "approved",
          "type": "bool"
        }
      ],
      "name": "ApprovalForAll",
      "type": "event"
    },
    {
      "anonymous": false,
      "inputs": [
        {
          "indexed": false,
          "internalType": "uint256[]",
          "name": "tokenIds",
          "type": "uint256[]"
        },
        {
          "indexed": false,
          "internalType": "enum WaveXNFT.BenefitType",
          "name": "benefitType",
          "type": "uint8"
        },
        {
          "indexed": false,
          "internalType": "uint256",
          "name": "value",
          "type": "uint256"
        },
        {
          "indexed": false,
          "internalType": "uint256",
          "name": "expirationTime",
          "type": "uint256"
        }
      ],
      "name": "BatchBenefitsAdded",
      "type": "event"
    },
    {
      "anonymous": false,
      "inputs": [
        {
          "indexed": true,
          "internalType": "uint256",
          "name": "tokenId",
          "type": "uint256"
        },
        {
          "indexed": false,
          "internalType": "enum WaveXNFT.BenefitType",
          "name": "benefitType",
          "type": "uint8"
        },
        {
          "indexed": false,
          "internalType": "uint256",
          "name": "value",
          "type": "uint256"
        }
      ],
      "name": "BenefitAdded",
      "type": "event"
    },
    {
      "anonymous": false,
      "inputs": [
        {
          "indexed": true,
          "internalType": "uint256",
          "name": "tokenId",
          "type": "uint256"
        },
        {
          "indexed": false,
          "internalType": "enum WaveXNFT.BenefitType",
          "name": "benefitType",
          "type": "uint8"
        },
        {
          "indexed": false,
          "internalType": "uint256",
          "name": "value",
          "type": "uint256"
        }
      ],
      "name": "BenefitRedeemed",
      "type": "event"
    },
    {
      "anonymous": false,
      "inputs": [
        {
          "indexed": true,
          "internalType": "uint256",
          "name": "tokenId",
          "type": "uint256"
        },
        {
          "indexed": false,
          "internalType": "uint256",
          "name": "benefitIndex",
          "type": "uint256"
        },
        {
          "indexed": false,
          "internalType": "uint256",
          "name": "newValue",
          "type": "uint256"
        },
        {
          "indexed": false,
          "internalType": "uint256",
          "name": "newExpirationTime",
          "type": "uint256"
        }
      ],
      "name": "BenefitUpdated",
      "type": "event"
    },
    {
      "anonymous": false,
      "inputs": [
        {
          "indexed": false,
          "internalType": "uint256",
          "name": "tokenId",
          "type": "uint256"
        },
        {
          "indexed": false,
          "internalType": "uint256",
          "name": "benefitIndex",
          "type": "uint256"
        },
        {
          "indexed": false,
          "internalType": "uint256",
          "name": "initialRemainingValue",
          "type": "uint256"
        },
        {
          "indexed": false,
          "internalType": "uint256",
          "name": "redeemAmount",
          "type": "uint256"
        },
        {
          "indexed": false,
          "internalType": "uint256",
          "name": "finalRemainingValue",
          "type": "uint256"
        }
      ],
      "name": "DebugRedemption",
      "type": "event"
    },
    {
      "anonymous": false,
      "inputs": [
        {
          "indexed": false,
          "internalType": "address",
          "name": "merchant",
          "type": "address"
        },
        {
          "indexed": false,
          "internalType": "bool",
          "name": "status",
          "type": "bool"
        }
      ],
      "name": "MerchantStatusUpdated",
      "type": "event"
    },
    {
      "anonymous": false,
      "inputs": [
        {
          "indexed": true,
          "internalType": "address",
          "name": "previousOwner",
          "type": "address"
        },
        {
          "indexed": true,
          "internalType": "address",
          "name": "newOwner",
          "type": "address"
        }
      ],
      "name": "OwnershipTransferred",
      "type": "event"
    },
    {
      "anonymous": false,
      "inputs": [
        {
          "indexed": true,
          "internalType": "uint256",
          "name": "tokenId",
          "type": "uint256"
        },
        {
          "indexed": false,
          "internalType": "string",
          "name": "newURI",
          "type": "string"
        }
      ],
      "name": "TokenURIUpdated",
      "type": "event"
    },
    {
      "anonymous": false,
      "inputs": [
        {
          "indexed": true,
          "internalType": "address",
          "name": "from",
          "type": "address"
        },
        {
          "indexed": true,
          "internalType": "address",
          "name": "to",
          "type": "address"
        },
        {
          "indexed": true,
          "internalType": "uint256",
          "name": "tokenId",
          "type": "uint256"
        }
      ],
      "name": "Transfer",
      "type": "event"
    },
    {
      "inputs": [],
      "name": "MAX_SUPPLY",
      "outputs": [
        {
          "internalType": "uint256",
          "name": "",
          "type": "uint256"
        }
      ],
      "stateMutability": "view",
      "type": "function"
    },
    {
      "inputs": [
        {
          "internalType": "uint256[]",
          "name": "tokenIds",
          "type": "uint256[]"
        },
        {
          "internalType": "enum WaveXNFT.BenefitType",
          "name": "benefitType",
          "type": "uint8"
        },
        {
          "internalType": "uint256",
          "name": "value",
          "type": "uint256"
        },
        {
          "internalType": "uint256",
          "name": "durationInDays",
          "type": "uint256"
        }
      ],
      "name": "addBatchBenefits",
      "outputs": [],
      "stateMutability": "nonpayable",
      "type": "function"
    },
    {
      "inputs": [
        {
          "internalType": "uint256",
          "name": "tokenId",
          "type": "uint256"
        },
        {
          "internalType": "enum WaveXNFT.BenefitType",
          "name": "benefitType",
          "type": "uint8"
        },
        {
          "internalType": "uint256",
          "name": "value",
          "type": "uint256"
        },
        {
          "internalType": "uint256",
          "name": "durationInDays",
          "type": "uint256"
        }
      ],
      "name": "addBenefit",
      "outputs": [],
      "stateMutability": "nonpayable",
      "type": "function"
    },
    {
      "inputs": [
        {
          "internalType": "address",
          "name": "to",
          "type": "address"
        },
        {
          "internalType": "uint256",
          "name": "tokenId",
          "type": "uint256"
        }
      ],
      "name": "approve",
      "outputs": [],
      "stateMutability": "nonpayable",
      "type": "function"
    },
    {
      "inputs": [
        {
          "internalType": "address",
          "name": "",
          "type": "address"
        }
      ],
      "name": "authorizedMerchants",
      "outputs": [
        {
          "internalType": "bool",
          "name": "",
          "type": "bool"
        }
      ],
      "stateMutability": "view",
      "type": "function"
    },
    {
      "inputs": [
        {
          "internalType": "address",
          "name": "owner",
          "type": "address"
        }
      ],
      "name": "balanceOf",
      "outputs": [
        {
          "internalType": "uint256",
          "name": "",
          "type": "uint256"
        }
      ],
      "stateMutability": "view",
      "type": "function"
    },
    {
      "inputs": [
        {
          "internalType": "uint256",
          "name": "tokenId",
          "type": "uint256"
        }
      ],
      "name": "getApproved",
      "outputs": [
        {
          "internalType": "address",
          "name": "",
          "type": "address"
        }
      ],
      "stateMutability": "view",
      "type": "function"
    },
    {
      "inputs": [],
      "name": "getBaseURI",
      "outputs": [
        {
          "internalType": "string",
          "name": "",
          "type": "string"
        }
      ],
      "stateMutability": "view",
      "type": "function"
    },
    {
      "inputs": [
        {
          "internalType": "uint256",
          "name": "tokenId",
          "type": "uint256"
        }
      ],
      "name": "getBenefits",
      "outputs": [
        {
          "components": [
            {
              "internalType": "enum WaveXNFT.BenefitType",
              "name": "benefitType",
              "type": "uint8"
            },
            {
              "internalType": "uint256",
              "name": "value",
              "type": "uint256"
            },
            {
              "internalType": "uint256",
              "name": "remainingValue",
              "type": "uint256"
            },
            {
              "internalType": "uint256",
              "name": "expirationTime",
              "type": "uint256"
            },
            {
              "internalType": "bool",
              "name": "isRedeemed",
              "type": "bool"
            },
            {
              "internalType": "address",
              "name": "proposedBy",
              "type": "address"
            }
          ],
          "internalType": "struct WaveXNFT.Benefit[]",
          "name": "",
          "type": "tuple[]"
        }
      ],
      "stateMutability": "view",
      "type": "function"
    },
    {
      "inputs": [
        {
          "internalType": "address",
          "name": "owner",
          "type": "address"
        },
        {
          "internalType": "address",
          "name": "operator",
          "type": "address"
        }
      ],
      "name": "isApprovedForAll",
      "outputs": [
        {
          "internalType": "bool",
          "name": "",
          "type": "bool"
        }
      ],
      "stateMutability": "view",
      "type": "function"
    },
    {
      "inputs": [],
      "name": "mint",
      "outputs": [
        {
          "internalType": "uint256",
          "name": "",
          "type": "uint256"
        }
      ],
      "stateMutability": "payable",
      "type": "function"
    },
    {
      "inputs": [],
      "name": "name",
      "outputs": [
        {
          "internalType": "string",
          "name": "",
          "type": "string"
        }
      ],
      "stateMutability": "view",
      "type": "function"
    },
    {
      "inputs": [],
      "name": "owner",
      "outputs": [
        {
          "internalType": "address",
          "name": "",
          "type": "address"
        }
      ],
      "stateMutability": "view",
      "type": "function"
    },
    {
      "inputs": [
        {
          "internalType": "uint256",
          "name": "tokenId",
          "type": "uint256"
        }
      ],
      "name": "ownerOf",
      "outputs": [
        {
          "internalType": "address",
          "name": "",
          "type": "address"
        }
      ],
      "stateMutability": "view",
      "type": "function"
    },
    {
      "inputs": [
        {
          "internalType": "uint256",
          "name": "tokenId",
          "type": "uint256"
        },
        {
          "internalType": "uint256",
          "name": "benefitIndex",
          "type": "uint256"
        },
        {
          "internalType": "uint256",
          "name": "amount",
          "type": "uint256"
        }
      ],
      "name": "redeemBenefit",
      "outputs": [],
      "stateMutability": "nonpayable",
      "type": "function"
    },
    {
      "inputs": [],
      "name": "renounceOwnership",
      "outputs": [],
      "stateMutability": "nonpayable",
      "type": "function"
    },
    {
      "inputs": [
        {
          "internalType": "address",
          "name": "from",
          "type": "address"
        },
        {
          "internalType": "address",
          "name": "to",
          "type": "address"
        },
        {
          "internalType": "uint256",
          "name": "tokenId",
          "type": "uint256"
        }
      ],
      "name": "safeTransferFrom",
      "outputs": [],
      "stateMutability": "nonpayable",
      "type": "function"
    },
    {
      "inputs": [
        {
          "internalType": "address",
          "name": "from",
          "type": "address"
        },
        {
          "internalType": "address",
          "name": "to",
          "type": "address"
        },
        {
          "internalType": "uint256",
          "name": "tokenId",
          "type": "uint256"
        },
        {
          "internalType": "bytes",
          "name": "data",
          "type": "bytes"
        }
      ],
      "name": "safeTransferFrom",
      "outputs": [],
      "stateMutability": "nonpayable",
      "type": "function"
    },
    {
      "inputs": [
        {
          "internalType": "address",
          "name": "operator",
          "type": "address"
        },
        {
          "internalType": "bool",
          "name": "approved",
          "type": "bool"
        }
      ],
      "name": "setApprovalForAll",
      "outputs": [],
      "stateMutability": "nonpayable",
      "type": "function"
    },
    {
      "inputs": [
        {
          "internalType": "string",
          "name": "baseURI",
          "type": "string"
        }
      ],
      "name": "setBaseURI",
      "outputs": [],
      "stateMutability": "nonpayable",
      "type": "function"
    },
    {
      "inputs": [
        {
          "internalType": "address",
          "name": "merchant",
          "type": "address"
        },
        {
          "internalType": "bool",
          "name": "status",
          "type": "bool"
        }
      ],
      "name": "setMerchantStatus",
      "outputs": [],
      "stateMutability": "nonpayable",
      "type": "function"
    },
    {
      "inputs": [
        {
          "internalType": "uint256",
          "name": "tokenId",
          "type": "uint256"
        },
        {
          "internalType": "string",
          "name": "uri",
          "type": "string"
        }
      ],
      "name": "setTokenURI",
      "outputs": [],
      "stateMutability": "nonpayable",
      "type": "function"
    },
    {
      "inputs": [
        {
          "internalType": "bytes4",
          "name": "interfaceId",
          "type": "bytes4"
        }
      ],
      "name": "supportsInterface",
      "outputs": [
        {
          "internalType": "bool",
          "name": "",
          "type": "bool"
        }
      ],
      "stateMutability": "view",
      "type": "function"
    },
    {
      "inputs": [],
      "name": "symbol",
      "outputs": [
        {
          "internalType": "string",
          "name": "",
          "type": "string"
        }
      ],
      "stateMutability": "view",
      "type": "function"
    },
    {
      "inputs": [
        {
          "internalType": "uint256",
          "name": "index",
          "type": "uint256"
        }
      ],
      "name": "tokenByIndex",
      "outputs": [
        {
          "internalType": "uint256",
          "name": "",
          "type": "uint256"
        }
      ],
      "stateMutability": "view",
      "type": "function"
    },
    {
      "inputs": [
        {
          "internalType": "address",
          "name": "owner",
          "type": "address"
        },
        {
          "internalType": "uint256",
          "name": "index",
          "type": "uint256"
        }
      ],
      "name": "tokenOfOwnerByIndex",
      "outputs": [
        {
          "internalType": "uint256",
          "name": "",
          "type": "uint256"
        }
      ],
      "stateMutability": "view",
      "type": "function"
    },
    {
      "inputs": [
        {
          "internalType": "uint256",
          "name": "tokenId",
          "type": "uint256"
        }
      ],
      "name": "tokenURI",
      "outputs": [
        {
          "internalType": "string",
          "name": "",
          "type": "string"
        }
      ],
      "stateMutability": "view",
      "type": "function"
    },
    {
      "inputs": [],
      "name": "totalSupply",
      "outputs": [
        {
          "internalType": "uint256",
          "name": "",
          "type": "uint256"
        }
      ],
      "stateMutability": "view",
      "type": "function"
    },
    {
      "inputs": [
        {
          "internalType": "address",
          "name": "from",
          "type": "address"
        },
        {
          "internalType": "address",
          "name": "to",
          "type": "address"
        },
        {
          "internalType": "uint256",
          "name": "tokenId",
          "type": "uint256"
        }
      ],
      "name": "transferFrom",
      "outputs": [],
      "stateMutability": "nonpayable",
      "type": "function"
    },
    {
      "inputs": [
        {
          "internalType": "address",
          "name": "newOwner",
          "type": "address"
        }
      ],
      "name": "transferOwnership",
      "outputs": [],
      "stateMutability": "nonpayable",
      "type": "function"
    },
    {
      "inputs": [
        {
          "internalType": "uint256",
          "name": "tokenId",
          "type": "uint256"
        },
        {
          "internalType": "uint256",
          "name": "benefitIndex",
          "type": "uint256"
        },
        {
          "internalType": "uint256",
          "name": "newValue",
          "type": "uint256"
        },
        {
          "internalType": "uint256",
          "name": "durationInDays",
          "type": "uint256"
        }
      ],
      "name": "updateBenefit",
      "outputs": [],
      "stateMutability": "nonpayable",
      "type": "function"
    }
  ],
  "bytecode": "0x60806040523480156200001157600080fd5b50336040518060400160405280600981526020016815d85d99560813919560ba1b815250604051806040016040528060058152602001640ae82ac8ab60db1b8152508160009081620000649190620001bd565b506001620000738282620001bd565b5050506001600160a01b038116620000a557604051631e4fbdf760e01b81526000600482015260240160405180910390fd5b620000b081620000c6565b50620000c0600b80546001019055565b62000289565b600a80546001600160a01b038381166001600160a01b0319831681179093556040519116919082907f8be0079c531659141344cd1fd0a4f28419497f9722a3daafe3b4186f6b6457e090600090a35050565b634e487b7160e01b600052604160045260246000fd5b600181811c908216806200014357607f821691505b6020821081036200016457634e487b7160e01b600052602260045260246000fd5b50919050565b601f821115620001b857600081815260208120601f850160051c81016020861015620001935750805b601f850160051c820191505b81811015620001b4578281556001016200019f565b5050505b505050565b81516001600160401b03811115620001d957620001d962000118565b620001f181620001ea84546200012e565b846200016a565b602080601f831160018114620002295760008415620002105750858301515b600019600386901b1c1916600185901b178555620001b4565b600085815260208120601f198616915b828110156200025a5788860151825594840194600190910190840162000239565b5085821015620002795787850151600019600388901b60f8161c191681555b5050505050600190811b01905550565b61269e80620002996000396000f3fe6080604052600436106101d85760003560e01c80636352211e11610102578063c481ac8811610095578063dd10b6b711610064578063dd10b6b71461053c578063e370e7061461055c578063e985e9c514610589578063f2fde38b146105a957600080fd5b8063c481ac88146104ac578063c87b56dd146104cc578063ca2efd38146104ec578063d1dea1cb1461051c57600080fd5b80638da5cb5b116100d15780638da5cb5b1461043957806395d89b4114610457578063a22cb4651461046c578063b88d4fde1461048c57600080fd5b80636352211e146103cf57806370a08231146103ef578063714c53981461040f578063715018a61461042457600080fd5b806318160ddd1161017a57806342842e0e1161014957806342842e0e1461034f5780634f6ccce71461036f57806355f804b31461038f57806357ccb6a0146103af57600080fd5b806318160ddd146102e457806323b872dd146102f95780632f745c591461031957806332cb6b0c1461033957600080fd5b8063095ea7b3116101b6578063095ea7b31461026c57806310f12a091461028e5780631249c58b146102ae578063162094c4146102c457600080fd5b806301ffc9a7146101dd57806306fdde0314610212578063081812fc14610234575b600080fd5b3480156101e957600080fd5b506101fd6101f8366004611e5a565b6105c9565b60405190151581526020015b60405180910390f35b34801561021e57600080fd5b506102276105da565b6040516102099190611ec4565b34801561024057600080fd5b5061025461024f366004611ed7565b61066c565b6040516001600160a01b039091168152602001610209565b34801561027857600080fd5b5061028c610287366004611f07565b610695565b005b34801561029a57600080fd5b5061028c6102a9366004611f40565b6106a4565b6102b6610890565b604051908152602001610209565b3480156102d057600080fd5b5061028c6102df366004612082565b61090b565b3480156102f057600080fd5b506008546102b6565b34801561030557600080fd5b5061028c6103143660046120c9565b61098d565b34801561032557600080fd5b506102b6610334366004611f07565b610a18565b34801561034557600080fd5b506102b661271081565b34801561035b57600080fd5b5061028c61036a3660046120c9565b610a7d565b34801561037b57600080fd5b506102b661038a366004611ed7565b610a9d565b34801561039b57600080fd5b5061028c6103aa366004612105565b610af6565b3480156103bb57600080fd5b5061028c6103ca36600461213a565b610b0a565b3480156103db57600080fd5b506102546103ea366004611ed7565b610b75565b3480156103fb57600080fd5b506102b661040a366004612176565b610b80565b34801561041b57600080fd5b50610227610bc8565b34801561043057600080fd5b5061028c610bd7565b34801561044557600080fd5b50600a546001600160a01b0316610254565b34801561046357600080fd5b50610227610beb565b34801561047857600080fd5b5061028c61048736600461213a565b610bfa565b34801561049857600080fd5b5061028c6104a7366004612191565b610c05565b3480156104b857600080fd5b5061028c6104c736600461220d565b610c1d565b3480156104d857600080fd5b506102276104e7366004611ed7565b610ffa565b3480156104f857600080fd5b506101fd610507366004612176565b600f6020526000908152604090205460ff1681565b34801561052857600080fd5b5061028c610537366004612239565b6110fe565b34801561054857600080fd5b5061028c610557366004612274565b611281565b34801561056857600080fd5b5061057c610577366004611ed7565b611400565b60405161020991906122de565b34801561059557600080fd5b506101fd6105a4366004612368565b611500565b3480156105b557600080fd5b5061028c6105c4366004612176565b61152e565b60006105d48261156c565b92915050565b6060600080546105e99061239b565b80601f01602080910402602001604051908101604052809291908181526020018280546106159061239b565b80156106625780601f1061063757610100808354040283529160200191610662565b820191906000526020600020905b81548152906001019060200180831161064557829003601f168201915b5050505050905090565b600061067782611591565b506000828152600460205260409020546001600160a01b03166105d4565b6106a08282336115ca565b5050565b6106ac6115d7565b60006106bb82620151806123eb565b6106c59042612402565b905060005b85811015610848576106f38787838181106106e7576106e7612415565b90506020020135611604565b6107185760405162461bcd60e51b815260040161070f9061242b565b60405180910390fd5b60006040518060c00160405280876002811115610737576107376122a6565b8152602001868152602001868152602001848152602001600015158152602001336001600160a01b03168152509050600e600089898581811061077c5761077c612415565b60209081029290920135835250818101929092526040016000908120805460018181018355918352929091208351600590930201805484939192839160ff1916908360028111156107cf576107cf6122a6565b021790555060208201516001820155604082015160028201556060820151600382015560808201516004909101805460a0909301516001600160a01b031661010002610100600160a81b0319921515929092166001600160a81b031990931692909217179055508061084081612459565b9150506106ca565b507f01ceb8938927648044b40718bea354c2b1acc2cbdb93aad01f0e2599c593ae648686868685604051610880959493929190612472565b60405180910390a1505050505050565b600061271061089e600b5490565b11156108e15760405162461bcd60e51b815260206004820152601260248201527113585e081cdd5c1c1b1e481c995858da195960721b604482015260640161070f565b60006108ec600b5490565b90506108f83382611621565b610906600b80546001019055565b919050565b6109136115d7565b61091c82611604565b6109385760405162461bcd60e51b815260040161070f9061242b565b6000828152600d60205260409020610950828261250a565b50817f931f495b9a8e5d8e61946ea5d61e021f636cfe213a801f97589c18c152e408bd826040516109819190611ec4565b60405180910390a25050565b6001600160a01b0382166109b757604051633250574960e11b81526000600482015260240161070f565b60006109c483833361163b565b9050836001600160a01b0316816001600160a01b031614610a12576040516364283d7b60e01b81526001600160a01b038086166004830152602482018490528216604482015260640161070f565b50505050565b6000610a2383610b80565b8210610a545760405163295f44f760e21b81526001600160a01b03841660048201526024810183905260440161070f565b506001600160a01b03919091166000908152600660209081526040808320938352929052205490565b610a9883838360405180602001604052806000815250610c05565b505050565b6000610aa860085490565b8210610ad15760405163295f44f760e21b8152600060048201526024810183905260440161070f565b60088281548110610ae457610ae4612415565b90600052602060002001549050919050565b610afe6115d7565b600c6106a0828261250a565b610b126115d7565b6001600160a01b0382166000818152600f6020908152604091829020805460ff19168515159081179091558251938452908301527f30a45c7f8d59b99f6da52c65ba25fd31c955b18e3955a95a10a3293cda42b701910160405180910390a15050565b60006105d482611591565b60006001600160a01b038216610bac576040516322718ad960e21b81526000600482015260240161070f565b506001600160a01b031660009081526003602052604090205490565b6060600c80546105e99061239b565b610bdf6115d7565b610be96000611648565b565b6060600180546105e99061239b565b6106a033838361169a565b610c1084848461098d565b610a123385858585611739565b610c2683611604565b610c425760405162461bcd60e51b815260040161070f9061242b565b6000838152600e60205260409020548210610c9f5760405162461bcd60e51b815260206004820152601b60248201527f42656e6566697420696e646578206f7574206f6620626f756e64730000000000604482015260640161070f565b6000838152600e60205260408120805484908110610cbf57610cbf612415565b6000918252602082206005909102019150815460ff166002811115610ce657610ce66122a6565b03610d4f57336000908152600f602052604090205460ff16610d4a5760405162461bcd60e51b815260206004820152601a60248201527f4e6f7420616e20617574686f72697a6564206d65726368616e74000000000000604482015260640161070f565b610da1565b33610d5985610b75565b6001600160a01b031614610da15760405162461bcd60e51b815260206004820152600f60248201526e2737ba103a37b5b2b71037bbb732b960891b604482015260640161070f565b600481015460ff1615610df65760405162461bcd60e51b815260206004820152601860248201527f42656e6566697420616c72656164792072656465656d65640000000000000000604482015260640161070f565b8060030154421115610e3c5760405162461bcd60e51b815260206004820152600f60248201526e10995b99599a5d08195e1c1a5c9959608a1b604482015260640161070f565b60028101546000825460ff166002811115610e5957610e596122a6565b03610fa35760008315610e6c5783610e72565b82600201545b905060008111610ecf5760405162461bcd60e51b815260206004820152602260248201527f526564656d7074696f6e20616d6f756e74206d75737420626520706f73697469604482015261766560f01b606482015260840161070f565b8260020154811115610f1c5760405162461bcd60e51b8152602060048201526016602482015275496e73756666696369656e7420616c6c6f77616e636560501b604482015260640161070f565b808360020154610f2c91906125ca565b600284018190556040805188815260208101889052808201859052606081018490526080810192909252517f3c97b1a3ff92ef1e821f10ad5992122be77eb582daac53652ae294f1cff1f0269181900360a00190a18260020154600003610f9d5760048301805460ff191660011790555b50610fb3565b60048201805460ff191660011790555b815460405186917f78a43f904ac6d6b504d53c83b889820f91a8f1e7b7da884f898e4e64c18cf09491610feb9160ff169087906125dd565b60405180910390a25050505050565b606061100582611604565b6110215760405162461bcd60e51b815260040161070f9061242b565b6000828152600d60205260408120805461103a9061239b565b80601f01602080910402602001604051908101604052809291908181526020018280546110669061239b565b80156110b35780601f10611088576101008083540402835291602001916110b3565b820191906000526020600020905b81548152906001019060200180831161109657829003601f168201915b505050505090506000815111156110ca5792915050565b60006110d4610bc8565b905060008151116110f457604051806020016040528060008152506110f6565b805b949350505050565b6111066115d7565b61110f84611604565b61112b5760405162461bcd60e51b815260040161070f9061242b565b600061113a82620151806123eb565b6111449042612402565b905060006040518060c00160405280866002811115611165576111656122a6565b815260208082018790526040808301889052606083018690526000608084018190523360a090940193909352898352600e82528220805460018181018355918452919092208351600590920201805493945084939092839160ff1916908360028111156111d4576111d46122a6565b02179055506020820151600182015560408083015160028301556060830151600383015560808301516004909201805460a0909401516001600160a01b031661010002610100600160a81b0319931515939093166001600160a81b031990941693909317919091179091555186907fd30255a6361604fd460a0114a718b22a488624a01fbd4aab5478079afecbff3c9061127190889088906125dd565b60405180910390a2505050505050565b6112896115d7565b61129284611604565b6112ae5760405162461bcd60e51b815260040161070f9061242b565b6000848152600e6020526040902054831061130b5760405162461bcd60e51b815260206004820152601b60248201527f42656e6566697420696e646578206f7574206f6620626f756e64730000000000604482015260640161070f565b6000848152600e6020526040812080548590811061132b5761132b612415565b60009182526020909120600590910201600481015490915060ff16156113935760405162461bcd60e51b815260206004820181905260248201527f43616e6e6f742075706461746520612072656465656d65642062656e65666974604482015260640161070f565b60018101839055600281018390556113ae82620151806123eb565b6113b89042612402565b6003820181905560408051868152602081018690529081019190915285907f8b289c41672aa0eb02663890ee5404b8f2c780ef10dfc2d61628b21186d42e8090606001610feb565b606061140b82611604565b6114275760405162461bcd60e51b815260040161070f9061242b565b6000828152600e6020908152604080832080548251818502810185019093528083529193909284015b828210156114f5576000848152602090206040805160c08101909152600584029091018054829060ff16600281111561148b5761148b6122a6565b600281111561149c5761149c6122a6565b8152600182810154602080840191909152600284015460408401526003840154606084015260049093015460ff81161515608084015261010090046001600160a01b031660a09092019190915291835292019101611450565b505050509050919050565b6001600160a01b03918216600090815260056020908152604080832093909416825291909152205460ff1690565b6115366115d7565b6001600160a01b03811661156057604051631e4fbdf760e01b81526000600482015260240161070f565b61156981611648565b50565b60006001600160e01b0319821663780e9d6360e01b14806105d457506105d482611864565b6000818152600260205260408120546001600160a01b0316806105d457604051637e27328960e01b81526004810184905260240161070f565b610a9883838360016118b4565b600a546001600160a01b03163314610be95760405163118cdaa760e01b815233600482015260240161070f565b60008061161083610b75565b6001600160a01b0316141592915050565b6106a08282604051806020016040528060008152506119ba565b60006110f68484846119d2565b600a80546001600160a01b038381166001600160a01b0319831681179093556040519116919082907f8be0079c531659141344cd1fd0a4f28419497f9722a3daafe3b4186f6b6457e090600090a35050565b6001600160a01b0382166116cc57604051630b61174360e31b81526001600160a01b038316600482015260240161070f565b6001600160a01b03838116600081815260056020908152604080832094871680845294825291829020805460ff191686151590811790915591519182527f17307eab39ab6107e8899845ad3d59bd9653f200f220920489ca2b5937696c31910160405180910390a3505050565b6001600160a01b0383163b1561185d57604051630a85bd0160e11b81526001600160a01b0384169063150b7a029061177b9088908890879087906004016125f8565b6020604051808303816000875af19250505080156117b6575060408051601f3d908101601f191682019092526117b391810190612635565b60015b61181f573d8080156117e4576040519150601f19603f3d011682016040523d82523d6000602084013e6117e9565b606091505b50805160000361181757604051633250574960e11b81526001600160a01b038516600482015260240161070f565b805181602001fd5b6001600160e01b03198116630a85bd0160e11b1461185b57604051633250574960e11b81526001600160a01b038516600482015260240161070f565b505b5050505050565b60006001600160e01b031982166380ac58cd60e01b148061189557506001600160e01b03198216635b5e139f60e01b145b806105d457506301ffc9a760e01b6001600160e01b03198316146105d4565b80806118c857506001600160a01b03821615155b1561198a5760006118d884611591565b90506001600160a01b038316158015906119045750826001600160a01b0316816001600160a01b031614155b801561191757506119158184611500565b155b156119405760405163a9fbf51f60e01b81526001600160a01b038416600482015260240161070f565b81156119885783856001600160a01b0316826001600160a01b03167f8c5be1e5ebec7d5bd14f71427d1e84f3dd0314c0f7b2291e5b200ac8c7c3b92560405160405180910390a45b505b5050600090815260046020526040902080546001600160a01b0319166001600160a01b0392909216919091179055565b6119c48383611a9f565b610a98336000858585611739565b6000806119e0858585611b04565b90506001600160a01b038116611a3d57611a3884600880546000838152600960205260408120829055600182018355919091527ff3f7a9fe364faab93b216da50a3214154f22a0a2b415b23a84c8169e8b636ee30155565b611a60565b846001600160a01b0316816001600160a01b031614611a6057611a608185611bfd565b6001600160a01b038516611a7c57611a7784611c7e565b6110f6565b846001600160a01b0316816001600160a01b0316146110f6576110f68585611d2d565b6001600160a01b038216611ac957604051633250574960e11b81526000600482015260240161070f565b6000611ad78383600061163b565b90506001600160a01b03811615610a98576040516339e3563760e11b81526000600482015260240161070f565b6000828152600260205260408120546001600160a01b0390811690831615611b3157611b31818486611d7d565b6001600160a01b03811615611b6f57611b4e6000856000806118b4565b6001600160a01b038116600090815260036020526040902080546000190190555b6001600160a01b03851615611b9e576001600160a01b0385166000908152600360205260409020805460010190555b60008481526002602052604080822080546001600160a01b0319166001600160a01b0389811691821790925591518793918516917fddf252ad1be2c89b69c2b068fc378daa952ba7f163c4a11628f55a4df523b3ef91a4949350505050565b6000611c0883610b80565b6000838152600760209081526040808320546001600160a01b0388168452600690925290912091925090818314611c5f57600083815260208281526040808320548584528184208190558352600790915290208290555b6000938452600760209081526040808620869055938552525081205550565b600854600090611c90906001906125ca565b60008381526009602052604081205460088054939450909284908110611cb857611cb8612415565b906000526020600020015490508060088381548110611cd957611cd9612415565b6000918252602080832090910192909255828152600990915260408082208490558582528120556008805480611d1157611d11612652565b6001900381819060005260206000200160009055905550505050565b60006001611d3a84610b80565b611d4491906125ca565b6001600160a01b039093166000908152600660209081526040808320868452825280832085905593825260079052919091209190915550565b611d88838383611de1565b610a98576001600160a01b038316611db657604051637e27328960e01b81526004810182905260240161070f565b60405163177e802f60e01b81526001600160a01b03831660048201526024810182905260440161070f565b60006001600160a01b038316158015906110f65750826001600160a01b0316846001600160a01b03161480611e1b5750611e1b8484611500565b806110f65750506000908152600460205260409020546001600160a01b03908116911614919050565b6001600160e01b03198116811461156957600080fd5b600060208284031215611e6c57600080fd5b8135611e7781611e44565b9392505050565b6000815180845260005b81811015611ea457602081850181015186830182015201611e88565b506000602082860101526020601f19601f83011685010191505092915050565b602081526000611e776020830184611e7e565b600060208284031215611ee957600080fd5b5035919050565b80356001600160a01b038116811461090657600080fd5b60008060408385031215611f1a57600080fd5b611f2383611ef0565b946020939093013593505050565b80356003811061090657600080fd5b600080600080600060808688031215611f5857600080fd5b853567ffffffffffffffff80821115611f7057600080fd5b818801915088601f830112611f8457600080fd5b813581811115611f9357600080fd5b8960208260051b8501011115611fa857600080fd5b602092830197509550611fbe9188019050611f31565b94979396509394604081013594506060013592915050565b634e487b7160e01b600052604160045260246000fd5b600067ffffffffffffffff8084111561200757612007611fd6565b604051601f8501601f19908116603f0116810190828211818310171561202f5761202f611fd6565b8160405280935085815286868601111561204857600080fd5b858560208301376000602087830101525050509392505050565b600082601f83011261207357600080fd5b611e7783833560208501611fec565b6000806040838503121561209557600080fd5b82359150602083013567ffffffffffffffff8111156120b357600080fd5b6120bf85828601612062565b9150509250929050565b6000806000606084860312156120de57600080fd5b6120e784611ef0565b92506120f560208501611ef0565b9150604084013590509250925092565b60006020828403121561211757600080fd5b813567ffffffffffffffff81111561212e57600080fd5b6110f684828501612062565b6000806040838503121561214d57600080fd5b61215683611ef0565b91506020830135801515811461216b57600080fd5b809150509250929050565b60006020828403121561218857600080fd5b611e7782611ef0565b600080600080608085870312156121a757600080fd5b6121b085611ef0565b93506121be60208601611ef0565b925060408501359150606085013567ffffffffffffffff8111156121e157600080fd5b8501601f810187136121f257600080fd5b61220187823560208401611fec565b91505092959194509250565b60008060006060848603121561222257600080fd5b505081359360208301359350604090920135919050565b6000806000806080858703121561224f57600080fd5b8435935061225f60208601611f31565b93969395505050506040820135916060013590565b6000806000806080858703121561228a57600080fd5b5050823594602084013594506040840135936060013592509050565b634e487b7160e01b600052602160045260246000fd5b600381106122da57634e487b7160e01b600052602160045260246000fd5b9052565b602080825282518282018190526000919060409081850190868401855b8281101561235b5781516123108582516122bc565b808701518588015285810151868601526060808201519086015260808082015115159086015260a0908101516001600160a01b03169085015260c090930192908501906001016122fb565b5091979650505050505050565b6000806040838503121561237b57600080fd5b61238483611ef0565b915061239260208401611ef0565b90509250929050565b600181811c908216806123af57607f821691505b6020821081036123cf57634e487b7160e01b600052602260045260246000fd5b50919050565b634e487b7160e01b600052601160045260246000fd5b80820281158282048414176105d4576105d46123d5565b808201808211156105d4576105d46123d5565b634e487b7160e01b600052603260045260246000fd5b602080825260149082015273151bdad95b88191bd95cc81b9bdd08195e1a5cdd60621b604082015260600190565b60006001820161246b5761246b6123d5565b5060010190565b6080808252810185905260006001600160fb1b0386111561249257600080fd5b8560051b808860a0850137820160a00190506124b160208301866122bc565b6040820193909352606001529392505050565b601f821115610a9857600081815260208120601f850160051c810160208610156124eb5750805b601f850160051c820191505b8181101561185b578281556001016124f7565b815167ffffffffffffffff81111561252457612524611fd6565b61253881612532845461239b565b846124c4565b602080601f83116001811461256d57600084156125555750858301515b600019600386901b1c1916600185901b17855561185b565b600085815260208120601f198616915b8281101561259c5788860151825594840194600190910190840161257d565b50858210156125ba5787850151600019600388901b60f8161c191681555b5050505050600190811b01905550565b818103818111156105d4576105d46123d5565b604081016125eb82856122bc565b8260208301529392505050565b6001600160a01b038581168252841660208201526040810183905260806060820181905260009061262b90830184611e7e565b9695505050505050565b60006020828403121561264757600080fd5b8151611e7781611e44565b634e487b7160e01b600052603160045260246000fdfea264697066735822122040f0b0d7735aa64526caea49648339c1ed7b5c59a6ea6f09a89f6ecf6e7b7ba064736f6c63430008140033",
  "linkReferences": {},
  "deployedLinkReferences": {}
}