{
  "_format": "hh-sol-artifact-1",
  "contractName": "WaveXEventManager",
  "sourceName": "contracts/WaveXEventManager.sol",
  "abi": [
    {
      "inputs": [
        {
          "internalType": "address",
          "name": "_waveXNFT",
          "type": "address"
        }
      ],
      "stateMutability": "nonpayable",
      "type": "constructor"
    },
    {
      "inputs": [
        {
          "internalType": "address",
          "name": "owner",
          "type": "address"
        }
      ],
      "name": "OwnableInvalidOwner",
      "type": "error"
    },
    {
      "inputs": [
        {
          "internalType": "address",
          "name": "account",
          "type": "address"
        }
      ],
      "name": "OwnableUnauthorizedAccount",
      "type": "error"
    },
    {
      "anonymous": false,
      "inputs": [
        {
          "indexed": true,
          "internalType": "uint256",
          "name": "tokenId",
          "type": "uint256"
        },
        {
          "indexed": true,
          "internalType": "uint256",
          "name": "eventId",
          "type": "uint256"
        }
      ],
      "name": "CheckedIn",
      "type": "event"
    },
    {
      "anonymous": false,
      "inputs": [
        {
          "indexed": true,
          "internalType": "uint256",
          "name": "tokenId",
          "type": "uint256"
        },
        {
          "indexed": true,
          "internalType": "uint256",
          "name": "eventId",
          "type": "uint256"
        }
      ],
      "name": "EntranceBooked",
      "type": "event"
    },
    {
      "anonymous": false,
      "inputs": [
        {
          "indexed": true,
          "internalType": "uint256",
          "name": "eventId",
          "type": "uint256"
        },
        {
          "indexed": false,
          "internalType": "string",
          "name": "name",
          "type": "string"
        },
        {
          "indexed": false,
          "internalType": "string",
          "name": "location",
          "type": "string"
        },
        {
          "indexed": false,
          "internalType": "uint256",
          "name": "date",
          "type": "uint256"
        },
        {
          "indexed": false,
          "internalType": "uint256",
          "name": "maxCapacity",
          "type": "uint256"
        }
      ],
      "name": "EventCreated",
      "type": "event"
    },
    {
      "anonymous": false,
      "inputs": [
        {
          "indexed": true,
          "internalType": "uint256",
          "name": "eventId",
          "type": "uint256"
        }
      ],
      "name": "EventExpired",
      "type": "event"
    },
    {
      "anonymous": false,
      "inputs": [
        {
          "indexed": false,
          "internalType": "uint256",
          "name": "newMax",
          "type": "uint256"
        }
      ],
      "name": "MaxCancellationsUpdated",
      "type": "event"
    },
    {
      "anonymous": false,
      "inputs": [
        {
          "indexed": true,
          "internalType": "address",
          "name": "previousOwner",
          "type": "address"
        },
        {
          "indexed": true,
          "internalType": "address",
          "name": "newOwner",
          "type": "address"
        }
      ],
      "name": "OwnershipTransferred",
      "type": "event"
    },
    {
      "anonymous": false,
      "inputs": [
        {
          "indexed": true,
          "internalType": "uint256",
          "name": "tokenId",
          "type": "uint256"
        },
        {
          "indexed": true,
          "internalType": "uint256",
          "name": "eventId",
          "type": "uint256"
        }
      ],
      "name": "TicketCancelled",
      "type": "event"
    },
    {
      "anonymous": false,
      "inputs": [
        {
          "indexed": true,
          "internalType": "uint256",
          "name": "tokenId",
          "type": "uint256"
        },
        {
          "indexed": true,
          "internalType": "uint256",
          "name": "fromEventId",
          "type": "uint256"
        },
        {
          "indexed": true,
          "internalType": "uint256",
          "name": "toEventId",
          "type": "uint256"
        }
      ],
      "name": "TicketTransferred",
      "type": "event"
    },
    {
      "inputs": [],
      "name": "_eventCounter",
      "outputs": [
        {
          "internalType": "uint256",
          "name": "",
          "type": "uint256"
        }
      ],
      "stateMutability": "view",
      "type": "function"
    },
    {
      "inputs": [
        {
          "internalType": "uint256",
          "name": "tokenId",
          "type": "uint256"
        },
        {
          "internalType": "uint256",
          "name": "eventId",
          "type": "uint256"
        }
      ],
      "name": "bookEntrance",
      "outputs": [],
      "stateMutability": "nonpayable",
      "type": "function"
    },
    {
      "inputs": [
        {
          "internalType": "uint256",
          "name": "tokenId",
          "type": "uint256"
        },
        {
          "internalType": "uint256",
          "name": "eventId",
          "type": "uint256"
        }
      ],
      "name": "cancelBooking",
      "outputs": [],
      "stateMutability": "nonpayable",
      "type": "function"
    },
    {
      "inputs": [
        {
          "internalType": "uint256",
          "name": "",
          "type": "uint256"
        },
        {
          "internalType": "uint256",
          "name": "",
          "type": "uint256"
        }
      ],
      "name": "cancellationCount",
      "outputs": [
        {
          "internalType": "uint256",
          "name": "",
          "type": "uint256"
        }
      ],
      "stateMutability": "view",
      "type": "function"
    },
    {
      "inputs": [
        {
          "internalType": "uint256",
          "name": "tokenId",
          "type": "uint256"
        },
        {
          "internalType": "uint256",
          "name": "eventId",
          "type": "uint256"
        }
      ],
      "name": "checkIn",
      "outputs": [],
      "stateMutability": "nonpayable",
      "type": "function"
    },
    {
      "inputs": [
        {
          "internalType": "string",
          "name": "name",
          "type": "string"
        },
        {
          "internalType": "string",
          "name": "location",
          "type": "string"
        },
        {
          "internalType": "uint256",
          "name": "date",
          "type": "uint256"
        },
        {
          "internalType": "uint256",
          "name": "maxCapacity",
          "type": "uint256"
        }
      ],
      "name": "createEvent",
      "outputs": [],
      "stateMutability": "nonpayable",
      "type": "function"
    },
    {
      "inputs": [
        {
          "internalType": "uint256",
          "name": "",
          "type": "uint256"
        }
      ],
      "name": "events",
      "outputs": [
        {
          "internalType": "uint256",
          "name": "eventId",
          "type": "uint256"
        },
        {
          "internalType": "string",
          "name": "name",
          "type": "string"
        },
        {
          "internalType": "string",
          "name": "location",
          "type": "string"
        },
        {
          "internalType": "uint256",
          "name": "date",
          "type": "uint256"
        },
        {
          "internalType": "uint256",
          "name": "maxCapacity",
          "type": "uint256"
        },
        {
          "internalType": "uint256",
          "name": "bookedCount",
          "type": "uint256"
        },
        {
          "internalType": "bool",
          "name": "isActive",
          "type": "bool"
        }
      ],
      "stateMutability": "view",
      "type": "function"
    },
    {
      "inputs": [
        {
          "internalType": "uint256",
          "name": "eventId",
          "type": "uint256"
        }
      ],
      "name": "expireEvent",
      "outputs": [],
      "stateMutability": "nonpayable",
      "type": "function"
    },
    {
      "inputs": [
        {
          "internalType": "uint256",
          "name": "tokenId",
          "type": "uint256"
        },
        {
          "internalType": "uint256",
          "name": "eventId",
          "type": "uint256"
        }
      ],
      "name": "getCancellationCount",
      "outputs": [
        {
          "internalType": "uint256",
          "name": "",
          "type": "uint256"
        }
      ],
      "stateMutability": "view",
      "type": "function"
    },
    {
      "inputs": [],
      "name": "getEventCount",
      "outputs": [
        {
          "internalType": "uint256",
          "name": "",
          "type": "uint256"
        }
      ],
      "stateMutability": "view",
      "type": "function"
    },
    {
      "inputs": [
        {
          "internalType": "uint256",
          "name": "eventId",
          "type": "uint256"
        }
      ],
      "name": "getEventDetails",
      "outputs": [
        {
          "components": [
            {
              "internalType": "uint256",
              "name": "eventId",
              "type": "uint256"
            },
            {
              "internalType": "string",
              "name": "name",
              "type": "string"
            },
            {
              "internalType": "string",
              "name": "location",
              "type": "string"
            },
            {
              "internalType": "uint256",
              "name": "date",
              "type": "uint256"
            },
            {
              "internalType": "uint256",
              "name": "maxCapacity",
              "type": "uint256"
            },
            {
              "internalType": "uint256",
              "name": "bookedCount",
              "type": "uint256"
            },
            {
              "internalType": "bool",
              "name": "isActive",
              "type": "bool"
            }
          ],
          "internalType": "struct WaveXEventManager.Event",
          "name": "",
          "type": "tuple"
        }
      ],
      "stateMutability": "view",
      "type": "function"
    },
    {
      "inputs": [],
      "name": "maxCancellationsAllowed",
      "outputs": [
        {
          "internalType": "uint256",
          "name": "",
          "type": "uint256"
        }
      ],
      "stateMutability": "view",
      "type": "function"
    },
    {
      "inputs": [
        {
          "internalType": "uint256",
          "name": "",
          "type": "uint256"
        },
        {
          "internalType": "uint256",
          "name": "",
          "type": "uint256"
        }
      ],
      "name": "nftEventBookings",
      "outputs": [
        {
          "internalType": "bool",
          "name": "",
          "type": "bool"
        }
      ],
      "stateMutability": "view",
      "type": "function"
    },
    {
      "inputs": [
        {
          "internalType": "uint256",
          "name": "",
          "type": "uint256"
        }
      ],
      "name": "nftToEvent",
      "outputs": [
        {
          "internalType": "uint256",
          "name": "",
          "type": "uint256"
        }
      ],
      "stateMutability": "view",
      "type": "function"
    },
    {
      "inputs": [],
      "name": "owner",
      "outputs": [
        {
          "internalType": "address",
          "name": "",
          "type": "address"
        }
      ],
      "stateMutability": "view",
      "type": "function"
    },
    {
      "inputs": [],
      "name": "renounceOwnership",
      "outputs": [],
      "stateMutability": "nonpayable",
      "type": "function"
    },
    {
      "inputs": [
        {
          "internalType": "uint256",
          "name": "_newMax",
          "type": "uint256"
        }
      ],
      "name": "setMaxCancellationsAllowed",
      "outputs": [],
      "stateMutability": "nonpayable",
      "type": "function"
    },
    {
      "inputs": [
        {
          "internalType": "address",
          "name": "newOwner",
          "type": "address"
        }
      ],
      "name": "transferOwnership",
      "outputs": [],
      "stateMutability": "nonpayable",
      "type": "function"
    },
    {
      "inputs": [
        {
          "internalType": "uint256",
          "name": "tokenId",
          "type": "uint256"
        },
        {
          "internalType": "uint256",
          "name": "newEventId",
          "type": "uint256"
        }
      ],
      "name": "transferTicket",
      "outputs": [],
      "stateMutability": "nonpayable",
      "type": "function"
    },
    {
      "inputs": [],
      "name": "waveXNFT",
      "outputs": [
        {
          "internalType": "contract IERC721",
          "name": "",
          "type": "address"
        }
      ],
      "stateMutability": "view",
      "type": "function"
    }
  ],
  "bytecode": "0x6080604052600160075534801561001557600080fd5b506040516116e03803806116e0833981016040819052610034916100d9565b338061005a57604051631e4fbdf760e01b81526000600482015260240160405180910390fd5b61006381610089565b50600180546001600160a01b0319166001600160a01b0392909216919091179055610109565b600080546001600160a01b038381166001600160a01b0319831681178455604051919092169283917f8be0079c531659141344cd1fd0a4f28419497f9722a3daafe3b4186f6b6457e09190a35050565b6000602082840312156100eb57600080fd5b81516001600160a01b038116811461010257600080fd5b9392505050565b6115c8806101186000396000f3fe608060405234801561001057600080fd5b506004361061012c5760003560e01c8063bce062b9116100ad578063dccd42d311610071578063dccd42d31461027e578063ec38d5a01461029e578063f2fde38b146102be578063f516f88e146102d1578063fd5cbb7c146102e457600080fd5b8063bce062b91461022a578063c631b0721461023d578063ce0f0c9114610250578063d5d63a2f14610263578063d9e48f5c1461027657600080fd5b806360e76134116100f457806360e76134146101ca578063715018a6146101f55780638da5cb5b146101fd57806396ef1eb91461020e5780639e734fbd1461021757600080fd5b80630b7914301461013157806315e121fc14610160578063322292051461017557806353214e60146101885780635d1284ae146101c1575b600080fd5b61014461013f3660046110d1565b610322565b6040516101579796959493929190611130565b60405180910390f35b61017361016e3660046110d1565b610471565b005b610173610183366004611184565b6104b4565b6101b3610196366004611184565b600560209081526000928352604080842090915290825290205481565b604051908152602001610157565b6101b360075481565b6001546101dd906001600160a01b031681565b6040516001600160a01b039091168152602001610157565b6101736106bf565b6000546001600160a01b03166101dd565b6101b360065481565b610173610225366004611184565b6106d3565b610173610238366004611249565b610969565b61017361024b366004611184565b610a7b565b61017361025e3660046110d1565b610c98565b6101b3610271366004611184565b610d3c565b6006546101b3565b6101b361028c3660046110d1565b60046020526000908152604090205481565b6102b16102ac3660046110d1565b610d5d565b60405161015791906112bd565b6101736102cc36600461134d565b610f1f565b6101736102df366004611184565b610f5d565b6103126102f2366004611184565b600360209081526000928352604080842090915290825290205460ff1681565b6040519015158152602001610157565b6002602052600090815260409020805460018201805491929161034490611371565b80601f016020809104026020016040519081016040528092919081815260200182805461037090611371565b80156103bd5780601f10610392576101008083540402835291602001916103bd565b820191906000526020600020905b8154815290600101906020018083116103a057829003601f168201915b5050505050908060020180546103d290611371565b80601f01602080910402602001604051908101604052809291908181526020018280546103fe90611371565b801561044b5780601f106104205761010080835404028352916020019161044b565b820191906000526020600020905b81548152906001019060200180831161042e57829003601f168201915b505050506003830154600484015460058501546006909501549394919390925060ff1687565b610479611054565b60078190556040518181527f62c2c08440efb61d8b3efbb1fae4fec639f3a34e4a31f11c8d1b4b722fcd2e579060200160405180910390a150565b6001546040516331a9108f60e11b81526004810184905233916001600160a01b031690636352211e90602401602060405180830381865afa1580156104fd573d6000803e3d6000fd5b505050506040513d601f19601f8201168201806040525081019061052191906113ab565b6001600160a01b0316146105505760405162461bcd60e51b8152600401610547906113c8565b60405180910390fd5b600082815260036020908152604080832084845290915290205460ff166105b95760405162461bcd60e51b815260206004820152601960248201527f4e6f7420626f6f6b656420666f722074686973206576656e74000000000000006044820152606401610547565b6000818152600260205260409020600301546105d9906202a30090611407565b4211156106285760405162461bcd60e51b815260206004820152601a60248201527f43616e63656c6c6174696f6e2077696e646f7720636c6f7365640000000000006044820152606401610547565b60008281526003602090815260408083208484528252808320805460ff191690556002909152812060050180549161065f8361141a565b90915550506000828152600560209081526040808320848452909152812080549161068983611431565b9091555050604051819083907ff2e259312981a971d47beade6011df4932eed3498290695d9dfcb17e342d0a4590600090a35050565b6106c7611054565b6106d16000611081565b565b6001546040516331a9108f60e11b81526004810184905233916001600160a01b031690636352211e90602401602060405180830381865afa15801561071c573d6000803e3d6000fd5b505050506040513d601f19601f8201168201806040525081019061074091906113ab565b6001600160a01b0316146107665760405162461bcd60e51b8152600401610547906113c8565b60008181526002602052604090206006015460ff166107ba5760405162461bcd60e51b815260206004820152601060248201526f4576656e74206e6f742061637469766560801b6044820152606401610547565b60008181526002602052604090206004810154600590910154106108155760405162461bcd60e51b8152602060048201526012602482015271115d995b9d08199d5b1b1e48189bdbdad95960721b6044820152606401610547565b600082815260036020908152604080832084845290915290205460ff161561087f5760405162461bcd60e51b815260206004820152601d60248201527f416c726561647920626f6f6b656420666f722074686973206576656e740000006044820152606401610547565b6007546000838152600560209081526040808320858452909152902054106108e95760405162461bcd60e51b815260206004820152601d60248201527f4d6178696d756d2063616e63656c6c6174696f6e7320726561636865640000006044820152606401610547565b60008281526003602090815260408083208484528252808320805460ff19166001179055848352600482528083208490558383526002909152812060050180549161093383611431565b9091555050604051819083907f3dc590b4a9664cbbd3fb04b3b43467723248a32939adaa5f6ec36a598693b90490600090a35050565b610971611054565b600680546000918261098283611431565b909155506040805160e08101825282815260208082018981528284018990526060830188905260808301879052600060a08401819052600160c085018190528682526002909352939093208251815592519394509092908201906109e69082611499565b50604082015160028201906109fb9082611499565b50606082015160038201556080820151600482015560a0820151600582015560c0909101516006909101805460ff191691151591909117905560405181907f8adea626209d0af8d49e7468de5d791f31e70ff7eae4b45efcd80dc9044bafef90610a6c908890889088908890611559565b60405180910390a25050505050565b6001546040516331a9108f60e11b81526004810184905233916001600160a01b031690636352211e90602401602060405180830381865afa158015610ac4573d6000803e3d6000fd5b505050506040513d601f19601f82011682018060405250810190610ae891906113ab565b6001600160a01b031614610b0e5760405162461bcd60e51b8152600401610547906113c8565b60008181526002602052604090206006015460ff16610b665760405162461bcd60e51b81526020600482015260146024820152734e6577206576656e74206e6f742061637469766560601b6044820152606401610547565b600082815260036020908152604080832084845290915290205460ff1615610bd05760405162461bcd60e51b815260206004820152601c60248201527f416c726561647920626f6f6b656420666f72206e6577206576656e74000000006044820152606401610547565b600082815260046020908152604080832054600383528184208185528352818420805460ff191690556002909252822060050180549192610c108361141a565b909155505060008381526003602090815260408083208584528252808320805460ff191660011790558583526004825280832085905584835260029091528120600501805491610c5f83611431565b91905055508181847f3a5767ae6a83512d2de9c61f2b8d4a6706fab9d33d66cab8f3bf7635a542ad3560405160405180910390a4505050565b610ca0611054565b60008181526002602052604090206006015460ff16610cf95760405162461bcd60e51b8152602060048201526015602482015274115d995b9d08185b1c9958591e48195e1c1a5c9959605a1b6044820152606401610547565b600081815260026020526040808220600601805460ff191690555182917f5809fa735d611d29d8dabf805818f86c65d00ee567ce60e4de27302f4b51038491a250565b60008281526005602090815260408083208484529091529020545b92915050565b610d9f6040518060e001604052806000815260200160608152602001606081526020016000815260200160008152602001600081526020016000151581525090565b600260008381526020019081526020016000206040518060e001604052908160008201548152602001600182018054610dd790611371565b80601f0160208091040260200160405190810160405280929190818152602001828054610e0390611371565b8015610e505780601f10610e2557610100808354040283529160200191610e50565b820191906000526020600020905b815481529060010190602001808311610e3357829003601f168201915b50505050508152602001600282018054610e6990611371565b80601f0160208091040260200160405190810160405280929190818152602001828054610e9590611371565b8015610ee25780601f10610eb757610100808354040283529160200191610ee2565b820191906000526020600020905b815481529060010190602001808311610ec557829003601f168201915b505050918352505060038201546020820152600482015460408201526005820154606082015260069091015460ff16151560809091015292915050565b610f27611054565b6001600160a01b038116610f5157604051631e4fbdf760e01b815260006004820152602401610547565b610f5a81611081565b50565b610f65611054565b600082815260036020908152604080832084845290915290205460ff16610fce5760405162461bcd60e51b815260206004820152601860248201527f4e4654206e6f7420626f6f6b656420666f72206576656e7400000000000000006044820152606401610547565b6000818152600260205260409020600301544210156110235760405162461bcd60e51b8152602060048201526011602482015270115d995b9d081b9bdd081cdd185c9d1959607a1b6044820152606401610547565b604051819083907face05157c2c2e541f757661832e461481f06aec5918b9ddecb33a8bd4a32da6390600090a35050565b6000546001600160a01b031633146106d15760405163118cdaa760e01b8152336004820152602401610547565b600080546001600160a01b038381166001600160a01b0319831681178455604051919092169283917f8be0079c531659141344cd1fd0a4f28419497f9722a3daafe3b4186f6b6457e09190a35050565b6000602082840312156110e357600080fd5b5035919050565b6000815180845260005b81811015611110576020818501810151868301820152016110f4565b506000602082860101526020601f19601f83011685010191505092915050565b87815260e06020820152600061114960e08301896110ea565b828103604084015261115b81896110ea565b9150508560608301528460808301528360a083015282151560c083015298975050505050505050565b6000806040838503121561119757600080fd5b50508035926020909101359150565b634e487b7160e01b600052604160045260246000fd5b600082601f8301126111cd57600080fd5b813567ffffffffffffffff808211156111e8576111e86111a6565b604051601f8301601f19908116603f01168101908282118183101715611210576112106111a6565b8160405283815286602085880101111561122957600080fd5b836020870160208301376000602085830101528094505050505092915050565b6000806000806080858703121561125f57600080fd5b843567ffffffffffffffff8082111561127757600080fd5b611283888389016111bc565b9550602087013591508082111561129957600080fd5b506112a6878288016111bc565b949794965050505060408301359260600135919050565b60208152815160208201526000602083015160e060408401526112e46101008401826110ea565b90506040840151601f1984830301606085015261130182826110ea565b91505060608401516080840152608084015160a084015260a084015160c084015260c0840151151560e08401528091505092915050565b6001600160a01b0381168114610f5a57600080fd5b60006020828403121561135f57600080fd5b813561136a81611338565b9392505050565b600181811c9082168061138557607f821691505b6020821081036113a557634e487b7160e01b600052602260045260246000fd5b50919050565b6000602082840312156113bd57600080fd5b815161136a81611338565b6020808252600f908201526e2737ba103a37b5b2b71037bbb732b960891b604082015260600190565b634e487b7160e01b600052601160045260246000fd5b81810381811115610d5757610d576113f1565b600081611429576114296113f1565b506000190190565b600060018201611443576114436113f1565b5060010190565b601f82111561149457600081815260208120601f850160051c810160208610156114715750805b601f850160051c820191505b818110156114905782815560010161147d565b5050505b505050565b815167ffffffffffffffff8111156114b3576114b36111a6565b6114c7816114c18454611371565b8461144a565b602080601f8311600181146114fc57600084156114e45750858301515b600019600386901b1c1916600185901b178555611490565b600085815260208120601f198616915b8281101561152b5788860151825594840194600190910190840161150c565b50858210156115495787850151600019600388901b60f8161c191681555b5050505050600190811b01905550565b60808152600061156c60808301876110ea565b828103602084015261157e81876110ea565b60408401959095525050606001529291505056fea26469706673582212202188774482857a9494ed9334f60fe24244c4c644a59c4c3122b27b6ca201ccfa64736f6c63430008140033",
  "linkReferences": {},
  "deployedLinkReferences": {}
}