{
  "_format": "hh-sol-artifact-1",
  "contractName": "WaveXNFTV2",
  "sourceName": "contracts/WavexNFTV2.sol",
  "abi": [
    {
      "inputs": [],
      "stateMutability": "nonpayable",
      "type": "constructor"
    },
    {
      "anonymous": false,
      "inputs": [
        {
          "indexed": true,
          "internalType": "address",
          "name": "owner",
          "type": "address"
        },
        {
          "indexed": true,
          "internalType": "address",
          "name": "approved",
          "type": "address"
        },
        {
          "indexed": true,
          "internalType": "uint256",
          "name": "tokenId",
          "type": "uint256"
        }
      ],
      "name": "Approval",
      "type": "event"
    },
    {
      "anonymous": false,
      "inputs": [
        {
          "indexed": true,
          "internalType": "address",
          "name": "owner",
          "type": "address"
        },
        {
          "indexed": true,
          "internalType": "address",
          "name": "operator",
          "type": "address"
        },
        {
          "indexed": false,
          "internalType": "bool",
          "name": "approved",
          "type": "bool"
        }
      ],
      "name": "ApprovalForAll",
      "type": "event"
    },
    {
      "anonymous": false,
      "inputs": [
        {
          "indexed": true,
          "internalType": "uint256",
          "name": "tokenId",
          "type": "uint256"
        },
        {
          "indexed": false,
          "internalType": "uint256",
          "name": "newBalance",
          "type": "uint256"
        },
        {
          "indexed": false,
          "internalType": "string",
          "name": "updateType",
          "type": "string"
        }
      ],
      "name": "BalanceUpdated",
      "type": "event"
    },
    {
      "anonymous": false,
      "inputs": [
        {
          "indexed": false,
          "internalType": "uint256",
          "name": "_fromTokenId",
          "type": "uint256"
        },
        {
          "indexed": false,
          "internalType": "uint256",
          "name": "_toTokenId",
          "type": "uint256"
        }
      ],
      "name": "BatchMetadataUpdate",
      "type": "event"
    },
    {
      "anonymous": false,
      "inputs": [
        {
          "indexed": true,
          "internalType": "uint256",
          "name": "tokenId",
          "type": "uint256"
        },
        {
          "indexed": true,
          "internalType": "uint256",
          "name": "eventId",
          "type": "uint256"
        }
      ],
      "name": "EventPurchased",
      "type": "event"
    },
    {
      "anonymous": false,
      "inputs": [
        {
          "indexed": false,
          "internalType": "uint256",
          "name": "_tokenId",
          "type": "uint256"
        }
      ],
      "name": "MetadataUpdate",
      "type": "event"
    },
    {
      "anonymous": false,
      "inputs": [
        {
          "indexed": true,
          "internalType": "address",
          "name": "previousOwner",
          "type": "address"
        },
        {
          "indexed": true,
          "internalType": "address",
          "name": "newOwner",
          "type": "address"
        }
      ],
      "name": "OwnershipTransferred",
      "type": "event"
    },
    {
      "anonymous": false,
      "inputs": [
        {
          "indexed": false,
          "internalType": "address",
          "name": "account",
          "type": "address"
        }
      ],
      "name": "Paused",
      "type": "event"
    },
    {
      "anonymous": false,
      "inputs": [
        {
          "indexed": true,
          "internalType": "address",
          "name": "tokenAddress",
          "type": "address"
        }
      ],
      "name": "SupportedTokenAdded",
      "type": "event"
    },
    {
      "anonymous": false,
      "inputs": [
        {
          "indexed": true,
          "internalType": "uint256",
          "name": "tokenId",
          "type": "uint256"
        },
        {
          "indexed": false,
          "internalType": "string",
          "name": "transactionType",
          "type": "string"
        },
        {
          "indexed": false,
          "internalType": "uint256",
          "name": "amount",
          "type": "uint256"
        }
      ],
      "name": "TransactionRecorded",
      "type": "event"
    },
    {
      "anonymous": false,
      "inputs": [
        {
          "indexed": true,
          "internalType": "address",
          "name": "from",
          "type": "address"
        },
        {
          "indexed": true,
          "internalType": "address",
          "name": "to",
          "type": "address"
        },
        {
          "indexed": true,
          "internalType": "uint256",
          "name": "tokenId",
          "type": "uint256"
        }
      ],
      "name": "Transfer",
      "type": "event"
    },
    {
      "anonymous": false,
      "inputs": [
        {
          "indexed": false,
          "internalType": "address",
          "name": "account",
          "type": "address"
        }
      ],
      "name": "Unpaused",
      "type": "event"
    },
    {
      "inputs": [
        {
          "internalType": "address",
          "name": "tokenAddress",
          "type": "address"
        }
      ],
      "name": "addSupportedToken",
      "outputs": [],
      "stateMutability": "nonpayable",
      "type": "function"
    },
    {
      "inputs": [
        {
          "internalType": "uint256",
          "name": "templateId",
          "type": "uint256"
        },
        {
          "internalType": "string",
          "name": "name",
          "type": "string"
        },
        {
          "internalType": "uint256",
          "name": "baseBalance",
          "type": "uint256"
        },
        {
          "internalType": "uint256",
          "name": "price",
          "type": "uint256"
        },
        {
          "internalType": "bool",
          "name": "active",
          "type": "bool"
        }
      ],
      "name": "addTemplate",
      "outputs": [],
      "stateMutability": "nonpayable",
      "type": "function"
    },
    {
      "inputs": [
        {
          "internalType": "address",
          "name": "to",
          "type": "address"
        },
        {
          "internalType": "uint256",
          "name": "tokenId",
          "type": "uint256"
        }
      ],
      "name": "approve",
      "outputs": [],
      "stateMutability": "nonpayable",
      "type": "function"
    },
    {
      "inputs": [
        {
          "internalType": "address",
          "name": "merchant",
          "type": "address"
        }
      ],
      "name": "authorizeMerchant",
      "outputs": [],
      "stateMutability": "nonpayable",
      "type": "function"
    },
    {
      "inputs": [
        {
          "internalType": "address",
          "name": "",
          "type": "address"
        }
      ],
      "name": "authorizedMerchants",
      "outputs": [
        {
          "internalType": "bool",
          "name": "",
          "type": "bool"
        }
      ],
      "stateMutability": "view",
      "type": "function"
    },
    {
      "inputs": [
        {
          "internalType": "address",
          "name": "owner",
          "type": "address"
        }
      ],
      "name": "balanceOf",
      "outputs": [
        {
          "internalType": "uint256",
          "name": "",
          "type": "uint256"
        }
      ],
      "stateMutability": "view",
      "type": "function"
    },
    {
      "inputs": [
        {
          "internalType": "string",
          "name": "name",
          "type": "string"
        },
        {
          "internalType": "uint256",
          "name": "price",
          "type": "uint256"
        },
        {
          "internalType": "uint256",
          "name": "capacity",
          "type": "uint256"
        },
        {
          "internalType": "uint256",
          "name": "eventType",
          "type": "uint256"
        }
      ],
      "name": "createEvent",
      "outputs": [
        {
          "internalType": "uint256",
          "name": "",
          "type": "uint256"
        }
      ],
      "stateMutability": "nonpayable",
      "type": "function"
    },
    {
      "inputs": [
        {
          "internalType": "uint256",
          "name": "",
          "type": "uint256"
        }
      ],
      "name": "events",
      "outputs": [
        {
          "internalType": "string",
          "name": "name",
          "type": "string"
        },
        {
          "internalType": "uint256",
          "name": "price",
          "type": "uint256"
        },
        {
          "internalType": "uint256",
          "name": "capacity",
          "type": "uint256"
        },
        {
          "internalType": "uint256",
          "name": "soldCount",
          "type": "uint256"
        },
        {
          "internalType": "bool",
          "name": "active",
          "type": "bool"
        },
        {
          "internalType": "uint256",
          "name": "eventType",
          "type": "uint256"
        }
      ],
      "stateMutability": "view",
      "type": "function"
    },
    {
      "inputs": [
        {
          "internalType": "uint256",
          "name": "tokenId",
          "type": "uint256"
        }
      ],
      "name": "getApproved",
      "outputs": [
        {
          "internalType": "address",
          "name": "",
          "type": "address"
        }
      ],
      "stateMutability": "view",
      "type": "function"
    },
    {
      "inputs": [
        {
          "internalType": "uint256",
          "name": "tokenId",
          "type": "uint256"
        }
      ],
      "name": "getTokenEvents",
      "outputs": [
        {
          "internalType": "uint256[]",
          "name": "",
          "type": "uint256[]"
        }
      ],
      "stateMutability": "view",
      "type": "function"
    },
    {
      "inputs": [
        {
          "internalType": "uint256",
          "name": "tokenId",
          "type": "uint256"
        },
        {
          "internalType": "uint256",
          "name": "index",
          "type": "uint256"
        }
      ],
      "name": "getTransaction",
      "outputs": [
        {
          "internalType": "uint256",
          "name": "timestamp",
          "type": "uint256"
        },
        {
          "internalType": "address",
          "name": "merchant",
          "type": "address"
        },
        {
          "internalType": "uint256",
          "name": "amount",
          "type": "uint256"
        },
        {
          "internalType": "string",
          "name": "transactionType",
          "type": "string"
        },
        {
          "internalType": "string",
          "name": "metadata",
          "type": "string"
        }
      ],
      "stateMutability": "view",
      "type": "function"
    },
    {
      "inputs": [
        {
          "internalType": "uint256",
          "name": "tokenId",
          "type": "uint256"
        }
      ],
      "name": "getTransactionCount",
      "outputs": [
        {
          "internalType": "uint256",
          "name": "",
          "type": "uint256"
        }
      ],
      "stateMutability": "view",
      "type": "function"
    },
    {
      "inputs": [
        {
          "internalType": "address",
          "name": "owner",
          "type": "address"
        },
        {
          "internalType": "address",
          "name": "operator",
          "type": "address"
        }
      ],
      "name": "isApprovedForAll",
      "outputs": [
        {
          "internalType": "bool",
          "name": "",
          "type": "bool"
        }
      ],
      "stateMutability": "view",
      "type": "function"
    },
    {
      "inputs": [
        {
          "internalType": "uint256",
          "name": "templateId",
          "type": "uint256"
        },
        {
          "internalType": "address",
          "name": "to",
          "type": "address"
        },
        {
          "internalType": "string",
          "name": "uri",
          "type": "string"
        }
      ],
      "name": "mintFromTemplate",
      "outputs": [
        {
          "internalType": "uint256",
          "name": "",
          "type": "uint256"
        }
      ],
      "stateMutability": "payable",
      "type": "function"
    },
    {
      "inputs": [],
      "name": "name",
      "outputs": [
        {
          "internalType": "string",
          "name": "",
          "type": "string"
        }
      ],
      "stateMutability": "view",
      "type": "function"
    },
    {
      "inputs": [],
      "name": "owner",
      "outputs": [
        {
          "internalType": "address",
          "name": "",
          "type": "address"
        }
      ],
      "stateMutability": "view",
      "type": "function"
    },
    {
      "inputs": [
        {
          "internalType": "uint256",
          "name": "tokenId",
          "type": "uint256"
        }
      ],
      "name": "ownerOf",
      "outputs": [
        {
          "internalType": "address",
          "name": "",
          "type": "address"
        }
      ],
      "stateMutability": "view",
      "type": "function"
    },
    {
      "inputs": [],
      "name": "paused",
      "outputs": [
        {
          "internalType": "bool",
          "name": "",
          "type": "bool"
        }
      ],
      "stateMutability": "view",
      "type": "function"
    },
    {
      "inputs": [
        {
          "internalType": "uint256",
          "name": "tokenId",
          "type": "uint256"
        },
        {
          "internalType": "uint256",
          "name": "amount",
          "type": "uint256"
        },
        {
          "internalType": "string",
          "name": "metadata",
          "type": "string"
        }
      ],
      "name": "processPayment",
      "outputs": [],
      "stateMutability": "nonpayable",
      "type": "function"
    },
    {
      "inputs": [
        {
          "internalType": "uint256",
          "name": "tokenId",
          "type": "uint256"
        },
        {
          "internalType": "uint256",
          "name": "eventId",
          "type": "uint256"
        }
      ],
      "name": "purchaseEventEntrance",
      "outputs": [],
      "stateMutability": "nonpayable",
      "type": "function"
    },
    {
      "inputs": [],
      "name": "renounceOwnership",
      "outputs": [],
      "stateMutability": "nonpayable",
      "type": "function"
    },
    {
      "inputs": [
        {
          "internalType": "address",
          "name": "merchant",
          "type": "address"
        }
      ],
      "name": "revokeMerchant",
      "outputs": [],
      "stateMutability": "nonpayable",
      "type": "function"
    },
    {
      "inputs": [
        {
          "internalType": "address",
          "name": "from",
          "type": "address"
        },
        {
          "internalType": "address",
          "name": "to",
          "type": "address"
        },
        {
          "internalType": "uint256",
          "name": "tokenId",
          "type": "uint256"
        }
      ],
      "name": "safeTransferFrom",
      "outputs": [],
      "stateMutability": "nonpayable",
      "type": "function"
    },
    {
      "inputs": [
        {
          "internalType": "address",
          "name": "from",
          "type": "address"
        },
        {
          "internalType": "address",
          "name": "to",
          "type": "address"
        },
        {
          "internalType": "uint256",
          "name": "tokenId",
          "type": "uint256"
        },
        {
          "internalType": "bytes",
          "name": "data",
          "type": "bytes"
        }
      ],
      "name": "safeTransferFrom",
      "outputs": [],
      "stateMutability": "nonpayable",
      "type": "function"
    },
    {
      "inputs": [
        {
          "internalType": "address",
          "name": "operator",
          "type": "address"
        },
        {
          "internalType": "bool",
          "name": "approved",
          "type": "bool"
        }
      ],
      "name": "setApprovalForAll",
      "outputs": [],
      "stateMutability": "nonpayable",
      "type": "function"
    },
    {
      "inputs": [
        {
          "internalType": "address",
          "name": "",
          "type": "address"
        }
      ],
      "name": "supportedTokens",
      "outputs": [
        {
          "internalType": "bool",
          "name": "",
          "type": "bool"
        }
      ],
      "stateMutability": "view",
      "type": "function"
    },
    {
      "inputs": [
        {
          "internalType": "bytes4",
          "name": "interfaceId",
          "type": "bytes4"
        }
      ],
      "name": "supportsInterface",
      "outputs": [
        {
          "internalType": "bool",
          "name": "",
          "type": "bool"
        }
      ],
      "stateMutability": "view",
      "type": "function"
    },
    {
      "inputs": [],
      "name": "symbol",
      "outputs": [
        {
          "internalType": "string",
          "name": "",
          "type": "string"
        }
      ],
      "stateMutability": "view",
      "type": "function"
    },
    {
      "inputs": [
        {
          "internalType": "uint256",
          "name": "",
          "type": "uint256"
        }
      ],
      "name": "templates",
      "outputs": [
        {
          "internalType": "string",
          "name": "name",
          "type": "string"
        },
        {
          "internalType": "uint256",
          "name": "baseBalance",
          "type": "uint256"
        },
        {
          "internalType": "uint256",
          "name": "price",
          "type": "uint256"
        },
        {
          "internalType": "bool",
          "name": "active",
          "type": "bool"
        }
      ],
      "stateMutability": "view",
      "type": "function"
    },
    {
      "inputs": [
        {
          "internalType": "uint256",
          "name": "",
          "type": "uint256"
        }
      ],
      "name": "tokenBalance",
      "outputs": [
        {
          "internalType": "uint256",
          "name": "",
          "type": "uint256"
        }
      ],
      "stateMutability": "view",
      "type": "function"
    },
    {
      "inputs": [
        {
          "internalType": "uint256",
          "name": "",
          "type": "uint256"
        },
        {
          "internalType": "uint256",
          "name": "",
          "type": "uint256"
        }
      ],
      "name": "tokenEvents",
      "outputs": [
        {
          "internalType": "uint256",
          "name": "",
          "type": "uint256"
        }
      ],
      "stateMutability": "view",
      "type": "function"
    },
    {
      "inputs": [
        {
          "internalType": "uint256",
          "name": "tokenId",
          "type": "uint256"
        }
      ],
      "name": "tokenURI",
      "outputs": [
        {
          "internalType": "string",
          "name": "",
          "type": "string"
        }
      ],
      "stateMutability": "view",
      "type": "function"
    },
    {
      "inputs": [
        {
          "internalType": "uint256",
          "name": "tokenId",
          "type": "uint256"
        },
        {
          "internalType": "uint256",
          "name": "amount",
          "type": "uint256"
        },
        {
          "internalType": "address",
          "name": "paymentToken",
          "type": "address"
        }
      ],
      "name": "topUpBalance",
      "outputs": [],
      "stateMutability": "nonpayable",
      "type": "function"
    },
    {
      "inputs": [
        {
          "internalType": "uint256",
          "name": "",
          "type": "uint256"
        },
        {
          "internalType": "uint256",
          "name": "",
          "type": "uint256"
        }
      ],
      "name": "transactions",
      "outputs": [
        {
          "internalType": "uint256",
          "name": "timestamp",
          "type": "uint256"
        },
        {
          "internalType": "address",
          "name": "merchant",
          "type": "address"
        },
        {
          "internalType": "uint256",
          "name": "amount",
          "type": "uint256"
        },
        {
          "internalType": "string",
          "name": "transactionType",
          "type": "string"
        },
        {
          "internalType": "string",
          "name": "metadata",
          "type": "string"
        }
      ],
      "stateMutability": "view",
      "type": "function"
    },
    {
      "inputs": [
        {
          "internalType": "address",
          "name": "from",
          "type": "address"
        },
        {
          "internalType": "address",
          "name": "to",
          "type": "address"
        },
        {
          "internalType": "uint256",
          "name": "tokenId",
          "type": "uint256"
        }
      ],
      "name": "transferFrom",
      "outputs": [],
      "stateMutability": "nonpayable",
      "type": "function"
    },
    {
      "inputs": [
        {
          "internalType": "address",
          "name": "newOwner",
          "type": "address"
        }
      ],
      "name": "transferOwnership",
      "outputs": [],
      "stateMutability": "nonpayable",
      "type": "function"
    }
  ],
  "bytecode": "0x60806040523480156200001157600080fd5b506040518060400160405280600c81526020016b2bb0bb32ac1027232a102b1960a11b815250604051806040016040528060068152602001652ba0ab22ac1960d11b8152508160009081620000679190620002ff565b506001620000768282620002ff565b50506006805460ff19169055506200008e3362000189565b620000ca60016040518060400160405280600481526020016311dbdb1960e21b815250686c6b935b8bbd400000806001620001e360201b60201c565b6200010b600260405180604001604052806008815260200167506c6174696e756d60c01b81525069010f0cf064dd59200000806001620001e360201b60201c565b62000149600360405180604001604052806005815260200164426c61636b60d81b81525069021e19e0c9bab2400000806001620001e360201b60201c565b6200018360046040518060400160405280600a8152602001694576656e74427269746560b01b8152506000806001620001e360201b60201c565b620003cb565b600680546001600160a01b03838116610100818102610100600160a81b031985161790945560405193909204169182907f8be0079c531659141344cd1fd0a4f28419497f9722a3daafe3b4186f6b6457e090600090a35050565b6040805160808101825285815260208082018690528183018590528315156060830152600088815260099091529190912081518190620002249082620002ff565b5060208201516001820155604082015160028201556060909101516003909101805460ff19169115159190911790555050505050565b634e487b7160e01b600052604160045260246000fd5b600181811c908216806200028557607f821691505b602082108103620002a657634e487b7160e01b600052602260045260246000fd5b50919050565b601f821115620002fa57600081815260208120601f850160051c81016020861015620002d55750805b601f850160051c820191505b81811015620002f657828155600101620002e1565b5050505b505050565b81516001600160401b038111156200031b576200031b6200025a565b62000333816200032c845462000270565b84620002ac565b602080601f8311600181146200036b5760008415620003525750858301515b600019600386901b1c1916600185901b178555620002f6565b600085815260208120601f198616915b828110156200039c578886015182559484019460019091019084016200037b565b5085821015620003bb5787850151600019600388901b60f8161c191681555b5050505050600190811b01905550565b61309e80620003db6000396000f3fe60806040526004361061020f5760003560e01c806370a0823111610118578063b88d4fde116100a0578063c87b56dd1161006f578063c87b56dd14610675578063ca2efd3814610695578063e84db9f7146106c5578063e985e9c5146106e5578063f2fde38b1461070557600080fd5b8063b88d4fde146105e5578063bc52565214610605578063c4754b7714610635578063c58d06861461066257600080fd5b80638da5cb5b116100e75780638da5cb5b1461054d57806395d89b4114610570578063a22cb46514610585578063a871bd66146105a5578063b701b319146105c557600080fd5b806370a08231146104d8578063715018a6146104f85780637303f6ce1461050d578063819a701c1461052d57600080fd5b806337ae9c131161019b5780634eaf9db61161016a5780634eaf9db61461041f5780635c975abb146104505780636352211e1461046857806368c4ac26146104885780636d69fcaf146104b857600080fd5b806337ae9c13146103855780633de5d0de146103a557806342842e0e146103d257806349afc6e5146103f257600080fd5b8063095ea7b3116101e2578063095ea7b3146102d15780630b791430146102f357806323b872dd146103255780632834213314610345578063368a52471461036557600080fd5b806301ffc9a7146102145780630374ab0b1461024957806306fdde0314610277578063081812fc14610299575b600080fd5b34801561022057600080fd5b5061023461022f36600461268a565b610725565b60405190151581526020015b60405180910390f35b34801561025557600080fd5b50610269610264366004612753565b610736565b604051908152602001610240565b34801561028357600080fd5b5061028c610804565b60405161024091906127f7565b3480156102a557600080fd5b506102b96102b436600461280a565b610896565b6040516001600160a01b039091168152602001610240565b3480156102dd57600080fd5b506102f16102ec36600461283f565b6108bd565b005b3480156102ff57600080fd5b5061031361030e36600461280a565b6109d7565b60405161024096959493929190612869565b34801561033157600080fd5b506102f16103403660046128a7565b610a98565b34801561035157600080fd5b506102f16103603660046128e3565b610ac9565b34801561037157600080fd5b506102f1610380366004612933565b610cf9565b34801561039157600080fd5b506102f16103a0366004612968565b610f96565b3480156103b157600080fd5b506102696103c036600461280a565b6000908152600c602052604090205490565b3480156103de57600080fd5b506102f16103ed3660046128a7565b610fc2565b3480156103fe57600080fd5b5061026961040d36600461280a565b600b6020526000908152604090205481565b34801561042b57600080fd5b5061043f61043a366004612983565b610fdd565b6040516102409594939291906129a5565b34801561045c57600080fd5b5060065460ff16610234565b34801561047457600080fd5b506102b961048336600461280a565b611147565b34801561049457600080fd5b506102346104a3366004612968565b600f6020526000908152604090205460ff1681565b3480156104c457600080fd5b506102f16104d3366004612968565b6111a7565b3480156104e457600080fd5b506102696104f3366004612968565b611249565b34801561050457600080fd5b506102f16112cf565b34801561051957600080fd5b5061043f610528366004612983565b6112e3565b34801561053957600080fd5b506102f1610548366004612968565b6114bd565b34801561055957600080fd5b5060065461010090046001600160a01b03166102b9565b34801561057c57600080fd5b5061028c6114e6565b34801561059157600080fd5b506102f16105a03660046129fe565b6114f5565b3480156105b157600080fd5b506102696105c0366004612983565b611504565b3480156105d157600080fd5b506102f16105e0366004612983565b611535565b3480156105f157600080fd5b506102f1610600366004612a35565b611771565b34801561061157600080fd5b5061062561062036600461280a565b6117a9565b6040516102409493929190612ab1565b34801561064157600080fd5b5061065561065036600461280a565b61185e565b6040516102409190612ae2565b610269610670366004612b26565b6118c0565b34801561068157600080fd5b5061028c61069036600461280a565b611a09565b3480156106a157600080fd5b506102346106b0366004612968565b600e6020526000908152604090205460ff1681565b3480156106d157600080fd5b506102f16106e0366004612b67565b611a14565b3480156106f157600080fd5b50610234610700366004612bd6565b611a30565b34801561071157600080fd5b506102f1610720366004612968565b611a5e565b600061073082611ad7565b92915050565b6000610740611afc565b60008542604051602001610755929190612c09565b60408051601f19818403018152828252805160209182012060c0840183528984528382018990528383018890526000606085018190526001608086015260a08501889052818152600a90925291902082519193509081906107b69082612cb3565b50602082015160018201556040820151600282015560608201516003820155608082015160048201805460ff191691151591909117905560a09091015160059091015590505b949350505050565b60606000805461081390612c2b565b80601f016020809104026020016040519081016040528092919081815260200182805461083f90612c2b565b801561088c5780601f106108615761010080835404028352916020019161088c565b820191906000526020600020905b81548152906001019060200180831161086f57829003601f168201915b5050505050905090565b60006108a182611b5c565b506000908152600460205260409020546001600160a01b031690565b60006108c882611147565b9050806001600160a01b0316836001600160a01b03160361093a5760405162461bcd60e51b815260206004820152602160248201527f4552433732313a20617070726f76616c20746f2063757272656e74206f776e656044820152603960f91b60648201526084015b60405180910390fd5b336001600160a01b038216148061095657506109568133611a30565b6109c85760405162461bcd60e51b815260206004820152603d60248201527f4552433732313a20617070726f76652063616c6c6572206973206e6f7420746f60448201527f6b656e206f776e6572206f7220617070726f76656420666f7220616c6c0000006064820152608401610931565b6109d28383611bac565b505050565b600a602052600090815260409020805481906109f290612c2b565b80601f0160208091040260200160405190810160405280929190818152602001828054610a1e90612c2b565b8015610a6b5780601f10610a4057610100808354040283529160200191610a6b565b820191906000526020600020905b815481529060010190602001808311610a4e57829003601f168201915b505050506001830154600284015460038501546004860154600590960154949592949193509160ff169086565b610aa23382611c1a565b610abe5760405162461bcd60e51b815260040161093190612d73565b6109d2838383611c78565b610ad283611ddc565b610aee5760405162461bcd60e51b815260040161093190612dc0565b336000908152600e602052604090205460ff16610b4d5760405162461bcd60e51b815260206004820152601760248201527f4e6f7420617574686f72697a6564206d65726368616e740000000000000000006044820152606401610931565b6000838152600b6020526040902054821115610ba25760405162461bcd60e51b8152602060048201526014602482015273496e73756666696369656e742062616c616e636560601b6044820152606401610931565b6000838152600b602052604081208054849290610bc0908490612e04565b90915550506000838152600c60209081526040808320815160a08101835242815233818501908152818401888152845180860190955260078552661410565351539560ca1b8587015260608301948552608083018890528354600180820186559488529590962082516005909602019485555191840180546001600160a01b0319166001600160a01b039093169290921790915592516002830155516003820190610c6b9082612cb3565b5060808201516004820190610c809082612cb3565b50505082600080516020613049833981519152600b600086815260200190815260200160002054604051610cb49190612e17565b60405180910390a2827f9c74a38faff17c41e397c13aa83d95dba8ce2a9fbc9bf10fc2212663d6e5223e83604051610cec9190612e44565b60405180910390a2505050565b610d0283611ddc565b610d1e5760405162461bcd60e51b815260040161093190612dc0565b6001600160a01b0381166000908152600f602052604090205460ff16610d7c5760405162461bcd60e51b8152602060048201526013602482015272151bdad95b881b9bdd081cdd5c1c1bdc9d1959606a1b6044820152606401610931565b6040516323b872dd60e01b81523360048201523060248201526044810183905281906001600160a01b038216906323b872dd906064016020604051808303816000875af1158015610dd1573d6000803e3d6000fd5b505050506040513d601f19601f82011682018060405250810190610df59190612e79565b610e335760405162461bcd60e51b815260206004820152600f60248201526e151c985b9cd9995c8819985a5b1959608a1b6044820152606401610931565b6000848152600b602052604081208054859290610e51908490612e96565b90915550506000848152600c60209081526040808320815160a081018352428152808401858152818401898152845180860186526005808252640544f5055560dc1b828901526060850191825286518089019097528887526080850196909652845460018082018755958952969097208351969095029094019485555191840180546001600160a01b0319166001600160a01b03909316929092179091559051600283015591516003820190610f079082612cb3565b5060808201516004820190610f1c9082612cb3565b50505083600080516020613049833981519152600b600087815260200190815260200160002054604051610f509190612ea9565b60405180910390a2837f9c74a38faff17c41e397c13aa83d95dba8ce2a9fbc9bf10fc2212663d6e5223e84604051610f889190612ed4565b60405180910390a250505050565b610f9e611afc565b6001600160a01b03166000908152600e60205260409020805460ff19166001179055565b6109d283838360405180602001604052806000815250611771565b600c6020528160005260406000208181548110610ff957600080fd5b600091825260209091206005909102018054600182015460028301546003840180549396506001600160a01b039092169450929161103690612c2b565b80601f016020809104026020016040519081016040528092919081815260200182805461106290612c2b565b80156110af5780601f10611084576101008083540402835291602001916110af565b820191906000526020600020905b81548152906001019060200180831161109257829003601f168201915b5050505050908060040180546110c490612c2b565b80601f01602080910402602001604051908101604052809291908181526020018280546110f090612c2b565b801561113d5780601f106111125761010080835404028352916020019161113d565b820191906000526020600020905b81548152906001019060200180831161112057829003601f168201915b5050505050905085565b6000818152600260205260408120546001600160a01b0316806107305760405162461bcd60e51b8152602060048201526018602482015277115490cdcc8c4e881a5b9d985b1a59081d1bdad95b88125160421b6044820152606401610931565b6111af611afc565b6001600160a01b0381166111fd5760405162461bcd60e51b8152602060048201526015602482015274496e76616c696420746f6b656e206164647265737360581b6044820152606401610931565b6001600160a01b0381166000818152600f6020526040808220805460ff19166001179055517fd1be2e90bd3d24839d9dd94ad871068e1f9688b02fa43f2a62c9975dfa9de2d79190a250565b60006001600160a01b0382166112b35760405162461bcd60e51b815260206004820152602960248201527f4552433732313a2061646472657373207a65726f206973206e6f7420612076616044820152683634b21037bbb732b960b91b6064820152608401610931565b506001600160a01b031660009081526003602052604090205490565b6112d7611afc565b6112e16000611df9565b565b60008060006060806000600c6000898152602001908152602001600020878154811061131157611311612ef9565b90600052602060002090600502016040518060a0016040529081600082015481526020016001820160009054906101000a90046001600160a01b03166001600160a01b03166001600160a01b031681526020016002820154815260200160038201805461137d90612c2b565b80601f01602080910402602001604051908101604052809291908181526020018280546113a990612c2b565b80156113f65780601f106113cb576101008083540402835291602001916113f6565b820191906000526020600020905b8154815290600101906020018083116113d957829003601f168201915b5050505050815260200160048201805461140f90612c2b565b80601f016020809104026020016040519081016040528092919081815260200182805461143b90612c2b565b80156114885780601f1061145d57610100808354040283529160200191611488565b820191906000526020600020905b81548152906001019060200180831161146b57829003601f168201915b5050509190925250508151602083015160408401516060850151608090950151929d919c509a50929850965090945050505050565b6114c5611afc565b6001600160a01b03166000908152600e60205260409020805460ff19169055565b60606001805461081390612c2b565b611500338383611e53565b5050565b600d602052816000526040600020818154811061152057600080fd5b90600052602060002001600091509150505481565b61153e82611ddc565b61155a5760405162461bcd60e51b815260040161093190612dc0565b6000818152600a602052604090206004015460ff166115ae5760405162461bcd60e51b815260206004820152601060248201526f4576656e74206e6f742061637469766560801b6044820152606401610931565b6000818152600a602052604090206002810154600390910154106116015760405162461bcd60e51b815260206004820152600a602482015269115d995b9d08199d5b1b60b21b6044820152606401610931565b6000818152600a6020908152604080832060010154858452600b9092529091205410156116675760405162461bcd60e51b8152602060048201526014602482015273496e73756666696369656e742062616c616e636560601b6044820152606401610931565b6000818152600a6020908152604080832060010154858452600b9092528220805491929091611697908490612e04565b90915550506000818152600a602052604081206003018054916116b983612f0f565b90915550506000828152600d60209081526040808320805460018101825590845291832090910183905551829184917f41d60c8cad3c4e044896e072fb848c8f5d2e3e91c87a22a93d930c35aa1924039190a381600080516020613049833981519152600b600085815260200190815260200160002054604051611765918152604060208201819052600e908201526d4556454e545f505552434841534560901b606082015260800190565b60405180910390a25050565b61177b3383611c1a565b6117975760405162461bcd60e51b815260040161093190612d73565b6117a384848484611f21565b50505050565b6009602052600090815260409020805481906117c490612c2b565b80601f01602080910402602001604051908101604052809291908181526020018280546117f090612c2b565b801561183d5780601f106118125761010080835404028352916020019161183d565b820191906000526020600020905b81548152906001019060200180831161182057829003601f168201915b50505050600183015460028401546003909401549293909290915060ff1684565b6000818152600d60209081526040918290208054835181840281018401909452808452606093928301828280156118b457602002820191906000526020600020905b8154815260200190600101908083116118a0575b50505050509050919050565b60008381526009602052604081206003015460ff166119175760405162461bcd60e51b815260206004820152601360248201527254656d706c617465206e6f742061637469766560681b6044820152606401610931565b60008481526009602052604090206002015434101561196f5760405162461bcd60e51b8152602060048201526014602482015273125b9cdd59999a58da595b9d081c185e5b595b9d60621b6044820152606401610931565b61197d600880546001019055565b600061198860085490565b90506119948482611f54565b61199e8184611f6e565b600085815260096020818152604080842060010154858552600b83528185208190559389905291815281519283528201819052600490820152631352539560e21b606082015281906000805160206130498339815191529060800160405180910390a2949350505050565b60606107308261202a565b611a1c611afc565b611a298585858585612132565b5050505050565b6001600160a01b03918216600090815260056020908152604080832093909416825291909152205460ff1690565b611a66611afc565b6001600160a01b038116611acb5760405162461bcd60e51b815260206004820152602660248201527f4f776e61626c653a206e6577206f776e657220697320746865207a65726f206160448201526564647265737360d01b6064820152608401610931565b611ad481611df9565b50565b60006001600160e01b03198216632483248360e11b14806107305750610730826121a7565b6006546001600160a01b036101009091041633146112e15760405162461bcd60e51b815260206004820181905260248201527f4f776e61626c653a2063616c6c6572206973206e6f7420746865206f776e65726044820152606401610931565b611b6581611ddc565b611ad45760405162461bcd60e51b8152602060048201526018602482015277115490cdcc8c4e881a5b9d985b1a59081d1bdad95b88125160421b6044820152606401610931565b600081815260046020526040902080546001600160a01b0319166001600160a01b0384169081179091558190611be182611147565b6001600160a01b03167f8c5be1e5ebec7d5bd14f71427d1e84f3dd0314c0f7b2291e5b200ac8c7c3b92560405160405180910390a45050565b600080611c2683611147565b9050806001600160a01b0316846001600160a01b03161480611c4d5750611c4d8185611a30565b806107fc5750836001600160a01b0316611c6684610896565b6001600160a01b031614949350505050565b826001600160a01b0316611c8b82611147565b6001600160a01b031614611cb15760405162461bcd60e51b815260040161093190612f28565b6001600160a01b038216611d135760405162461bcd60e51b8152602060048201526024808201527f4552433732313a207472616e7366657220746f20746865207a65726f206164646044820152637265737360e01b6064820152608401610931565b826001600160a01b0316611d2682611147565b6001600160a01b031614611d4c5760405162461bcd60e51b815260040161093190612f28565b600081815260046020908152604080832080546001600160a01b03199081169091556001600160a01b0387811680865260038552838620805460001901905590871680865283862080546001019055868652600290945282852080549092168417909155905184937fddf252ad1be2c89b69c2b068fc378daa952ba7f163c4a11628f55a4df523b3ef91a4505050565b6000908152600260205260409020546001600160a01b0316151590565b600680546001600160a01b03838116610100818102610100600160a81b031985161790945560405193909204169182907f8be0079c531659141344cd1fd0a4f28419497f9722a3daafe3b4186f6b6457e090600090a35050565b816001600160a01b0316836001600160a01b031603611eb45760405162461bcd60e51b815260206004820152601960248201527f4552433732313a20617070726f766520746f2063616c6c6572000000000000006044820152606401610931565b6001600160a01b03838116600081815260056020908152604080832094871680845294825291829020805460ff191686151590811790915591519182527f17307eab39ab6107e8899845ad3d59bd9653f200f220920489ca2b5937696c31910160405180910390a3505050565b611f2c848484611c78565b611f38848484846121f7565b6117a35760405162461bcd60e51b815260040161093190612f6d565b6115008282604051806020016040528060008152506122f5565b611f7782611ddc565b611fda5760405162461bcd60e51b815260206004820152602e60248201527f45524337323155524953746f726167653a2055524920736574206f66206e6f6e60448201526d32bc34b9ba32b73a103a37b5b2b760911b6064820152608401610931565b6000828152600760205260409020611ff28282612cb3565b506040518281527ff8e1a15aba9398e019f0b49df1a4fde98ee17ae345cb5f6b5e2c27f5033e8ce79060200160405180910390a15050565b606061203582611b5c565b6000828152600760205260408120805461204e90612c2b565b80601f016020809104026020016040519081016040528092919081815260200182805461207a90612c2b565b80156120c75780601f1061209c576101008083540402835291602001916120c7565b820191906000526020600020905b8154815290600101906020018083116120aa57829003601f168201915b5050505050905060006120e560408051602081019091526000815290565b905080516000036120f7575092915050565b815115612129578082604051602001612111929190612fbf565b60405160208183030381529060405292505050919050565b6107fc84612328565b60408051608081018252858152602080820186905281830185905283151560608301526000888152600990915291909120815181906121719082612cb3565b5060208201516001820155604082015160028201556060909101516003909101805460ff19169115159190911790555050505050565b60006001600160e01b031982166380ac58cd60e01b14806121d857506001600160e01b03198216635b5e139f60e01b145b8061073057506301ffc9a760e01b6001600160e01b0319831614610730565b60006001600160a01b0384163b156122ed57604051630a85bd0160e11b81526001600160a01b0385169063150b7a029061223b903390899088908890600401612fee565b6020604051808303816000875af1925050508015612276575060408051601f3d908101601f191682019092526122739181019061302b565b60015b6122d3573d8080156122a4576040519150601f19603f3d011682016040523d82523d6000602084013e6122a9565b606091505b5080516000036122cb5760405162461bcd60e51b815260040161093190612f6d565b805181602001fd5b6001600160e01b031916630a85bd0160e11b1490506107fc565b5060016107fc565b6122ff838361239c565b61230c60008484846121f7565b6109d25760405162461bcd60e51b815260040161093190612f6d565b606061233382611b5c565b600061234a60408051602081019091526000815290565b9050600081511161236a5760405180602001604052806000815250612395565b8061237484612509565b604051602001612385929190612fbf565b6040516020818303038152906040525b9392505050565b6001600160a01b0382166123f25760405162461bcd60e51b815260206004820181905260248201527f4552433732313a206d696e7420746f20746865207a65726f20616464726573736044820152606401610931565b6123fb81611ddc565b156124485760405162461bcd60e51b815260206004820152601c60248201527f4552433732313a20746f6b656e20616c7265616479206d696e746564000000006044820152606401610931565b61245181611ddc565b1561249e5760405162461bcd60e51b815260206004820152601c60248201527f4552433732313a20746f6b656e20616c7265616479206d696e746564000000006044820152606401610931565b6001600160a01b038216600081815260036020908152604080832080546001019055848352600290915280822080546001600160a01b0319168417905551839291907fddf252ad1be2c89b69c2b068fc378daa952ba7f163c4a11628f55a4df523b3ef908290a45050565b606060006125168361259c565b600101905060008167ffffffffffffffff811115612536576125366126a7565b6040519080825280601f01601f191660200182016040528015612560576020820181803683370190505b5090508181016020015b600019016f181899199a1a9b1b9c1cb0b131b232b360811b600a86061a8153600a850494508461256a57509392505050565b60008072184f03e93ff9f4daa797ed6e38ed64bf6a1f0160401b83106125db5772184f03e93ff9f4daa797ed6e38ed64bf6a1f0160401b830492506040015b6d04ee2d6d415b85acef81000000008310612607576d04ee2d6d415b85acef8100000000830492506020015b662386f26fc10000831061262557662386f26fc10000830492506010015b6305f5e100831061263d576305f5e100830492506008015b612710831061265157612710830492506004015b60648310612663576064830492506002015b600a83106107305760010192915050565b6001600160e01b031981168114611ad457600080fd5b60006020828403121561269c57600080fd5b813561239581612674565b634e487b7160e01b600052604160045260246000fd5b600067ffffffffffffffff808411156126d8576126d86126a7565b604051601f8501601f19908116603f01168101908282118183101715612700576127006126a7565b8160405280935085815286868601111561271957600080fd5b858560208301376000602087830101525050509392505050565b600082601f83011261274457600080fd5b612395838335602085016126bd565b6000806000806080858703121561276957600080fd5b843567ffffffffffffffff81111561278057600080fd5b61278c87828801612733565b97602087013597506040870135966060013595509350505050565b60005b838110156127c25781810151838201526020016127aa565b50506000910152565b600081518084526127e38160208601602086016127a7565b601f01601f19169290920160200192915050565b60208152600061239560208301846127cb565b60006020828403121561281c57600080fd5b5035919050565b80356001600160a01b038116811461283a57600080fd5b919050565b6000806040838503121561285257600080fd5b61285b83612823565b946020939093013593505050565b60c08152600061287c60c08301896127cb565b602083019790975250604081019490945260608401929092521515608083015260a090910152919050565b6000806000606084860312156128bc57600080fd5b6128c584612823565b92506128d360208501612823565b9150604084013590509250925092565b6000806000606084860312156128f857600080fd5b8335925060208401359150604084013567ffffffffffffffff81111561291d57600080fd5b61292986828701612733565b9150509250925092565b60008060006060848603121561294857600080fd5b833592506020840135915061295f60408501612823565b90509250925092565b60006020828403121561297a57600080fd5b61239582612823565b6000806040838503121561299657600080fd5b50508035926020909101359150565b85815260018060a01b038516602082015283604082015260a0606082015260006129d260a08301856127cb565b82810360808401526129e481856127cb565b98975050505050505050565b8015158114611ad457600080fd5b60008060408385031215612a1157600080fd5b612a1a83612823565b91506020830135612a2a816129f0565b809150509250929050565b60008060008060808587031215612a4b57600080fd5b612a5485612823565b9350612a6260208601612823565b925060408501359150606085013567ffffffffffffffff811115612a8557600080fd5b8501601f81018713612a9657600080fd5b612aa5878235602084016126bd565b91505092959194509250565b608081526000612ac460808301876127cb565b60208301959095525060408101929092521515606090910152919050565b6020808252825182820181905260009190848201906040850190845b81811015612b1a57835183529284019291840191600101612afe565b50909695505050505050565b600080600060608486031215612b3b57600080fd5b83359250612b4b60208501612823565b9150604084013567ffffffffffffffff81111561291d57600080fd5b600080600080600060a08688031215612b7f57600080fd5b85359450602086013567ffffffffffffffff811115612b9d57600080fd5b612ba988828901612733565b94505060408601359250606086013591506080860135612bc8816129f0565b809150509295509295909350565b60008060408385031215612be957600080fd5b612bf283612823565b9150612c0060208401612823565b90509250929050565b60008351612c1b8184602088016127a7565b9190910191825250602001919050565b600181811c90821680612c3f57607f821691505b602082108103612c5f57634e487b7160e01b600052602260045260246000fd5b50919050565b601f8211156109d257600081815260208120601f850160051c81016020861015612c8c5750805b601f850160051c820191505b81811015612cab57828155600101612c98565b505050505050565b815167ffffffffffffffff811115612ccd57612ccd6126a7565b612ce181612cdb8454612c2b565b84612c65565b602080601f831160018114612d165760008415612cfe5750858301515b600019600386901b1c1916600185901b178555612cab565b600085815260208120601f198616915b82811015612d4557888601518255948401946001909101908401612d26565b5085821015612d635787850151600019600388901b60f8161c191681555b5050505050600190811b01905550565b6020808252602d908201527f4552433732313a2063616c6c6572206973206e6f7420746f6b656e206f776e6560408201526c1c881bdc88185c1c1c9bdd9959609a1b606082015260800190565b602080825260149082015273151bdad95b88191bd95cc81b9bdd08195e1a5cdd60621b604082015260600190565b634e487b7160e01b600052601160045260246000fd5b8181038181111561073057610730612dee565b8181526040602082015260006123956040830160078152661410565351539560ca1b602082015260400190565b604081526000612e6b6040830160078152661410565351539560ca1b602082015260400190565b905082602083015292915050565b600060208284031215612e8b57600080fd5b8151612395816129f0565b8082018082111561073057610730612dee565b8181526040602082015260006123956040830160058152640544f5055560dc1b602082015260400190565b604081526000612e6b6040830160058152640544f5055560dc1b602082015260400190565b634e487b7160e01b600052603260045260246000fd5b600060018201612f2157612f21612dee565b5060010190565b60208082526025908201527f4552433732313a207472616e736665722066726f6d20696e636f72726563742060408201526437bbb732b960d91b606082015260800190565b60208082526032908201527f4552433732313a207472616e7366657220746f206e6f6e20455243373231526560408201527131b2b4bb32b91034b6b83632b6b2b73a32b960711b606082015260800190565b60008351612fd18184602088016127a7565b835190830190612fe58183602088016127a7565b01949350505050565b6001600160a01b0385811682528416602082015260408101839052608060608201819052600090613021908301846127cb565b9695505050505050565b60006020828403121561303d57600080fd5b81516123958161267456feec928c2fe6632313165f754a793ab00b2cde005b5c7571959d3137d5c4d4ac67a26469706673582212204092a51c01b41217f66aba4ba3aabd5c149c368156253614bf6ca2d2d2b7ab0864736f6c63430008140033",
  "linkReferences": {},
  "deployedLinkReferences": {}
}