{
  "_format": "hh-sol-artifact-1",
  "contractName": "WaveXNFTV2",
  "sourceName": "contracts/WavexNFTV2.sol",
  "abi": [
    {
      "inputs": [],
      "stateMutability": "nonpayable",
      "type": "constructor"
    },
    {
      "anonymous": false,
      "inputs": [
        {
          "indexed": true,
          "internalType": "address",
          "name": "owner",
          "type": "address"
        },
        {
          "indexed": true,
          "internalType": "address",
          "name": "approved",
          "type": "address"
        },
        {
          "indexed": true,
          "internalType": "uint256",
          "name": "tokenId",
          "type": "uint256"
        }
      ],
      "name": "Approval",
      "type": "event"
    },
    {
      "anonymous": false,
      "inputs": [
        {
          "indexed": true,
          "internalType": "address",
          "name": "owner",
          "type": "address"
        },
        {
          "indexed": true,
          "internalType": "address",
          "name": "operator",
          "type": "address"
        },
        {
          "indexed": false,
          "internalType": "bool",
          "name": "approved",
          "type": "bool"
        }
      ],
      "name": "ApprovalForAll",
      "type": "event"
    },
    {
      "anonymous": false,
      "inputs": [
        {
          "indexed": true,
          "internalType": "uint256",
          "name": "tokenId",
          "type": "uint256"
        },
        {
          "indexed": false,
          "internalType": "uint256",
          "name": "newBalance",
          "type": "uint256"
        },
        {
          "indexed": false,
          "internalType": "string",
          "name": "updateType",
          "type": "string"
        }
      ],
      "name": "BalanceUpdated",
      "type": "event"
    },
    {
      "anonymous": false,
      "inputs": [
        {
          "indexed": false,
          "internalType": "uint256",
          "name": "_fromTokenId",
          "type": "uint256"
        },
        {
          "indexed": false,
          "internalType": "uint256",
          "name": "_toTokenId",
          "type": "uint256"
        }
      ],
      "name": "BatchMetadataUpdate",
      "type": "event"
    },
    {
      "anonymous": false,
      "inputs": [
        {
          "indexed": true,
          "internalType": "uint256",
          "name": "tokenId",
          "type": "uint256"
        },
        {
          "indexed": true,
          "internalType": "uint256",
          "name": "eventId",
          "type": "uint256"
        }
      ],
      "name": "EventPurchased",
      "type": "event"
    },
    {
      "anonymous": false,
      "inputs": [
        {
          "indexed": false,
          "internalType": "uint256",
          "name": "_tokenId",
          "type": "uint256"
        }
      ],
      "name": "MetadataUpdate",
      "type": "event"
    },
    {
      "anonymous": false,
      "inputs": [
        {
          "indexed": true,
          "internalType": "address",
          "name": "previousOwner",
          "type": "address"
        },
        {
          "indexed": true,
          "internalType": "address",
          "name": "newOwner",
          "type": "address"
        }
      ],
      "name": "OwnershipTransferred",
      "type": "event"
    },
    {
      "anonymous": false,
      "inputs": [
        {
          "indexed": false,
          "internalType": "address",
          "name": "account",
          "type": "address"
        }
      ],
      "name": "Paused",
      "type": "event"
    },
    {
      "anonymous": false,
      "inputs": [
        {
          "indexed": true,
          "internalType": "address",
          "name": "tokenAddress",
          "type": "address"
        }
      ],
      "name": "SupportedTokenAdded",
      "type": "event"
    },
    {
      "anonymous": false,
      "inputs": [
        {
          "indexed": true,
          "internalType": "uint256",
          "name": "templateId",
          "type": "uint256"
        },
        {
          "indexed": false,
          "internalType": "string",
          "name": "name",
          "type": "string"
        },
        {
          "indexed": false,
          "internalType": "uint256",
          "name": "baseBalance",
          "type": "uint256"
        },
        {
          "indexed": false,
          "internalType": "uint256",
          "name": "price",
          "type": "uint256"
        },
        {
          "indexed": false,
          "internalType": "uint256",
          "name": "discount",
          "type": "uint256"
        },
        {
          "indexed": false,
          "internalType": "bool",
          "name": "isVIP",
          "type": "bool"
        },
        {
          "indexed": false,
          "internalType": "string",
          "name": "metadataURI",
          "type": "string"
        },
        {
          "indexed": false,
          "internalType": "bool",
          "name": "active",
          "type": "bool"
        }
      ],
      "name": "TemplateCreated",
      "type": "event"
    },
    {
      "anonymous": false,
      "inputs": [
        {
          "indexed": true,
          "internalType": "uint256",
          "name": "templateId",
          "type": "uint256"
        },
        {
          "indexed": false,
          "internalType": "string",
          "name": "name",
          "type": "string"
        },
        {
          "indexed": false,
          "internalType": "uint256",
          "name": "baseBalance",
          "type": "uint256"
        },
        {
          "indexed": false,
          "internalType": "uint256",
          "name": "price",
          "type": "uint256"
        },
        {
          "indexed": false,
          "internalType": "uint256",
          "name": "discount",
          "type": "uint256"
        },
        {
          "indexed": false,
          "internalType": "bool",
          "name": "isVIP",
          "type": "bool"
        },
        {
          "indexed": false,
          "internalType": "string",
          "name": "metadataURI",
          "type": "string"
        },
        {
          "indexed": false,
          "internalType": "bool",
          "name": "active",
          "type": "bool"
        }
      ],
      "name": "TemplateUpdated",
      "type": "event"
    },
    {
      "anonymous": false,
      "inputs": [
        {
          "indexed": true,
          "internalType": "uint256",
          "name": "tokenId",
          "type": "uint256"
        },
        {
          "indexed": false,
          "internalType": "string",
          "name": "transactionType",
          "type": "string"
        },
        {
          "indexed": false,
          "internalType": "uint256",
          "name": "amount",
          "type": "uint256"
        }
      ],
      "name": "TransactionRecorded",
      "type": "event"
    },
    {
      "anonymous": false,
      "inputs": [
        {
          "indexed": true,
          "internalType": "address",
          "name": "from",
          "type": "address"
        },
        {
          "indexed": true,
          "internalType": "address",
          "name": "to",
          "type": "address"
        },
        {
          "indexed": true,
          "internalType": "uint256",
          "name": "tokenId",
          "type": "uint256"
        }
      ],
      "name": "Transfer",
      "type": "event"
    },
    {
      "anonymous": false,
      "inputs": [
        {
          "indexed": false,
          "internalType": "address",
          "name": "account",
          "type": "address"
        }
      ],
      "name": "Unpaused",
      "type": "event"
    },
    {
      "inputs": [
        {
          "internalType": "address",
          "name": "tokenAddress",
          "type": "address"
        }
      ],
      "name": "addSupportedToken",
      "outputs": [],
      "stateMutability": "nonpayable",
      "type": "function"
    },
    {
      "inputs": [
        {
          "internalType": "uint256",
          "name": "templateId",
          "type": "uint256"
        },
        {
          "internalType": "string",
          "name": "name",
          "type": "string"
        },
        {
          "internalType": "uint256",
          "name": "baseBalance",
          "type": "uint256"
        },
        {
          "internalType": "uint256",
          "name": "price",
          "type": "uint256"
        },
        {
          "internalType": "uint256",
          "name": "discount",
          "type": "uint256"
        },
        {
          "internalType": "bool",
          "name": "isVIP",
          "type": "bool"
        },
        {
          "internalType": "string",
          "name": "metadataURI",
          "type": "string"
        },
        {
          "internalType": "bool",
          "name": "active",
          "type": "bool"
        }
      ],
      "name": "addTemplate",
      "outputs": [],
      "stateMutability": "nonpayable",
      "type": "function"
    },
    {
      "inputs": [
        {
          "internalType": "address",
          "name": "to",
          "type": "address"
        },
        {
          "internalType": "uint256",
          "name": "tokenId",
          "type": "uint256"
        }
      ],
      "name": "approve",
      "outputs": [],
      "stateMutability": "nonpayable",
      "type": "function"
    },
    {
      "inputs": [
        {
          "internalType": "address",
          "name": "merchant",
          "type": "address"
        }
      ],
      "name": "authorizeMerchant",
      "outputs": [],
      "stateMutability": "nonpayable",
      "type": "function"
    },
    {
      "inputs": [
        {
          "internalType": "address",
          "name": "",
          "type": "address"
        }
      ],
      "name": "authorizedMerchants",
      "outputs": [
        {
          "internalType": "bool",
          "name": "",
          "type": "bool"
        }
      ],
      "stateMutability": "view",
      "type": "function"
    },
    {
      "inputs": [
        {
          "internalType": "address",
          "name": "owner",
          "type": "address"
        }
      ],
      "name": "balanceOf",
      "outputs": [
        {
          "internalType": "uint256",
          "name": "",
          "type": "uint256"
        }
      ],
      "stateMutability": "view",
      "type": "function"
    },
    {
      "inputs": [
        {
          "internalType": "string",
          "name": "name",
          "type": "string"
        },
        {
          "internalType": "uint256",
          "name": "price",
          "type": "uint256"
        },
        {
          "internalType": "uint256",
          "name": "capacity",
          "type": "uint256"
        },
        {
          "internalType": "uint256",
          "name": "eventType",
          "type": "uint256"
        }
      ],
      "name": "createEvent",
      "outputs": [
        {
          "internalType": "uint256",
          "name": "",
          "type": "uint256"
        }
      ],
      "stateMutability": "nonpayable",
      "type": "function"
    },
    {
      "inputs": [
        {
          "internalType": "uint256",
          "name": "",
          "type": "uint256"
        }
      ],
      "name": "events",
      "outputs": [
        {
          "internalType": "string",
          "name": "name",
          "type": "string"
        },
        {
          "internalType": "uint256",
          "name": "price",
          "type": "uint256"
        },
        {
          "internalType": "uint256",
          "name": "capacity",
          "type": "uint256"
        },
        {
          "internalType": "uint256",
          "name": "soldCount",
          "type": "uint256"
        },
        {
          "internalType": "bool",
          "name": "active",
          "type": "bool"
        },
        {
          "internalType": "uint256",
          "name": "eventType",
          "type": "uint256"
        }
      ],
      "stateMutability": "view",
      "type": "function"
    },
    {
      "inputs": [
        {
          "internalType": "uint256",
          "name": "tokenId",
          "type": "uint256"
        }
      ],
      "name": "getApproved",
      "outputs": [
        {
          "internalType": "address",
          "name": "",
          "type": "address"
        }
      ],
      "stateMutability": "view",
      "type": "function"
    },
    {
      "inputs": [
        {
          "internalType": "uint256",
          "name": "templateId",
          "type": "uint256"
        }
      ],
      "name": "getTemplate",
      "outputs": [
        {
          "internalType": "string",
          "name": "name",
          "type": "string"
        },
        {
          "internalType": "uint256",
          "name": "baseBalance",
          "type": "uint256"
        },
        {
          "internalType": "uint256",
          "name": "price",
          "type": "uint256"
        },
        {
          "internalType": "uint256",
          "name": "discount",
          "type": "uint256"
        },
        {
          "internalType": "bool",
          "name": "isVIP",
          "type": "bool"
        },
        {
          "internalType": "string",
          "name": "metadataURI",
          "type": "string"
        },
        {
          "internalType": "bool",
          "name": "active",
          "type": "bool"
        }
      ],
      "stateMutability": "view",
      "type": "function"
    },
    {
      "inputs": [],
      "name": "getTemplateCount",
      "outputs": [
        {
          "internalType": "uint256",
          "name": "",
          "type": "uint256"
        }
      ],
      "stateMutability": "view",
      "type": "function"
    },
    {
      "inputs": [
        {
          "internalType": "uint256",
          "name": "tokenId",
          "type": "uint256"
        }
      ],
      "name": "getTokenEvents",
      "outputs": [
        {
          "internalType": "uint256[]",
          "name": "",
          "type": "uint256[]"
        }
      ],
      "stateMutability": "view",
      "type": "function"
    },
    {
      "inputs": [
        {
          "internalType": "uint256",
          "name": "tokenId",
          "type": "uint256"
        },
        {
          "internalType": "uint256",
          "name": "index",
          "type": "uint256"
        }
      ],
      "name": "getTransaction",
      "outputs": [
        {
          "internalType": "uint256",
          "name": "timestamp",
          "type": "uint256"
        },
        {
          "internalType": "address",
          "name": "merchant",
          "type": "address"
        },
        {
          "internalType": "uint256",
          "name": "amount",
          "type": "uint256"
        },
        {
          "internalType": "string",
          "name": "transactionType",
          "type": "string"
        },
        {
          "internalType": "string",
          "name": "metadata",
          "type": "string"
        }
      ],
      "stateMutability": "view",
      "type": "function"
    },
    {
      "inputs": [
        {
          "internalType": "uint256",
          "name": "tokenId",
          "type": "uint256"
        }
      ],
      "name": "getTransactionCount",
      "outputs": [
        {
          "internalType": "uint256",
          "name": "",
          "type": "uint256"
        }
      ],
      "stateMutability": "view",
      "type": "function"
    },
    {
      "inputs": [],
      "name": "initializeDefaultTemplates",
      "outputs": [],
      "stateMutability": "nonpayable",
      "type": "function"
    },
    {
      "inputs": [
        {
          "internalType": "address",
          "name": "owner",
          "type": "address"
        },
        {
          "internalType": "address",
          "name": "operator",
          "type": "address"
        }
      ],
      "name": "isApprovedForAll",
      "outputs": [
        {
          "internalType": "bool",
          "name": "",
          "type": "bool"
        }
      ],
      "stateMutability": "view",
      "type": "function"
    },
    {
      "inputs": [
        {
          "internalType": "uint256",
          "name": "templateId",
          "type": "uint256"
        },
        {
          "internalType": "address",
          "name": "to",
          "type": "address"
        },
        {
          "internalType": "string",
          "name": "uri",
          "type": "string"
        }
      ],
      "name": "mintFromTemplate",
      "outputs": [
        {
          "internalType": "uint256",
          "name": "",
          "type": "uint256"
        }
      ],
      "stateMutability": "payable",
      "type": "function"
    },
    {
      "inputs": [
        {
          "internalType": "uint256",
          "name": "templateId",
          "type": "uint256"
        },
        {
          "internalType": "string",
          "name": "name",
          "type": "string"
        },
        {
          "internalType": "uint256",
          "name": "baseBalance",
          "type": "uint256"
        },
        {
          "internalType": "uint256",
          "name": "price",
          "type": "uint256"
        },
        {
          "internalType": "uint256",
          "name": "discount",
          "type": "uint256"
        },
        {
          "internalType": "bool",
          "name": "isVIP",
          "type": "bool"
        },
        {
          "internalType": "string",
          "name": "metadataURI",
          "type": "string"
        },
        {
          "internalType": "bool",
          "name": "active",
          "type": "bool"
        }
      ],
      "name": "modifyTemplate",
      "outputs": [],
      "stateMutability": "nonpayable",
      "type": "function"
    },
    {
      "inputs": [],
      "name": "name",
      "outputs": [
        {
          "internalType": "string",
          "name": "",
          "type": "string"
        }
      ],
      "stateMutability": "view",
      "type": "function"
    },
    {
      "inputs": [],
      "name": "owner",
      "outputs": [
        {
          "internalType": "address",
          "name": "",
          "type": "address"
        }
      ],
      "stateMutability": "view",
      "type": "function"
    },
    {
      "inputs": [
        {
          "internalType": "uint256",
          "name": "tokenId",
          "type": "uint256"
        }
      ],
      "name": "ownerOf",
      "outputs": [
        {
          "internalType": "address",
          "name": "",
          "type": "address"
        }
      ],
      "stateMutability": "view",
      "type": "function"
    },
    {
      "inputs": [],
      "name": "pause",
      "outputs": [],
      "stateMutability": "nonpayable",
      "type": "function"
    },
    {
      "inputs": [],
      "name": "paused",
      "outputs": [
        {
          "internalType": "bool",
          "name": "",
          "type": "bool"
        }
      ],
      "stateMutability": "view",
      "type": "function"
    },
    {
      "inputs": [
        {
          "internalType": "uint256",
          "name": "tokenId",
          "type": "uint256"
        },
        {
          "internalType": "uint256",
          "name": "amount",
          "type": "uint256"
        },
        {
          "internalType": "string",
          "name": "metadata",
          "type": "string"
        }
      ],
      "name": "processPayment",
      "outputs": [],
      "stateMutability": "nonpayable",
      "type": "function"
    },
    {
      "inputs": [
        {
          "internalType": "uint256",
          "name": "tokenId",
          "type": "uint256"
        },
        {
          "internalType": "uint256",
          "name": "eventId",
          "type": "uint256"
        }
      ],
      "name": "purchaseEventEntrance",
      "outputs": [],
      "stateMutability": "nonpayable",
      "type": "function"
    },
    {
      "inputs": [],
      "name": "renounceOwnership",
      "outputs": [],
      "stateMutability": "nonpayable",
      "type": "function"
    },
    {
      "inputs": [
        {
          "internalType": "address",
          "name": "merchant",
          "type": "address"
        }
      ],
      "name": "revokeMerchant",
      "outputs": [],
      "stateMutability": "nonpayable",
      "type": "function"
    },
    {
      "inputs": [
        {
          "internalType": "address",
          "name": "from",
          "type": "address"
        },
        {
          "internalType": "address",
          "name": "to",
          "type": "address"
        },
        {
          "internalType": "uint256",
          "name": "tokenId",
          "type": "uint256"
        }
      ],
      "name": "safeTransferFrom",
      "outputs": [],
      "stateMutability": "nonpayable",
      "type": "function"
    },
    {
      "inputs": [
        {
          "internalType": "address",
          "name": "from",
          "type": "address"
        },
        {
          "internalType": "address",
          "name": "to",
          "type": "address"
        },
        {
          "internalType": "uint256",
          "name": "tokenId",
          "type": "uint256"
        },
        {
          "internalType": "bytes",
          "name": "data",
          "type": "bytes"
        }
      ],
      "name": "safeTransferFrom",
      "outputs": [],
      "stateMutability": "nonpayable",
      "type": "function"
    },
    {
      "inputs": [
        {
          "internalType": "address",
          "name": "operator",
          "type": "address"
        },
        {
          "internalType": "bool",
          "name": "approved",
          "type": "bool"
        }
      ],
      "name": "setApprovalForAll",
      "outputs": [],
      "stateMutability": "nonpayable",
      "type": "function"
    },
    {
      "inputs": [
        {
          "internalType": "address",
          "name": "",
          "type": "address"
        }
      ],
      "name": "supportedTokens",
      "outputs": [
        {
          "internalType": "bool",
          "name": "",
          "type": "bool"
        }
      ],
      "stateMutability": "view",
      "type": "function"
    },
    {
      "inputs": [
        {
          "internalType": "bytes4",
          "name": "interfaceId",
          "type": "bytes4"
        }
      ],
      "name": "supportsInterface",
      "outputs": [
        {
          "internalType": "bool",
          "name": "",
          "type": "bool"
        }
      ],
      "stateMutability": "view",
      "type": "function"
    },
    {
      "inputs": [],
      "name": "symbol",
      "outputs": [
        {
          "internalType": "string",
          "name": "",
          "type": "string"
        }
      ],
      "stateMutability": "view",
      "type": "function"
    },
    {
      "inputs": [
        {
          "internalType": "uint256",
          "name": "",
          "type": "uint256"
        }
      ],
      "name": "templates",
      "outputs": [
        {
          "internalType": "string",
          "name": "name",
          "type": "string"
        },
        {
          "internalType": "uint256",
          "name": "baseBalance",
          "type": "uint256"
        },
        {
          "internalType": "uint256",
          "name": "price",
          "type": "uint256"
        },
        {
          "internalType": "uint256",
          "name": "discount",
          "type": "uint256"
        },
        {
          "internalType": "bool",
          "name": "isVIP",
          "type": "bool"
        },
        {
          "internalType": "string",
          "name": "metadataURI",
          "type": "string"
        },
        {
          "internalType": "bool",
          "name": "active",
          "type": "bool"
        }
      ],
      "stateMutability": "view",
      "type": "function"
    },
    {
      "inputs": [
        {
          "internalType": "uint256",
          "name": "",
          "type": "uint256"
        }
      ],
      "name": "tokenBalance",
      "outputs": [
        {
          "internalType": "uint256",
          "name": "",
          "type": "uint256"
        }
      ],
      "stateMutability": "view",
      "type": "function"
    },
    {
      "inputs": [
        {
          "internalType": "uint256",
          "name": "",
          "type": "uint256"
        },
        {
          "internalType": "uint256",
          "name": "",
          "type": "uint256"
        }
      ],
      "name": "tokenEvents",
      "outputs": [
        {
          "internalType": "uint256",
          "name": "",
          "type": "uint256"
        }
      ],
      "stateMutability": "view",
      "type": "function"
    },
    {
      "inputs": [
        {
          "internalType": "uint256",
          "name": "tokenId",
          "type": "uint256"
        }
      ],
      "name": "tokenURI",
      "outputs": [
        {
          "internalType": "string",
          "name": "",
          "type": "string"
        }
      ],
      "stateMutability": "view",
      "type": "function"
    },
    {
      "inputs": [
        {
          "internalType": "uint256",
          "name": "tokenId",
          "type": "uint256"
        },
        {
          "internalType": "uint256",
          "name": "amount",
          "type": "uint256"
        },
        {
          "internalType": "address",
          "name": "paymentToken",
          "type": "address"
        }
      ],
      "name": "topUpBalance",
      "outputs": [],
      "stateMutability": "nonpayable",
      "type": "function"
    },
    {
      "inputs": [
        {
          "internalType": "uint256",
          "name": "",
          "type": "uint256"
        },
        {
          "internalType": "uint256",
          "name": "",
          "type": "uint256"
        }
      ],
      "name": "transactions",
      "outputs": [
        {
          "internalType": "uint256",
          "name": "timestamp",
          "type": "uint256"
        },
        {
          "internalType": "address",
          "name": "merchant",
          "type": "address"
        },
        {
          "internalType": "uint256",
          "name": "amount",
          "type": "uint256"
        },
        {
          "internalType": "string",
          "name": "transactionType",
          "type": "string"
        },
        {
          "internalType": "string",
          "name": "metadata",
          "type": "string"
        }
      ],
      "stateMutability": "view",
      "type": "function"
    },
    {
      "inputs": [
        {
          "internalType": "address",
          "name": "from",
          "type": "address"
        },
        {
          "internalType": "address",
          "name": "to",
          "type": "address"
        },
        {
          "internalType": "uint256",
          "name": "tokenId",
          "type": "uint256"
        }
      ],
      "name": "transferFrom",
      "outputs": [],
      "stateMutability": "nonpayable",
      "type": "function"
    },
    {
      "inputs": [
        {
          "internalType": "address",
          "name": "newOwner",
          "type": "address"
        }
      ],
      "name": "transferOwnership",
      "outputs": [],
      "stateMutability": "nonpayable",
      "type": "function"
    },
    {
      "inputs": [],
      "name": "unpause",
      "outputs": [],
      "stateMutability": "nonpayable",
      "type": "function"
    }
  ],
  "bytecode": "0x60806040523480156200001157600080fd5b506040518060400160405280600c81526020016b2bb0bb32ac1027232a102b1960a11b815250604051806040016040528060068152602001652ba0ab22ac1960d11b815250816000908162000067919062000247565b50600162000076828262000247565b50506007805460ff19169055506200008e336200009e565b62000098620000f8565b62000313565b600780546001600160a01b03838116610100818102610100600160a81b031985161790945560405193909204169182907f8be0079c531659141344cd1fd0a4f28419497f9722a3daafe3b4186f6b6457e090600090a35050565b6200010262000155565b6007805460ff191660011790557f62e78cea01bee320cd4e420270b5ea74000d11b0c9f74754ebdbfc544b05a258620001383390565b6040516001600160a01b03909116815260200160405180910390a1565b60075460ff1615620001a05760405162461bcd60e51b815260206004820152601060248201526f14185d5cd8589b194e881c185d5cd95960821b604482015260640160405180910390fd5b565b634e487b7160e01b600052604160045260246000fd5b600181811c90821680620001cd57607f821691505b602082108103620001ee57634e487b7160e01b600052602260045260246000fd5b50919050565b601f8211156200024257600081815260208120601f850160051c810160208610156200021d5750805b601f850160051c820191505b818110156200023e5782815560010162000229565b5050505b505050565b81516001600160401b03811115620002635762000263620001a2565b6200027b81620002748454620001b8565b84620001f4565b602080601f831160018114620002b357600084156200029a5750858301515b600019600386901b1c1916600185901b1785556200023e565b600085815260208120601f198616915b82811015620002e457888601518255948401946001909101908401620002c3565b5085821015620003035787850151600019600388901b60f8161c191681555b5050505050600190811b01905550565b61399280620003236000396000f3fe6080604052600436106101e15760003560e01c806301ffc9a7146101e65780630374ab0b1461021b57806306fdde0314610249578063081812fc1461026b578063095ea7b3146102985780630b791430146102ba57806323b872dd146102ec578063283421331461030c57806331543cf41461032c578063368a52471461035f57806337ae9c131461037f5780633de5d0de1461039f5780633f4ba83a146103cc57806342842e0e146103e157806349afc6e5146104015780634eaf9db61461042e5780635016959a1461045f5780635c975abb146104745780636352211e1461048c57806368c4ac26146104ac5780636d69fcaf146104dc57806370a08231146104fc578063715018a61461051c5780637303f6ce14610531578063819a701c146105515780638456cb59146105715780638af5ae99146105865780638da5cb5b1461059b57806395d89b41146105b057806396651ec3146105c5578063a22cb465146105e5578063a871bd6614610605578063b701b31914610625578063b88d4fde14610645578063bc52565214610665578063c4754b7714610685578063c58d0686146106b2578063c87b56dd146106c5578063ca2efd38146106e5578063cdc965cd14610715578063e985e9c514610735578063f2fde38b14610755575b600080fd5b3480156101f257600080fd5b50610206610201366004612dbf565b610775565b60405190151581526020015b60405180910390f35b34801561022757600080fd5b5061023b610236366004612e87565b610786565b604051908152602001610212565b34801561025557600080fd5b5061025e61085c565b6040516102129190612f2a565b34801561027757600080fd5b5061028b610286366004612f3d565b6108ee565b6040516102129190612f56565b3480156102a457600080fd5b506102b86102b3366004612f86565b610915565b005b3480156102c657600080fd5b506102da6102d5366004612f3d565b610a2f565b60405161021296959493929190612fb0565b3480156102f857600080fd5b506102b8610307366004612fee565b610af0565b34801561031857600080fd5b506102b861032736600461302a565b610b21565b34801561033857600080fd5b5061034c610347366004612f3d565b610d1a565b6040516102129796959493929190613079565b34801561036b57600080fd5b506102b861037a3660046130cf565b610f2e565b34801561038b57600080fd5b506102b861039a366004613104565b6111c1565b3480156103ab57600080fd5b5061023b6103ba366004612f3d565b6000908152600d602052604090205490565b3480156103d857600080fd5b506102b86111ed565b3480156103ed57600080fd5b506102b86103fc366004612fee565b6111ff565b34801561040d57600080fd5b5061023b61041c366004612f3d565b600c6020526000908152604090205481565b34801561043a57600080fd5b5061044e61044936600461311f565b61121a565b604051610212959493929190613141565b34801561046b57600080fd5b5061023b611384565b34801561048057600080fd5b5060075460ff16610206565b34801561049857600080fd5b5061028b6104a7366004612f3d565b611394565b3480156104b857600080fd5b506102066104c7366004613104565b60106020526000908152604090205460ff1681565b3480156104e857600080fd5b506102b86104f7366004613104565b6113c8565b34801561050857600080fd5b5061023b610517366004613104565b61146a565b34801561052857600080fd5b506102b86114f0565b34801561053d57600080fd5b5061044e61054c36600461311f565b611502565b34801561055d57600080fd5b506102b861056c366004613104565b6116dc565b34801561057d57600080fd5b506102b8611705565b34801561059257600080fd5b506102b8611715565b3480156105a757600080fd5b5061028b61182e565b3480156105bc57600080fd5b5061025e611842565b3480156105d157600080fd5b506102b86105e036600461319a565b611851565b3480156105f157600080fd5b506102b861060036600461324d565b611873565b34801561061157600080fd5b5061023b61062036600461311f565b611882565b34801561063157600080fd5b506102b861064036600461311f565b6118b3565b34801561065157600080fd5b506102b8610660366004613284565b611ad0565b34801561067157600080fd5b5061034c610680366004612f3d565b611b08565b34801561069157600080fd5b506106a56106a0366004612f3d565b611c5d565b60405161021291906132ff565b61023b6106c0366004613343565b611cbf565b3480156106d157600080fd5b5061025e6106e0366004612f3d565b611e12565b3480156106f157600080fd5b50610206610700366004613104565b600f6020526000908152604090205460ff1681565b34801561072157600080fd5b506102b861073036600461319a565b611e1d565b34801561074157600080fd5b50610206610750366004613383565b611f93565b34801561076157600080fd5b506102b8610770366004613104565b611fc1565b60006107808261203a565b92915050565b600061079061205f565b6107986120be565b600085426040516020016107ad9291906133b6565b60408051601f19818403018152828252805160209182012060c0840183528984528382018990528383018890526000606085018190526001608086015260a08501889052818152600b909252919020825191935090819061080e9082613460565b50602082015160018201556040820151600282015560608201516003820155608082015160048201805460ff191691151591909117905560a09091015160059091015590505b949350505050565b60606000805461086b906133d8565b80601f0160208091040260200160405190810160405280929190818152602001828054610897906133d8565b80156108e45780601f106108b9576101008083540402835291602001916108e4565b820191906000526020600020905b8154815290600101906020018083116108c757829003601f168201915b5050505050905090565b60006108f982612104565b506000908152600460205260409020546001600160a01b031690565b600061092082611394565b9050806001600160a01b0316836001600160a01b0316036109925760405162461bcd60e51b815260206004820152602160248201527f4552433732313a20617070726f76616c20746f2063757272656e74206f776e656044820152603960f91b60648201526084015b60405180910390fd5b336001600160a01b03821614806109ae57506109ae8133611f93565b610a205760405162461bcd60e51b815260206004820152603d60248201527f4552433732313a20617070726f76652063616c6c6572206973206e6f7420746f60448201527f6b656e206f776e6572206f7220617070726f76656420666f7220616c6c0000006064820152608401610989565b610a2a8383612129565b505050565b600b60205260009081526040902080548190610a4a906133d8565b80601f0160208091040260200160405190810160405280929190818152602001828054610a76906133d8565b8015610ac35780601f10610a9857610100808354040283529160200191610ac3565b820191906000526020600020905b815481529060010190602001808311610aa657829003601f168201915b505050506001830154600284015460038501546004860154600590960154949592949193509160ff169086565b610afa3382612197565b610b165760405162461bcd60e51b81526004016109899061351f565b610a2a8383836121f5565b610b296120be565b610b3283612347565b610b4e5760405162461bcd60e51b81526004016109899061356c565b336000908152600f602052604090205460ff16610ba75760405162461bcd60e51b8152602060048201526017602482015276139bdd08185d5d1a1bdc9a5e9959081b595c98da185b9d604a1b6044820152606401610989565b6000838152600c6020526040902054821115610bd55760405162461bcd60e51b81526004016109899061359a565b6000838152600c602052604081208054849290610bf39084906135de565b90915550506000838152600d60209081526040808320815160a08101835242815233818501908152818401888152845180860190955260078552661410565351539560ca1b8587015260608301948552608083018890528354600180820186559488529590962082516005909602019485555191840180546001600160a01b0319166001600160a01b039093169290921790915592516002830155516003820190610c9e9082613460565b5060808201516004820190610cb39082613460565b5050508260008051602061391d833981519152600c600086815260200190815260200160002054604051610ce7919061360b565b60405180910390a2826000805160206138fd83398151915283604051610d0d9190613623565b60405180910390a2505050565b60606000806000806060600080600a60008a81526020019081526020016000206040518060e0016040529081600082018054610d55906133d8565b80601f0160208091040260200160405190810160405280929190818152602001828054610d81906133d8565b8015610dce5780601f10610da357610100808354040283529160200191610dce565b820191906000526020600020905b815481529060010190602001808311610db157829003601f168201915b5050509183525050600182015460208201526002820154604082015260038201546060820152600482015460ff161515608082015260058201805460a090920191610e18906133d8565b80601f0160208091040260200160405190810160405280929190818152602001828054610e44906133d8565b8015610e915780601f10610e6657610100808354040283529160200191610e91565b820191906000526020600020905b815481529060010190602001808311610e7457829003601f168201915b50505091835250506006919091015460ff161515602090910152805151909150610ef75760405162461bcd60e51b815260206004820152601760248201527615195b5c1b185d1948191bd95cc81b9bdd08195e1a5cdd604a1b6044820152606401610989565b8051602082015160408301516060840151608085015160a086015160c090960151949e939d50919b50995097509195509350915050565b610f366120be565b610f3f83612347565b610f5b5760405162461bcd60e51b81526004016109899061356c565b6001600160a01b03811660009081526010602052604090205460ff16610fb95760405162461bcd60e51b8152602060048201526013602482015272151bdad95b881b9bdd081cdd5c1c1bdc9d1959606a1b6044820152606401610989565b6040516323b872dd60e01b81523360048201523060248201526044810183905281906001600160a01b038216906323b872dd906064016020604051808303816000875af115801561100e573d6000803e3d6000fd5b505050506040513d601f19601f820116820180604052508101906110329190613643565b6110705760405162461bcd60e51b815260206004820152600f60248201526e151c985b9cd9995c8819985a5b1959608a1b6044820152606401610989565b6000848152600c60205260408120805485929061108e908490613660565b90915550506000848152600d60209081526040808320815160a081018352428152808401858152818401898152845180860186526005808252640544f5055560dc1b828901526060850191825286518089019097528887526080850196909652845460018082018755958952969097208351969095029094019485555191840180546001600160a01b0319166001600160a01b039093169290921790915590516002830155915160038201906111449082613460565b50608082015160048201906111599082613460565b5050508360008051602061391d833981519152600c60008781526020019081526020016000205460405161118d919061368b565b60405180910390a2836000805160206138fd833981519152846040516111b391906136a3565b60405180910390a250505050565b6111c961205f565b6001600160a01b03166000908152600f60205260409020805460ff19166001179055565b6111f561205f565b6111fd612364565b565b610a2a83838360405180602001604052806000815250611ad0565b600d602052816000526040600020818154811061123657600080fd5b600091825260209091206005909102018054600182015460028301546003840180549396506001600160a01b0390921694509291611273906133d8565b80601f016020809104026020016040519081016040528092919081815260200182805461129f906133d8565b80156112ec5780601f106112c1576101008083540402835291602001916112ec565b820191906000526020600020905b8154815290600101906020018083116112cf57829003601f168201915b505050505090806004018054611301906133d8565b80601f016020809104026020016040519081016040528092919081815260200182805461132d906133d8565b801561137a5780601f1061134f5761010080835404028352916020019161137a565b820191906000526020600020905b81548152906001019060200180831161135d57829003601f168201915b5050505050905085565b600061138f60095490565b905090565b6000806113a0836123b0565b90506001600160a01b0381166107805760405162461bcd60e51b8152600401610989906136b5565b6113d061205f565b6001600160a01b03811661141e5760405162461bcd60e51b8152602060048201526015602482015274496e76616c696420746f6b656e206164647265737360581b6044820152606401610989565b6001600160a01b038116600081815260106020526040808220805460ff19166001179055517fd1be2e90bd3d24839d9dd94ad871068e1f9688b02fa43f2a62c9975dfa9de2d79190a250565b60006001600160a01b0382166114d45760405162461bcd60e51b815260206004820152602960248201527f4552433732313a2061646472657373207a65726f206973206e6f7420612076616044820152683634b21037bbb732b960b91b6064820152608401610989565b506001600160a01b031660009081526003602052604090205490565b6114f861205f565b6111fd60006123cb565b60008060006060806000600d60008981526020019081526020016000208781548110611530576115306136e7565b90600052602060002090600502016040518060a0016040529081600082015481526020016001820160009054906101000a90046001600160a01b03166001600160a01b03166001600160a01b031681526020016002820154815260200160038201805461159c906133d8565b80601f01602080910402602001604051908101604052809291908181526020018280546115c8906133d8565b80156116155780601f106115ea57610100808354040283529160200191611615565b820191906000526020600020905b8154815290600101906020018083116115f857829003601f168201915b5050505050815260200160048201805461162e906133d8565b80601f016020809104026020016040519081016040528092919081815260200182805461165a906133d8565b80156116a75780601f1061167c576101008083540402835291602001916116a7565b820191906000526020600020905b81548152906001019060200180831161168a57829003601f168201915b5050509190925250508151602083015160408401516060850151608090950151929d919c509a50929850965090945050505050565b6116e461205f565b6001600160a01b03166000908152600f60205260409020805460ff19169055565b61170d61205f565b6111fd612425565b61171d61205f565b611725612462565b6001600052600a6020527fbbc70db1b6c7afd11e79c0fb0051300458f1a3acb8ee9789d9b6b26c61ad9bc8541561179e5760405162461bcd60e51b815260206004820152601d60248201527f54656d706c6174657320616c726561647920696e697469616c697a65640000006044820152606401610989565b6117e460016040518060400160405280600481526020016311dbdb1960e21b815250670de0b6b3a7640000806000806040518060200160405280600081525060016124ab565b6111f5600260405180604001604052806008815260200167506c6174696e756d60c01b815250671bc16d674ec80000806000806040518060200160405280600081525060016124ab565b60075461010090046001600160a01b031690565b60606001805461086b906133d8565b61185961205f565b61186988888888888888886124ab565b5050505050505050565b61187e338383612676565b5050565b600e602052816000526040600020818154811061189e57600080fd5b90600052602060002001600091509150505481565b6118bb6120be565b6118c482612347565b6118e05760405162461bcd60e51b81526004016109899061356c565b6000818152600b602052604090206004015460ff166119345760405162461bcd60e51b815260206004820152601060248201526f4576656e74206e6f742061637469766560801b6044820152606401610989565b6000818152600b602052604090206002810154600390910154106119875760405162461bcd60e51b815260206004820152600a602482015269115d995b9d08199d5b1b60b21b6044820152606401610989565b6000818152600b6020908152604080832060010154858452600c9092529091205410156119c65760405162461bcd60e51b81526004016109899061359a565b6000818152600b6020908152604080832060010154858452600c90925282208054919290916119f69084906135de565b90915550506000818152600b60205260408120600301805491611a18836136fd565b90915550506000828152600e60209081526040808320805460018101825590845291832090910183905551829184917f41d60c8cad3c4e044896e072fb848c8f5d2e3e91c87a22a93d930c35aa1924039190a38160008051602061391d833981519152600c600085815260200190815260200160002054604051611ac4918152604060208201819052600e908201526d4556454e545f505552434841534560901b606082015260800190565b60405180910390a25050565b611ada3383612197565b611af65760405162461bcd60e51b81526004016109899061351f565b611b0284848484612740565b50505050565b600a60205260009081526040902080548190611b23906133d8565b80601f0160208091040260200160405190810160405280929190818152602001828054611b4f906133d8565b8015611b9c5780601f10611b7157610100808354040283529160200191611b9c565b820191906000526020600020905b815481529060010190602001808311611b7f57829003601f168201915b50505060018401546002850154600386015460048701546005880180549798949793965091945060ff169291611bd1906133d8565b80601f0160208091040260200160405190810160405280929190818152602001828054611bfd906133d8565b8015611c4a5780601f10611c1f57610100808354040283529160200191611c4a565b820191906000526020600020905b815481529060010190602001808311611c2d57829003601f168201915b5050506006909301549192505060ff1687565b6000818152600e6020908152604091829020805483518184028101840190945280845260609392830182828015611cb357602002820191906000526020600020905b815481526020019060010190808311611c9f575b50505050509050919050565b6000611cc96120be565b6000848152600a602052604090206006015460ff16611d205760405162461bcd60e51b815260206004820152601360248201527254656d706c617465206e6f742061637469766560681b6044820152606401610989565b6000848152600a6020526040902060020154341015611d785760405162461bcd60e51b8152602060048201526014602482015273125b9cdd59999a58da595b9d081c185e5b595b9d60621b6044820152606401610989565b611d86600880546001019055565b6000611d9160085490565b9050611d9d8482612773565b611da7818461278d565b6000858152600a6020818152604080842060010154858552600c83528185208190559389905291815281519283528201819052600490820152631352539560e21b6060820152819060008051602061391d8339815191529060800160405180910390a2949350505050565b606061078082612849565b611e2561205f565b60008811611e455760405162461bcd60e51b815260040161098990613716565b6000875111611e665760405162461bcd60e51b815260040161098990613743565b6064841115611e875760405162461bcd60e51b815260040161098990613771565b6040805160e081018252888152602080820189905281830188905260608201879052851515608083015260a0820185905283151560c083015260008b8152600a9091529190912081518190611edc9082613460565b50602082015160018201556040820151600282015560608201516003820155608082015160048201805460ff191691151591909117905560a08201516005820190611f279082613460565b5060c091909101516006909101805460ff191691151591909117905560405188907fff92d45b846f70a381c6b12925794910c7d5a97f58898ac2a2dae8e48fdbda6390611f81908a908a908a908a908a908a908a90613079565b60405180910390a25050505050505050565b6001600160a01b03918216600090815260056020908152604080832093909416825291909152205460ff1690565b611fc961205f565b6001600160a01b03811661202e5760405162461bcd60e51b815260206004820152602660248201527f4f776e61626c653a206e6577206f776e657220697320746865207a65726f206160448201526564647265737360d01b6064820152608401610989565b612037816123cb565b50565b60006001600160e01b03198216632483248360e11b1480610780575061078082612951565b3361206861182e565b6001600160a01b0316146111fd5760405162461bcd60e51b815260206004820181905260248201527f4f776e61626c653a2063616c6c6572206973206e6f7420746865206f776e65726044820152606401610989565b60075460ff16156111fd5760405162461bcd60e51b815260206004820152601060248201526f14185d5cd8589b194e881c185d5cd95960821b6044820152606401610989565b61210d81612347565b6120375760405162461bcd60e51b8152600401610989906136b5565b600081815260046020526040902080546001600160a01b0319166001600160a01b038416908117909155819061215e82611394565b6001600160a01b03167f8c5be1e5ebec7d5bd14f71427d1e84f3dd0314c0f7b2291e5b200ac8c7c3b92560405160405180910390a45050565b6000806121a383611394565b9050806001600160a01b0316846001600160a01b031614806121ca57506121ca8185611f93565b806108545750836001600160a01b03166121e3846108ee565b6001600160a01b031614949350505050565b826001600160a01b031661220882611394565b6001600160a01b03161461222e5760405162461bcd60e51b8152600401610989906137a6565b6001600160a01b0382166122905760405162461bcd60e51b8152602060048201526024808201527f4552433732313a207472616e7366657220746f20746865207a65726f206164646044820152637265737360e01b6064820152608401610989565b826001600160a01b03166122a382611394565b6001600160a01b0316146122c95760405162461bcd60e51b8152600401610989906137a6565b600081815260046020908152604080832080546001600160a01b03199081169091556001600160a01b03878116808652600385528386208054600019019055908716808652838620805460010190558686526002909452828520805490921684179091559051849360008051602061393d83398151915291a4505050565b600080612353836123b0565b6001600160a01b0316141592915050565b61236c612462565b6007805460ff191690557f5db9ee0a495bf2e6ff9c91a7834c1ba4fdd244a5e8aa4e537bd38aeae4b073aa335b6040516123a69190612f56565b60405180910390a1565b6000908152600260205260409020546001600160a01b031690565b600780546001600160a01b03838116610100818102610100600160a81b031985161790945560405193909204169182907f8be0079c531659141344cd1fd0a4f28419497f9722a3daafe3b4186f6b6457e090600090a35050565b61242d6120be565b6007805460ff191660011790557f62e78cea01bee320cd4e420270b5ea74000d11b0c9f74754ebdbfc544b05a2586123993390565b60075460ff166111fd5760405162461bcd60e51b815260206004820152601460248201527314185d5cd8589b194e881b9bdd081c185d5cd95960621b6044820152606401610989565b600088116124cb5760405162461bcd60e51b815260040161098990613716565b60008751116124ec5760405162461bcd60e51b815260040161098990613743565b606484111561250d5760405162461bcd60e51b815260040161098990613771565b6000888152600a6020526040902060010154156125665760405162461bcd60e51b815260206004820152601760248201527654656d706c61746520616c72656164792065786973747360481b6044820152606401610989565b6040805160e081018252888152602080820189905281830188905260608201879052851515608083015260a0820185905283151560c083015260008b8152600a90915291909120815181906125bb9082613460565b50602082015160018201556040820151600282015560608201516003820155608082015160048201805460ff191691151591909117905560a082015160058201906126069082613460565b5060c091909101516006909101805460ff191691151591909117905560095488111561263a5761263a600980546001019055565b877fc0fdbb34fd837325f175bd973a8607230e48718904c92805638b65905f616d7d88888888888888604051611f819796959493929190613079565b816001600160a01b0316836001600160a01b0316036126d35760405162461bcd60e51b815260206004820152601960248201527822a9219b99189d1030b8383937bb32903a379031b0b63632b960391b6044820152606401610989565b6001600160a01b03838116600081815260056020908152604080832094871680845294825291829020805460ff191686151590811790915591519182527f17307eab39ab6107e8899845ad3d59bd9653f200f220920489ca2b5937696c31910160405180910390a3505050565b61274b8484846121f5565b612757848484846129a1565b611b025760405162461bcd60e51b8152600401610989906137eb565b61187e828260405180602001604052806000815250612a9f565b61279682612347565b6127f95760405162461bcd60e51b815260206004820152602e60248201527f45524337323155524953746f726167653a2055524920736574206f66206e6f6e60448201526d32bc34b9ba32b73a103a37b5b2b760911b6064820152608401610989565b60008281526006602052604090206128118282613460565b506040518281527ff8e1a15aba9398e019f0b49df1a4fde98ee17ae345cb5f6b5e2c27f5033e8ce79060200160405180910390a15050565b606061285482612104565b6000828152600660205260408120805461286d906133d8565b80601f0160208091040260200160405190810160405280929190818152602001828054612899906133d8565b80156128e65780601f106128bb576101008083540402835291602001916128e6565b820191906000526020600020905b8154815290600101906020018083116128c957829003601f168201915b50505050509050600061290460408051602081019091526000815290565b90508051600003612916575092915050565b81511561294857808260405160200161293092919061383d565b60405160208183030381529060405292505050919050565b61085484612ad2565b60006001600160e01b031982166380ac58cd60e01b148061298257506001600160e01b03198216635b5e139f60e01b145b8061078057506301ffc9a760e01b6001600160e01b0319831614610780565b60006001600160a01b0384163b15612a9757604051630a85bd0160e11b81526001600160a01b0385169063150b7a02906129e590339089908890889060040161386c565b6020604051808303816000875af1925050508015612a20575060408051601f3d908101601f19168201909252612a1d918101906138a9565b60015b612a7d573d808015612a4e576040519150601f19603f3d011682016040523d82523d6000602084013e612a53565b606091505b508051600003612a755760405162461bcd60e51b8152600401610989906137eb565b805181602001fd5b6001600160e01b031916630a85bd0160e11b149050610854565b506001610854565b612aa98383612b46565b612ab660008484846129a1565b610a2a5760405162461bcd60e51b8152600401610989906137eb565b6060612add82612104565b6000612af460408051602081019091526000815290565b90506000815111612b145760405180602001604052806000815250612b3f565b80612b1e84612c41565b604051602001612b2f92919061383d565b6040516020818303038152906040525b9392505050565b6001600160a01b038216612b9c5760405162461bcd60e51b815260206004820181905260248201527f4552433732313a206d696e7420746f20746865207a65726f20616464726573736044820152606401610989565b612ba581612347565b15612bc25760405162461bcd60e51b8152600401610989906138c6565b612bcb81612347565b15612be85760405162461bcd60e51b8152600401610989906138c6565b6001600160a01b038216600081815260036020908152604080832080546001019055848352600290915280822080546001600160a01b03191684179055518392919060008051602061393d833981519152908290a45050565b60606000612c4e83612cd3565b60010190506000816001600160401b03811115612c6d57612c6d612ddc565b6040519080825280601f01601f191660200182016040528015612c97576020820181803683370190505b5090508181016020015b600019016f181899199a1a9b1b9c1cb0b131b232b360811b600a86061a8153600a8504945084612ca157509392505050565b60008072184f03e93ff9f4daa797ed6e38ed64bf6a1f0160401b8310612d125772184f03e93ff9f4daa797ed6e38ed64bf6a1f0160401b830492506040015b6904ee2d6d415b85acef8160201b8310612d3c576904ee2d6d415b85acef8160201b830492506020015b662386f26fc100008310612d5a57662386f26fc10000830492506010015b6305f5e1008310612d72576305f5e100830492506008015b6127108310612d8657612710830492506004015b60648310612d98576064830492506002015b600a83106107805760010192915050565b6001600160e01b03198116811461203757600080fd5b600060208284031215612dd157600080fd5b8135612b3f81612da9565b634e487b7160e01b600052604160045260246000fd5b60006001600160401b0380841115612e0c57612e0c612ddc565b604051601f8501601f19908116603f01168101908282118183101715612e3457612e34612ddc565b81604052809350858152868686011115612e4d57600080fd5b858560208301376000602087830101525050509392505050565b600082601f830112612e7857600080fd5b612b3f83833560208501612df2565b60008060008060808587031215612e9d57600080fd5b84356001600160401b03811115612eb357600080fd5b612ebf87828801612e67565b97602087013597506040870135966060013595509350505050565b60005b83811015612ef5578181015183820152602001612edd565b50506000910152565b60008151808452612f16816020860160208601612eda565b601f01601f19169290920160200192915050565b602081526000612b3f6020830184612efe565b600060208284031215612f4f57600080fd5b5035919050565b6001600160a01b0391909116815260200190565b80356001600160a01b0381168114612f8157600080fd5b919050565b60008060408385031215612f9957600080fd5b612fa283612f6a565b946020939093013593505050565b60c081526000612fc360c0830189612efe565b602083019790975250604081019490945260608401929092521515608083015260a090910152919050565b60008060006060848603121561300357600080fd5b61300c84612f6a565b925061301a60208501612f6a565b9150604084013590509250925092565b60008060006060848603121561303f57600080fd5b833592506020840135915060408401356001600160401b0381111561306357600080fd5b61306f86828701612e67565b9150509250925092565b60e08152600061308c60e083018a612efe565b886020840152876040840152866060840152851515608084015282810360a08401526130b88186612efe565b91505082151560c083015298975050505050505050565b6000806000606084860312156130e457600080fd5b83359250602084013591506130fb60408501612f6a565b90509250925092565b60006020828403121561311657600080fd5b612b3f82612f6a565b6000806040838503121561313257600080fd5b50508035926020909101359150565b85815260018060a01b038516602082015283604082015260a06060820152600061316e60a0830185612efe565b82810360808401526131808185612efe565b98975050505050505050565b801515811461203757600080fd5b600080600080600080600080610100898b0312156131b757600080fd5b8835975060208901356001600160401b03808211156131d557600080fd5b6131e18c838d01612e67565b985060408b0135975060608b0135965060808b0135955060a08b013591506132088261318c565b90935060c08a0135908082111561321e57600080fd5b5061322b8b828c01612e67565b92505060e089013561323c8161318c565b809150509295985092959890939650565b6000806040838503121561326057600080fd5b61326983612f6a565b915060208301356132798161318c565b809150509250929050565b6000806000806080858703121561329a57600080fd5b6132a385612f6a565b93506132b160208601612f6a565b92506040850135915060608501356001600160401b038111156132d357600080fd5b8501601f810187136132e457600080fd5b6132f387823560208401612df2565b91505092959194509250565b6020808252825182820181905260009190848201906040850190845b818110156133375783518352928401929184019160010161331b565b50909695505050505050565b60008060006060848603121561335857600080fd5b8335925061336860208501612f6a565b915060408401356001600160401b0381111561306357600080fd5b6000806040838503121561339657600080fd5b61339f83612f6a565b91506133ad60208401612f6a565b90509250929050565b600083516133c8818460208801612eda565b9190910191825250602001919050565b600181811c908216806133ec57607f821691505b60208210810361340c57634e487b7160e01b600052602260045260246000fd5b50919050565b601f821115610a2a57600081815260208120601f850160051c810160208610156134395750805b601f850160051c820191505b8181101561345857828155600101613445565b505050505050565b81516001600160401b0381111561347957613479612ddc565b61348d8161348784546133d8565b84613412565b602080601f8311600181146134c257600084156134aa5750858301515b600019600386901b1c1916600185901b178555613458565b600085815260208120601f198616915b828110156134f1578886015182559484019460019091019084016134d2565b508582101561350f5787850151600019600388901b60f8161c191681555b5050505050600190811b01905550565b6020808252602d908201527f4552433732313a2063616c6c6572206973206e6f7420746f6b656e206f776e6560408201526c1c881bdc88185c1c1c9bdd9959609a1b606082015260800190565b602080825260149082015273151bdad95b88191bd95cc81b9bdd08195e1a5cdd60621b604082015260600190565b602080825260149082015273496e73756666696369656e742062616c616e636560601b604082015260600190565b634e487b7160e01b600052601160045260246000fd5b81810381811115610780576107806135c8565b60078152661410565351539560ca1b602082015260400190565b818152604060208201526000612b3f604083016135f1565b604081526000613635604083016135f1565b905082602083015292915050565b60006020828403121561365557600080fd5b8151612b3f8161318c565b80820180821115610780576107806135c8565b60058152640544f5055560dc1b602082015260400190565b818152604060208201526000612b3f60408301613673565b60408152600061363560408301613673565b602080825260189082015277115490cdcc8c4e881a5b9d985b1a59081d1bdad95b88125160421b604082015260600190565b634e487b7160e01b600052603260045260246000fd5b60006001820161370f5761370f6135c8565b5060010190565b602080825260139082015272125b9d985b1a59081d195b5c1b185d19481251606a1b604082015260600190565b6020808252601490820152734e616d652063616e6e6f7420626520656d70747960601b604082015260600190565b6020808252601b908201527a496e76616c696420646973636f756e742070657263656e7461676560281b604082015260600190565b60208082526025908201527f4552433732313a207472616e736665722066726f6d20696e636f72726563742060408201526437bbb732b960d91b606082015260800190565b60208082526032908201527f4552433732313a207472616e7366657220746f206e6f6e20455243373231526560408201527131b2b4bb32b91034b6b83632b6b2b73a32b960711b606082015260800190565b6000835161384f818460208801612eda565b835190830190613863818360208801612eda565b01949350505050565b6001600160a01b038581168252841660208201526040810183905260806060820181905260009061389f90830184612efe565b9695505050505050565b6000602082840312156138bb57600080fd5b8151612b3f81612da9565b6020808252601c908201527b115490cdcc8c4e881d1bdad95b88185b1c9958591e481b5a5b9d195960221b60408201526060019056fe9c74a38faff17c41e397c13aa83d95dba8ce2a9fbc9bf10fc2212663d6e5223eec928c2fe6632313165f754a793ab00b2cde005b5c7571959d3137d5c4d4ac67ddf252ad1be2c89b69c2b068fc378daa952ba7f163c4a11628f55a4df523b3efa2646970667358221220ff2d84ece11079623ea54c75d21f284f255cce3d361908cdc8737b686bd3ada564736f6c63430008140033",
  "linkReferences": {},
  "deployedLinkReferences": {}
}