{
  "_format": "hh-sol-artifact-1",
  "contractName": "WaveXNFTV2",
  "sourceName": "contracts/WavexNFTV2.sol",
  "abi": [
    {
      "inputs": [],
      "stateMutability": "nonpayable",
      "type": "constructor"
    },
    {
      "anonymous": false,
      "inputs": [
        {
          "indexed": true,
          "internalType": "address",
          "name": "owner",
          "type": "address"
        },
        {
          "indexed": true,
          "internalType": "address",
          "name": "approved",
          "type": "address"
        },
        {
          "indexed": true,
          "internalType": "uint256",
          "name": "tokenId",
          "type": "uint256"
        }
      ],
      "name": "Approval",
      "type": "event"
    },
    {
      "anonymous": false,
      "inputs": [
        {
          "indexed": true,
          "internalType": "address",
          "name": "owner",
          "type": "address"
        },
        {
          "indexed": true,
          "internalType": "address",
          "name": "operator",
          "type": "address"
        },
        {
          "indexed": false,
          "internalType": "bool",
          "name": "approved",
          "type": "bool"
        }
      ],
      "name": "ApprovalForAll",
      "type": "event"
    },
    {
      "anonymous": false,
      "inputs": [
        {
          "indexed": true,
          "internalType": "uint256",
          "name": "tokenId",
          "type": "uint256"
        },
        {
          "indexed": false,
          "internalType": "uint256",
          "name": "newBalance",
          "type": "uint256"
        },
        {
          "indexed": false,
          "internalType": "string",
          "name": "updateType",
          "type": "string"
        }
      ],
      "name": "BalanceUpdated",
      "type": "event"
    },
    {
      "anonymous": false,
      "inputs": [
        {
          "indexed": false,
          "internalType": "uint256",
          "name": "_fromTokenId",
          "type": "uint256"
        },
        {
          "indexed": false,
          "internalType": "uint256",
          "name": "_toTokenId",
          "type": "uint256"
        }
      ],
      "name": "BatchMetadataUpdate",
      "type": "event"
    },
    {
      "anonymous": false,
      "inputs": [
        {
          "indexed": true,
          "internalType": "uint256",
          "name": "tokenId",
          "type": "uint256"
        },
        {
          "indexed": true,
          "internalType": "uint256",
          "name": "eventId",
          "type": "uint256"
        }
      ],
      "name": "EventPurchased",
      "type": "event"
    },
    {
      "anonymous": false,
      "inputs": [
        {
          "indexed": false,
          "internalType": "uint256",
          "name": "_tokenId",
          "type": "uint256"
        }
      ],
      "name": "MetadataUpdate",
      "type": "event"
    },
    {
      "anonymous": false,
      "inputs": [
        {
          "indexed": true,
          "internalType": "address",
          "name": "previousOwner",
          "type": "address"
        },
        {
          "indexed": true,
          "internalType": "address",
          "name": "newOwner",
          "type": "address"
        }
      ],
      "name": "OwnershipTransferred",
      "type": "event"
    },
    {
      "anonymous": false,
      "inputs": [
        {
          "indexed": false,
          "internalType": "address",
          "name": "account",
          "type": "address"
        }
      ],
      "name": "Paused",
      "type": "event"
    },
    {
      "anonymous": false,
      "inputs": [
        {
          "indexed": true,
          "internalType": "address",
          "name": "tokenAddress",
          "type": "address"
        }
      ],
      "name": "SupportedTokenAdded",
      "type": "event"
    },
    {
      "anonymous": false,
      "inputs": [
        {
          "indexed": true,
          "internalType": "uint256",
          "name": "templateId",
          "type": "uint256"
        },
        {
          "indexed": false,
          "internalType": "string",
          "name": "name",
          "type": "string"
        },
        {
          "indexed": false,
          "internalType": "uint256",
          "name": "baseBalance",
          "type": "uint256"
        },
        {
          "indexed": false,
          "internalType": "uint256",
          "name": "price",
          "type": "uint256"
        },
        {
          "indexed": false,
          "internalType": "uint256",
          "name": "discount",
          "type": "uint256"
        },
        {
          "indexed": false,
          "internalType": "bool",
          "name": "isVIP",
          "type": "bool"
        },
        {
          "indexed": false,
          "internalType": "string",
          "name": "metadataURI",
          "type": "string"
        },
        {
          "indexed": false,
          "internalType": "bool",
          "name": "active",
          "type": "bool"
        }
      ],
      "name": "TemplateCreated",
      "type": "event"
    },
    {
      "anonymous": false,
      "inputs": [
        {
          "indexed": true,
          "internalType": "uint256",
          "name": "templateId",
          "type": "uint256"
        },
        {
          "indexed": false,
          "internalType": "string",
          "name": "name",
          "type": "string"
        },
        {
          "indexed": false,
          "internalType": "uint256",
          "name": "baseBalance",
          "type": "uint256"
        },
        {
          "indexed": false,
          "internalType": "uint256",
          "name": "price",
          "type": "uint256"
        },
        {
          "indexed": false,
          "internalType": "uint256",
          "name": "discount",
          "type": "uint256"
        },
        {
          "indexed": false,
          "internalType": "bool",
          "name": "isVIP",
          "type": "bool"
        },
        {
          "indexed": false,
          "internalType": "string",
          "name": "metadataURI",
          "type": "string"
        },
        {
          "indexed": false,
          "internalType": "bool",
          "name": "active",
          "type": "bool"
        }
      ],
      "name": "TemplateUpdated",
      "type": "event"
    },
    {
      "anonymous": false,
      "inputs": [
        {
          "indexed": true,
          "internalType": "uint256",
          "name": "tokenId",
          "type": "uint256"
        },
        {
          "indexed": false,
          "internalType": "string",
          "name": "transactionType",
          "type": "string"
        },
        {
          "indexed": false,
          "internalType": "uint256",
          "name": "amount",
          "type": "uint256"
        }
      ],
      "name": "TransactionRecorded",
      "type": "event"
    },
    {
      "anonymous": false,
      "inputs": [
        {
          "indexed": true,
          "internalType": "address",
          "name": "from",
          "type": "address"
        },
        {
          "indexed": true,
          "internalType": "address",
          "name": "to",
          "type": "address"
        },
        {
          "indexed": true,
          "internalType": "uint256",
          "name": "tokenId",
          "type": "uint256"
        }
      ],
      "name": "Transfer",
      "type": "event"
    },
    {
      "anonymous": false,
      "inputs": [
        {
          "indexed": false,
          "internalType": "address",
          "name": "account",
          "type": "address"
        }
      ],
      "name": "Unpaused",
      "type": "event"
    },
    {
      "inputs": [
        {
          "internalType": "address",
          "name": "tokenAddress",
          "type": "address"
        }
      ],
      "name": "addSupportedToken",
      "outputs": [],
      "stateMutability": "nonpayable",
      "type": "function"
    },
    {
      "inputs": [
        {
          "internalType": "uint256",
          "name": "templateId",
          "type": "uint256"
        },
        {
          "internalType": "string",
          "name": "name",
          "type": "string"
        },
        {
          "internalType": "uint256",
          "name": "baseBalance",
          "type": "uint256"
        },
        {
          "internalType": "uint256",
          "name": "price",
          "type": "uint256"
        },
        {
          "internalType": "uint256",
          "name": "discount",
          "type": "uint256"
        },
        {
          "internalType": "bool",
          "name": "isVIP",
          "type": "bool"
        },
        {
          "internalType": "string",
          "name": "metadataURI",
          "type": "string"
        },
        {
          "internalType": "bool",
          "name": "active",
          "type": "bool"
        }
      ],
      "name": "addTemplate",
      "outputs": [],
      "stateMutability": "nonpayable",
      "type": "function"
    },
    {
      "inputs": [
        {
          "internalType": "address",
          "name": "to",
          "type": "address"
        },
        {
          "internalType": "uint256",
          "name": "tokenId",
          "type": "uint256"
        }
      ],
      "name": "approve",
      "outputs": [],
      "stateMutability": "nonpayable",
      "type": "function"
    },
    {
      "inputs": [
        {
          "internalType": "address",
          "name": "merchant",
          "type": "address"
        }
      ],
      "name": "authorizeMerchant",
      "outputs": [],
      "stateMutability": "nonpayable",
      "type": "function"
    },
    {
      "inputs": [
        {
          "internalType": "address",
          "name": "",
          "type": "address"
        }
      ],
      "name": "authorizedMerchants",
      "outputs": [
        {
          "internalType": "bool",
          "name": "",
          "type": "bool"
        }
      ],
      "stateMutability": "view",
      "type": "function"
    },
    {
      "inputs": [
        {
          "internalType": "address",
          "name": "owner",
          "type": "address"
        }
      ],
      "name": "balanceOf",
      "outputs": [
        {
          "internalType": "uint256",
          "name": "",
          "type": "uint256"
        }
      ],
      "stateMutability": "view",
      "type": "function"
    },
    {
      "inputs": [
        {
          "internalType": "string",
          "name": "name",
          "type": "string"
        },
        {
          "internalType": "uint256",
          "name": "price",
          "type": "uint256"
        },
        {
          "internalType": "uint256",
          "name": "capacity",
          "type": "uint256"
        },
        {
          "internalType": "uint256",
          "name": "eventType",
          "type": "uint256"
        }
      ],
      "name": "createEvent",
      "outputs": [
        {
          "internalType": "uint256",
          "name": "",
          "type": "uint256"
        }
      ],
      "stateMutability": "nonpayable",
      "type": "function"
    },
    {
      "inputs": [
        {
          "internalType": "uint256",
          "name": "",
          "type": "uint256"
        }
      ],
      "name": "events",
      "outputs": [
        {
          "internalType": "string",
          "name": "name",
          "type": "string"
        },
        {
          "internalType": "uint256",
          "name": "price",
          "type": "uint256"
        },
        {
          "internalType": "uint256",
          "name": "capacity",
          "type": "uint256"
        },
        {
          "internalType": "uint256",
          "name": "soldCount",
          "type": "uint256"
        },
        {
          "internalType": "bool",
          "name": "active",
          "type": "bool"
        },
        {
          "internalType": "uint256",
          "name": "eventType",
          "type": "uint256"
        }
      ],
      "stateMutability": "view",
      "type": "function"
    },
    {
      "inputs": [
        {
          "internalType": "uint256",
          "name": "tokenId",
          "type": "uint256"
        }
      ],
      "name": "getApproved",
      "outputs": [
        {
          "internalType": "address",
          "name": "",
          "type": "address"
        }
      ],
      "stateMutability": "view",
      "type": "function"
    },
    {
      "inputs": [
        {
          "internalType": "uint256",
          "name": "templateId",
          "type": "uint256"
        }
      ],
      "name": "getTemplate",
      "outputs": [
        {
          "internalType": "string",
          "name": "name",
          "type": "string"
        },
        {
          "internalType": "uint256",
          "name": "baseBalance",
          "type": "uint256"
        },
        {
          "internalType": "uint256",
          "name": "price",
          "type": "uint256"
        },
        {
          "internalType": "uint256",
          "name": "discount",
          "type": "uint256"
        },
        {
          "internalType": "bool",
          "name": "isVIP",
          "type": "bool"
        },
        {
          "internalType": "string",
          "name": "metadataURI",
          "type": "string"
        },
        {
          "internalType": "bool",
          "name": "active",
          "type": "bool"
        }
      ],
      "stateMutability": "view",
      "type": "function"
    },
    {
      "inputs": [
        {
          "internalType": "uint256",
          "name": "tokenId",
          "type": "uint256"
        }
      ],
      "name": "getTokenEvents",
      "outputs": [
        {
          "internalType": "uint256[]",
          "name": "",
          "type": "uint256[]"
        }
      ],
      "stateMutability": "view",
      "type": "function"
    },
    {
      "inputs": [
        {
          "internalType": "uint256",
          "name": "tokenId",
          "type": "uint256"
        },
        {
          "internalType": "uint256",
          "name": "index",
          "type": "uint256"
        }
      ],
      "name": "getTransaction",
      "outputs": [
        {
          "internalType": "uint256",
          "name": "timestamp",
          "type": "uint256"
        },
        {
          "internalType": "address",
          "name": "merchant",
          "type": "address"
        },
        {
          "internalType": "uint256",
          "name": "amount",
          "type": "uint256"
        },
        {
          "internalType": "string",
          "name": "transactionType",
          "type": "string"
        },
        {
          "internalType": "string",
          "name": "metadata",
          "type": "string"
        }
      ],
      "stateMutability": "view",
      "type": "function"
    },
    {
      "inputs": [
        {
          "internalType": "uint256",
          "name": "tokenId",
          "type": "uint256"
        }
      ],
      "name": "getTransactionCount",
      "outputs": [
        {
          "internalType": "uint256",
          "name": "",
          "type": "uint256"
        }
      ],
      "stateMutability": "view",
      "type": "function"
    },
    {
      "inputs": [
        {
          "internalType": "address",
          "name": "owner",
          "type": "address"
        },
        {
          "internalType": "address",
          "name": "operator",
          "type": "address"
        }
      ],
      "name": "isApprovedForAll",
      "outputs": [
        {
          "internalType": "bool",
          "name": "",
          "type": "bool"
        }
      ],
      "stateMutability": "view",
      "type": "function"
    },
    {
      "inputs": [
        {
          "internalType": "uint256",
          "name": "templateId",
          "type": "uint256"
        },
        {
          "internalType": "address",
          "name": "to",
          "type": "address"
        },
        {
          "internalType": "string",
          "name": "uri",
          "type": "string"
        }
      ],
      "name": "mintFromTemplate",
      "outputs": [
        {
          "internalType": "uint256",
          "name": "",
          "type": "uint256"
        }
      ],
      "stateMutability": "payable",
      "type": "function"
    },
    {
      "inputs": [
        {
          "internalType": "uint256",
          "name": "templateId",
          "type": "uint256"
        },
        {
          "internalType": "string",
          "name": "name",
          "type": "string"
        },
        {
          "internalType": "uint256",
          "name": "baseBalance",
          "type": "uint256"
        },
        {
          "internalType": "uint256",
          "name": "price",
          "type": "uint256"
        },
        {
          "internalType": "uint256",
          "name": "discount",
          "type": "uint256"
        },
        {
          "internalType": "bool",
          "name": "isVIP",
          "type": "bool"
        },
        {
          "internalType": "string",
          "name": "metadataURI",
          "type": "string"
        },
        {
          "internalType": "bool",
          "name": "active",
          "type": "bool"
        }
      ],
      "name": "modifyTemplate",
      "outputs": [],
      "stateMutability": "nonpayable",
      "type": "function"
    },
    {
      "inputs": [],
      "name": "name",
      "outputs": [
        {
          "internalType": "string",
          "name": "",
          "type": "string"
        }
      ],
      "stateMutability": "view",
      "type": "function"
    },
    {
      "inputs": [],
      "name": "owner",
      "outputs": [
        {
          "internalType": "address",
          "name": "",
          "type": "address"
        }
      ],
      "stateMutability": "view",
      "type": "function"
    },
    {
      "inputs": [
        {
          "internalType": "uint256",
          "name": "tokenId",
          "type": "uint256"
        }
      ],
      "name": "ownerOf",
      "outputs": [
        {
          "internalType": "address",
          "name": "",
          "type": "address"
        }
      ],
      "stateMutability": "view",
      "type": "function"
    },
    {
      "inputs": [],
      "name": "paused",
      "outputs": [
        {
          "internalType": "bool",
          "name": "",
          "type": "bool"
        }
      ],
      "stateMutability": "view",
      "type": "function"
    },
    {
      "inputs": [
        {
          "internalType": "uint256",
          "name": "tokenId",
          "type": "uint256"
        },
        {
          "internalType": "uint256",
          "name": "amount",
          "type": "uint256"
        },
        {
          "internalType": "string",
          "name": "metadata",
          "type": "string"
        }
      ],
      "name": "processPayment",
      "outputs": [],
      "stateMutability": "nonpayable",
      "type": "function"
    },
    {
      "inputs": [
        {
          "internalType": "uint256",
          "name": "tokenId",
          "type": "uint256"
        },
        {
          "internalType": "uint256",
          "name": "eventId",
          "type": "uint256"
        }
      ],
      "name": "purchaseEventEntrance",
      "outputs": [],
      "stateMutability": "nonpayable",
      "type": "function"
    },
    {
      "inputs": [],
      "name": "renounceOwnership",
      "outputs": [],
      "stateMutability": "nonpayable",
      "type": "function"
    },
    {
      "inputs": [
        {
          "internalType": "address",
          "name": "merchant",
          "type": "address"
        }
      ],
      "name": "revokeMerchant",
      "outputs": [],
      "stateMutability": "nonpayable",
      "type": "function"
    },
    {
      "inputs": [
        {
          "internalType": "address",
          "name": "from",
          "type": "address"
        },
        {
          "internalType": "address",
          "name": "to",
          "type": "address"
        },
        {
          "internalType": "uint256",
          "name": "tokenId",
          "type": "uint256"
        }
      ],
      "name": "safeTransferFrom",
      "outputs": [],
      "stateMutability": "nonpayable",
      "type": "function"
    },
    {
      "inputs": [
        {
          "internalType": "address",
          "name": "from",
          "type": "address"
        },
        {
          "internalType": "address",
          "name": "to",
          "type": "address"
        },
        {
          "internalType": "uint256",
          "name": "tokenId",
          "type": "uint256"
        },
        {
          "internalType": "bytes",
          "name": "data",
          "type": "bytes"
        }
      ],
      "name": "safeTransferFrom",
      "outputs": [],
      "stateMutability": "nonpayable",
      "type": "function"
    },
    {
      "inputs": [
        {
          "internalType": "address",
          "name": "operator",
          "type": "address"
        },
        {
          "internalType": "bool",
          "name": "approved",
          "type": "bool"
        }
      ],
      "name": "setApprovalForAll",
      "outputs": [],
      "stateMutability": "nonpayable",
      "type": "function"
    },
    {
      "inputs": [
        {
          "internalType": "address",
          "name": "",
          "type": "address"
        }
      ],
      "name": "supportedTokens",
      "outputs": [
        {
          "internalType": "bool",
          "name": "",
          "type": "bool"
        }
      ],
      "stateMutability": "view",
      "type": "function"
    },
    {
      "inputs": [
        {
          "internalType": "bytes4",
          "name": "interfaceId",
          "type": "bytes4"
        }
      ],
      "name": "supportsInterface",
      "outputs": [
        {
          "internalType": "bool",
          "name": "",
          "type": "bool"
        }
      ],
      "stateMutability": "view",
      "type": "function"
    },
    {
      "inputs": [],
      "name": "symbol",
      "outputs": [
        {
          "internalType": "string",
          "name": "",
          "type": "string"
        }
      ],
      "stateMutability": "view",
      "type": "function"
    },
    {
      "inputs": [
        {
          "internalType": "uint256",
          "name": "",
          "type": "uint256"
        }
      ],
      "name": "templates",
      "outputs": [
        {
          "internalType": "string",
          "name": "name",
          "type": "string"
        },
        {
          "internalType": "uint256",
          "name": "baseBalance",
          "type": "uint256"
        },
        {
          "internalType": "uint256",
          "name": "price",
          "type": "uint256"
        },
        {
          "internalType": "uint256",
          "name": "discount",
          "type": "uint256"
        },
        {
          "internalType": "bool",
          "name": "isVIP",
          "type": "bool"
        },
        {
          "internalType": "string",
          "name": "metadataURI",
          "type": "string"
        },
        {
          "internalType": "bool",
          "name": "active",
          "type": "bool"
        }
      ],
      "stateMutability": "view",
      "type": "function"
    },
    {
      "inputs": [
        {
          "internalType": "uint256",
          "name": "",
          "type": "uint256"
        }
      ],
      "name": "tokenBalance",
      "outputs": [
        {
          "internalType": "uint256",
          "name": "",
          "type": "uint256"
        }
      ],
      "stateMutability": "view",
      "type": "function"
    },
    {
      "inputs": [
        {
          "internalType": "uint256",
          "name": "",
          "type": "uint256"
        },
        {
          "internalType": "uint256",
          "name": "",
          "type": "uint256"
        }
      ],
      "name": "tokenEvents",
      "outputs": [
        {
          "internalType": "uint256",
          "name": "",
          "type": "uint256"
        }
      ],
      "stateMutability": "view",
      "type": "function"
    },
    {
      "inputs": [
        {
          "internalType": "uint256",
          "name": "tokenId",
          "type": "uint256"
        }
      ],
      "name": "tokenURI",
      "outputs": [
        {
          "internalType": "string",
          "name": "",
          "type": "string"
        }
      ],
      "stateMutability": "view",
      "type": "function"
    },
    {
      "inputs": [
        {
          "internalType": "uint256",
          "name": "tokenId",
          "type": "uint256"
        },
        {
          "internalType": "uint256",
          "name": "amount",
          "type": "uint256"
        },
        {
          "internalType": "address",
          "name": "paymentToken",
          "type": "address"
        }
      ],
      "name": "topUpBalance",
      "outputs": [],
      "stateMutability": "nonpayable",
      "type": "function"
    },
    {
      "inputs": [
        {
          "internalType": "uint256",
          "name": "",
          "type": "uint256"
        },
        {
          "internalType": "uint256",
          "name": "",
          "type": "uint256"
        }
      ],
      "name": "transactions",
      "outputs": [
        {
          "internalType": "uint256",
          "name": "timestamp",
          "type": "uint256"
        },
        {
          "internalType": "address",
          "name": "merchant",
          "type": "address"
        },
        {
          "internalType": "uint256",
          "name": "amount",
          "type": "uint256"
        },
        {
          "internalType": "string",
          "name": "transactionType",
          "type": "string"
        },
        {
          "internalType": "string",
          "name": "metadata",
          "type": "string"
        }
      ],
      "stateMutability": "view",
      "type": "function"
    },
    {
      "inputs": [
        {
          "internalType": "address",
          "name": "from",
          "type": "address"
        },
        {
          "internalType": "address",
          "name": "to",
          "type": "address"
        },
        {
          "internalType": "uint256",
          "name": "tokenId",
          "type": "uint256"
        }
      ],
      "name": "transferFrom",
      "outputs": [],
      "stateMutability": "nonpayable",
      "type": "function"
    },
    {
      "inputs": [
        {
          "internalType": "address",
          "name": "newOwner",
          "type": "address"
        }
      ],
      "name": "transferOwnership",
      "outputs": [],
      "stateMutability": "nonpayable",
      "type": "function"
    }
  ],
  "bytecode": "0x60806040523480156200001157600080fd5b506040518060400160405280600c81526020016b2bb0bb32ac1027232a102b1960a11b815250604051806040016040528060068152602001652ba0ab22ac1960d11b815250816000908162000067919062000543565b50600162000076828262000543565b50506006805460ff19169055506200008e33620001d5565b620000dd60016040518060400160405280600481526020016311dbdb1960e21b815250686c6b935b8bbd400000806000806040518060200160405280600081525060016200022f60201b60201c565b62000131600260405180604001604052806008815260200167506c6174696e756d60c01b81525069010f0cf064dd59200000806000806040518060200160405280600081525060016200022f60201b60201c565b62000182600360405180604001604052806005815260200164426c61636b60d81b81525069021e19e0c9bab2400000806000806040518060200160405280600081525060016200022f60201b60201c565b620001cf60046040518060400160405280600a8152602001694576656e74427269746560b01b8152506000806000806040518060200160405280600081525060016200022f60201b60201c565b620006b1565b600680546001600160a01b03838116610100818102610100600160a81b031985161790945560405193909204169182907f8be0079c531659141344cd1fd0a4f28419497f9722a3daafe3b4186f6b6457e090600090a35050565b60008811620002855760405162461bcd60e51b815260206004820152601360248201527f496e76616c69642074656d706c6174652049440000000000000000000000000060448201526064015b60405180910390fd5b6000875111620002d85760405162461bcd60e51b815260206004820152601460248201527f4e616d652063616e6e6f7420626520656d70747900000000000000000000000060448201526064016200027c565b60648411156200032b5760405162461bcd60e51b815260206004820152601b60248201527f496e76616c696420646973636f756e742070657263656e74616765000000000060448201526064016200027c565b600088815260096020526040902060010154156200038c5760405162461bcd60e51b815260206004820152601760248201527f54656d706c61746520616c72656164792065786973747300000000000000000060448201526064016200027c565b6040805160e081018252888152602080820189905281830188905260608201879052851515608083015260a0820185905283151560c083015260008b815260099091529190912081518190620003e3908262000543565b50602082015160018201556040820151600282015560608201516003820155608082015160048201805460ff191691151591909117905560a0820151600582019062000430908262000543565b5060c091909101516006909101805460ff191691151591909117905560405188907fc0fdbb34fd837325f175bd973a8607230e48718904c92805638b65905f616d7d906200048c908a908a908a908a908a908a908a9062000657565b60405180910390a25050505050505050565b634e487b7160e01b600052604160045260246000fd5b600181811c90821680620004c957607f821691505b602082108103620004ea57634e487b7160e01b600052602260045260246000fd5b50919050565b601f8211156200053e57600081815260208120601f850160051c81016020861015620005195750805b601f850160051c820191505b818110156200053a5782815560010162000525565b5050505b505050565b81516001600160401b038111156200055f576200055f6200049e565b6200057781620005708454620004b4565b84620004f0565b602080601f831160018114620005af5760008415620005965750858301515b600019600386901b1c1916600185901b1785556200053a565b600085815260208120601f198616915b82811015620005e057888601518255948401946001909101908401620005bf565b5085821015620005ff5787850151600019600388901b60f8161c191681555b5050505050600190811b01905550565b6000815180845260005b81811015620006375760208185018101518683018201520162000619565b506000602082860101526020601f19601f83011685010191505092915050565b60e0815260006200066c60e083018a6200060f565b886020840152876040840152866060840152851515608084015282810360a08401526200069a81866200060f565b91505082151560c083015298975050505050505050565b61378580620006c16000396000f3fe6080604052600436106102255760003560e01c806370a0823111610123578063b701b319116100ab578063c87b56dd1161006f578063c87b56dd146106ce578063ca2efd38146106ee578063cdc965cd1461071e578063e985e9c51461073e578063f2fde38b1461075e57600080fd5b8063b701b3191461062e578063b88d4fde1461064e578063bc5256521461066e578063c4754b771461068e578063c58d0686146106bb57600080fd5b80638da5cb5b116100f25780638da5cb5b1461059657806395d89b41146105b957806396651ec3146105ce578063a22cb465146105ee578063a871bd661461060e57600080fd5b806370a0823114610521578063715018a6146105415780637303f6ce14610556578063819a701c1461057657600080fd5b8063368a5247116101b15780634eaf9db6116101755780634eaf9db6146104685780635c975abb146104995780636352211e146104b157806368c4ac26146104d15780636d69fcaf1461050157600080fd5b8063368a5247146103ae57806337ae9c13146103ce5780633de5d0de146103ee57806342842e0e1461041b57806349afc6e51461043b57600080fd5b8063095ea7b3116101f8578063095ea7b3146102e75780630b7914301461030957806323b872dd1461033b578063283421331461035b57806331543cf41461037b57600080fd5b806301ffc9a71461022a5780630374ab0b1461025f57806306fdde031461028d578063081812fc146102af575b600080fd5b34801561023657600080fd5b5061024a610245366004612d07565b61077e565b60405190151581526020015b60405180910390f35b34801561026b57600080fd5b5061027f61027a366004612dd0565b61078f565b604051908152602001610256565b34801561029957600080fd5b506102a261085d565b6040516102569190612e74565b3480156102bb57600080fd5b506102cf6102ca366004612e87565b6108ef565b6040516001600160a01b039091168152602001610256565b3480156102f357600080fd5b50610307610302366004612ebc565b610916565b005b34801561031557600080fd5b50610329610324366004612e87565b610a30565b60405161025696959493929190612ee6565b34801561034757600080fd5b50610307610356366004612f24565b610af1565b34801561036757600080fd5b50610307610376366004612f60565b610b22565b34801561038757600080fd5b5061039b610396366004612e87565b610d52565b6040516102569796959493929190612fb0565b3480156103ba57600080fd5b506103076103c9366004613006565b610f1a565b3480156103da57600080fd5b506103076103e936600461303b565b6111b7565b3480156103fa57600080fd5b5061027f610409366004612e87565b6000908152600c602052604090205490565b34801561042757600080fd5b50610307610436366004612f24565b6111e3565b34801561044757600080fd5b5061027f610456366004612e87565b600b6020526000908152604090205481565b34801561047457600080fd5b50610488610483366004613056565b6111fe565b604051610256959493929190613078565b3480156104a557600080fd5b5060065460ff1661024a565b3480156104bd57600080fd5b506102cf6104cc366004612e87565b611368565b3480156104dd57600080fd5b5061024a6104ec36600461303b565b600f6020526000908152604090205460ff1681565b34801561050d57600080fd5b5061030761051c36600461303b565b6113c8565b34801561052d57600080fd5b5061027f61053c36600461303b565b61146a565b34801561054d57600080fd5b506103076114f0565b34801561056257600080fd5b50610488610571366004613056565b611504565b34801561058257600080fd5b5061030761059136600461303b565b6116de565b3480156105a257600080fd5b5060065461010090046001600160a01b03166102cf565b3480156105c557600080fd5b506102a2611707565b3480156105da57600080fd5b506103076105e93660046130d1565b611716565b3480156105fa57600080fd5b50610307610609366004613185565b611738565b34801561061a57600080fd5b5061027f610629366004613056565b611747565b34801561063a57600080fd5b50610307610649366004613056565b611778565b34801561065a57600080fd5b506103076106693660046131bc565b6119b4565b34801561067a57600080fd5b5061039b610689366004612e87565b6119ec565b34801561069a57600080fd5b506106ae6106a9366004612e87565b611b41565b6040516102569190613238565b61027f6106c936600461327c565b611ba3565b3480156106da57600080fd5b506102a26106e9366004612e87565b611cec565b3480156106fa57600080fd5b5061024a61070936600461303b565b600e6020526000908152604090205460ff1681565b34801561072a57600080fd5b506103076107393660046130d1565b611cf7565b34801561074a57600080fd5b5061024a6107593660046132bd565b611eea565b34801561076a57600080fd5b5061030761077936600461303b565b611f18565b600061078982611f91565b92915050565b6000610799611fb6565b600085426040516020016107ae9291906132f0565b60408051601f19818403018152828252805160209182012060c0840183528984528382018990528383018890526000606085018190526001608086015260a08501889052818152600a909252919020825191935090819061080f908261339a565b50602082015160018201556040820151600282015560608201516003820155608082015160048201805460ff191691151591909117905560a09091015160059091015590505b949350505050565b60606000805461086c90613312565b80601f016020809104026020016040519081016040528092919081815260200182805461089890613312565b80156108e55780601f106108ba576101008083540402835291602001916108e5565b820191906000526020600020905b8154815290600101906020018083116108c857829003601f168201915b5050505050905090565b60006108fa82612016565b506000908152600460205260409020546001600160a01b031690565b600061092182611368565b9050806001600160a01b0316836001600160a01b0316036109935760405162461bcd60e51b815260206004820152602160248201527f4552433732313a20617070726f76616c20746f2063757272656e74206f776e656044820152603960f91b60648201526084015b60405180910390fd5b336001600160a01b03821614806109af57506109af8133611eea565b610a215760405162461bcd60e51b815260206004820152603d60248201527f4552433732313a20617070726f76652063616c6c6572206973206e6f7420746f60448201527f6b656e206f776e6572206f7220617070726f76656420666f7220616c6c000000606482015260840161098a565b610a2b8383612066565b505050565b600a60205260009081526040902080548190610a4b90613312565b80601f0160208091040260200160405190810160405280929190818152602001828054610a7790613312565b8015610ac45780601f10610a9957610100808354040283529160200191610ac4565b820191906000526020600020905b815481529060010190602001808311610aa757829003601f168201915b505050506001830154600284015460038501546004860154600590960154949592949193509160ff169086565b610afb33826120d4565b610b175760405162461bcd60e51b815260040161098a9061345a565b610a2b838383612132565b610b2b83612296565b610b475760405162461bcd60e51b815260040161098a906134a7565b336000908152600e602052604090205460ff16610ba65760405162461bcd60e51b815260206004820152601760248201527f4e6f7420617574686f72697a6564206d65726368616e74000000000000000000604482015260640161098a565b6000838152600b6020526040902054821115610bfb5760405162461bcd60e51b8152602060048201526014602482015273496e73756666696369656e742062616c616e636560601b604482015260640161098a565b6000838152600b602052604081208054849290610c199084906134eb565b90915550506000838152600c60209081526040808320815160a08101835242815233818501908152818401888152845180860190955260078552661410565351539560ca1b8587015260608301948552608083018890528354600180820186559488529590962082516005909602019485555191840180546001600160a01b0319166001600160a01b039093169290921790915592516002830155516003820190610cc4908261339a565b5060808201516004820190610cd9908261339a565b50505082600080516020613730833981519152600b600086815260200190815260200160002054604051610d0d91906134fe565b60405180910390a2827f9c74a38faff17c41e397c13aa83d95dba8ce2a9fbc9bf10fc2212663d6e5223e83604051610d45919061352b565b60405180910390a2505050565b60606000806000806060600080600960008a81526020019081526020016000206040518060e0016040529081600082018054610d8d90613312565b80601f0160208091040260200160405190810160405280929190818152602001828054610db990613312565b8015610e065780601f10610ddb57610100808354040283529160200191610e06565b820191906000526020600020905b815481529060010190602001808311610de957829003601f168201915b5050509183525050600182015460208201526002820154604082015260038201546060820152600482015460ff161515608082015260058201805460a090920191610e5090613312565b80601f0160208091040260200160405190810160405280929190818152602001828054610e7c90613312565b8015610ec95780601f10610e9e57610100808354040283529160200191610ec9565b820191906000526020600020905b815481529060010190602001808311610eac57829003601f168201915b50505091835250506006919091015460ff16151560209182015281519082015160408301516060840151608085015160a086015160c090960151949f939e50919c509a509850919650945092505050565b610f2383612296565b610f3f5760405162461bcd60e51b815260040161098a906134a7565b6001600160a01b0381166000908152600f602052604090205460ff16610f9d5760405162461bcd60e51b8152602060048201526013602482015272151bdad95b881b9bdd081cdd5c1c1bdc9d1959606a1b604482015260640161098a565b6040516323b872dd60e01b81523360048201523060248201526044810183905281906001600160a01b038216906323b872dd906064016020604051808303816000875af1158015610ff2573d6000803e3d6000fd5b505050506040513d601f19601f820116820180604052508101906110169190613560565b6110545760405162461bcd60e51b815260206004820152600f60248201526e151c985b9cd9995c8819985a5b1959608a1b604482015260640161098a565b6000848152600b60205260408120805485929061107290849061357d565b90915550506000848152600c60209081526040808320815160a081018352428152808401858152818401898152845180860186526005808252640544f5055560dc1b828901526060850191825286518089019097528887526080850196909652845460018082018755958952969097208351969095029094019485555191840180546001600160a01b0319166001600160a01b03909316929092179091559051600283015591516003820190611128908261339a565b506080820151600482019061113d908261339a565b50505083600080516020613730833981519152600b6000878152602001908152602001600020546040516111719190613590565b60405180910390a2837f9c74a38faff17c41e397c13aa83d95dba8ce2a9fbc9bf10fc2212663d6e5223e846040516111a991906135bb565b60405180910390a250505050565b6111bf611fb6565b6001600160a01b03166000908152600e60205260409020805460ff19166001179055565b610a2b838383604051806020016040528060008152506119b4565b600c602052816000526040600020818154811061121a57600080fd5b600091825260209091206005909102018054600182015460028301546003840180549396506001600160a01b039092169450929161125790613312565b80601f016020809104026020016040519081016040528092919081815260200182805461128390613312565b80156112d05780601f106112a5576101008083540402835291602001916112d0565b820191906000526020600020905b8154815290600101906020018083116112b357829003601f168201915b5050505050908060040180546112e590613312565b80601f016020809104026020016040519081016040528092919081815260200182805461131190613312565b801561135e5780601f106113335761010080835404028352916020019161135e565b820191906000526020600020905b81548152906001019060200180831161134157829003601f168201915b5050505050905085565b6000818152600260205260408120546001600160a01b0316806107895760405162461bcd60e51b8152602060048201526018602482015277115490cdcc8c4e881a5b9d985b1a59081d1bdad95b88125160421b604482015260640161098a565b6113d0611fb6565b6001600160a01b03811661141e5760405162461bcd60e51b8152602060048201526015602482015274496e76616c696420746f6b656e206164647265737360581b604482015260640161098a565b6001600160a01b0381166000818152600f6020526040808220805460ff19166001179055517fd1be2e90bd3d24839d9dd94ad871068e1f9688b02fa43f2a62c9975dfa9de2d79190a250565b60006001600160a01b0382166114d45760405162461bcd60e51b815260206004820152602960248201527f4552433732313a2061646472657373207a65726f206973206e6f7420612076616044820152683634b21037bbb732b960b91b606482015260840161098a565b506001600160a01b031660009081526003602052604090205490565b6114f8611fb6565b61150260006122b3565b565b60008060006060806000600c60008981526020019081526020016000208781548110611532576115326135e0565b90600052602060002090600502016040518060a0016040529081600082015481526020016001820160009054906101000a90046001600160a01b03166001600160a01b03166001600160a01b031681526020016002820154815260200160038201805461159e90613312565b80601f01602080910402602001604051908101604052809291908181526020018280546115ca90613312565b80156116175780601f106115ec57610100808354040283529160200191611617565b820191906000526020600020905b8154815290600101906020018083116115fa57829003601f168201915b5050505050815260200160048201805461163090613312565b80601f016020809104026020016040519081016040528092919081815260200182805461165c90613312565b80156116a95780601f1061167e576101008083540402835291602001916116a9565b820191906000526020600020905b81548152906001019060200180831161168c57829003601f168201915b5050509190925250508151602083015160408401516060850151608090950151929d919c509a50929850965090945050505050565b6116e6611fb6565b6001600160a01b03166000908152600e60205260409020805460ff19169055565b60606001805461086c90613312565b61171e611fb6565b61172e888888888888888861230d565b5050505050505050565b611743338383612545565b5050565b600d602052816000526040600020818154811061176357600080fd5b90600052602060002001600091509150505481565b61178182612296565b61179d5760405162461bcd60e51b815260040161098a906134a7565b6000818152600a602052604090206004015460ff166117f15760405162461bcd60e51b815260206004820152601060248201526f4576656e74206e6f742061637469766560801b604482015260640161098a565b6000818152600a602052604090206002810154600390910154106118445760405162461bcd60e51b815260206004820152600a602482015269115d995b9d08199d5b1b60b21b604482015260640161098a565b6000818152600a6020908152604080832060010154858452600b9092529091205410156118aa5760405162461bcd60e51b8152602060048201526014602482015273496e73756666696369656e742062616c616e636560601b604482015260640161098a565b6000818152600a6020908152604080832060010154858452600b90925282208054919290916118da9084906134eb565b90915550506000818152600a602052604081206003018054916118fc836135f6565b90915550506000828152600d60209081526040808320805460018101825590845291832090910183905551829184917f41d60c8cad3c4e044896e072fb848c8f5d2e3e91c87a22a93d930c35aa1924039190a381600080516020613730833981519152600b6000858152602001908152602001600020546040516119a8918152604060208201819052600e908201526d4556454e545f505552434841534560901b606082015260800190565b60405180910390a25050565b6119be33836120d4565b6119da5760405162461bcd60e51b815260040161098a9061345a565b6119e684848484612613565b50505050565b600960205260009081526040902080548190611a0790613312565b80601f0160208091040260200160405190810160405280929190818152602001828054611a3390613312565b8015611a805780601f10611a5557610100808354040283529160200191611a80565b820191906000526020600020905b815481529060010190602001808311611a6357829003601f168201915b50505060018401546002850154600386015460048701546005880180549798949793965091945060ff169291611ab590613312565b80601f0160208091040260200160405190810160405280929190818152602001828054611ae190613312565b8015611b2e5780601f10611b0357610100808354040283529160200191611b2e565b820191906000526020600020905b815481529060010190602001808311611b1157829003601f168201915b5050506006909301549192505060ff1687565b6000818152600d6020908152604091829020805483518184028101840190945280845260609392830182828015611b9757602002820191906000526020600020905b815481526020019060010190808311611b83575b50505050509050919050565b60008381526009602052604081206006015460ff16611bfa5760405162461bcd60e51b815260206004820152601360248201527254656d706c617465206e6f742061637469766560681b604482015260640161098a565b600084815260096020526040902060020154341015611c525760405162461bcd60e51b8152602060048201526014602482015273125b9cdd59999a58da595b9d081c185e5b595b9d60621b604482015260640161098a565b611c60600880546001019055565b6000611c6b60085490565b9050611c778482612646565b611c818184612660565b600085815260096020818152604080842060010154858552600b83528185208190559389905291815281519283528201819052600490820152631352539560e21b606082015281906000805160206137308339815191529060800160405180910390a2949350505050565b60606107898261271c565b611cff611fb6565b60008811611d455760405162461bcd60e51b8152602060048201526013602482015272125b9d985b1a59081d195b5c1b185d19481251606a1b604482015260640161098a565b6000875111611d8d5760405162461bcd60e51b81526020600482015260146024820152734e616d652063616e6e6f7420626520656d70747960601b604482015260640161098a565b6064841115611dde5760405162461bcd60e51b815260206004820152601b60248201527f496e76616c696420646973636f756e742070657263656e746167650000000000604482015260640161098a565b6040805160e081018252888152602080820189905281830188905260608201879052851515608083015260a0820185905283151560c083015260008b815260099091529190912081518190611e33908261339a565b50602082015160018201556040820151600282015560608201516003820155608082015160048201805460ff191691151591909117905560a08201516005820190611e7e908261339a565b5060c091909101516006909101805460ff191691151591909117905560405188907fff92d45b846f70a381c6b12925794910c7d5a97f58898ac2a2dae8e48fdbda6390611ed8908a908a908a908a908a908a908a90612fb0565b60405180910390a25050505050505050565b6001600160a01b03918216600090815260056020908152604080832093909416825291909152205460ff1690565b611f20611fb6565b6001600160a01b038116611f855760405162461bcd60e51b815260206004820152602660248201527f4f776e61626c653a206e6577206f776e657220697320746865207a65726f206160448201526564647265737360d01b606482015260840161098a565b611f8e816122b3565b50565b60006001600160e01b03198216632483248360e11b1480610789575061078982612824565b6006546001600160a01b036101009091041633146115025760405162461bcd60e51b815260206004820181905260248201527f4f776e61626c653a2063616c6c6572206973206e6f7420746865206f776e6572604482015260640161098a565b61201f81612296565b611f8e5760405162461bcd60e51b8152602060048201526018602482015277115490cdcc8c4e881a5b9d985b1a59081d1bdad95b88125160421b604482015260640161098a565b600081815260046020526040902080546001600160a01b0319166001600160a01b038416908117909155819061209b82611368565b6001600160a01b03167f8c5be1e5ebec7d5bd14f71427d1e84f3dd0314c0f7b2291e5b200ac8c7c3b92560405160405180910390a45050565b6000806120e083611368565b9050806001600160a01b0316846001600160a01b0316148061210757506121078185611eea565b806108555750836001600160a01b0316612120846108ef565b6001600160a01b031614949350505050565b826001600160a01b031661214582611368565b6001600160a01b03161461216b5760405162461bcd60e51b815260040161098a9061360f565b6001600160a01b0382166121cd5760405162461bcd60e51b8152602060048201526024808201527f4552433732313a207472616e7366657220746f20746865207a65726f206164646044820152637265737360e01b606482015260840161098a565b826001600160a01b03166121e082611368565b6001600160a01b0316146122065760405162461bcd60e51b815260040161098a9061360f565b600081815260046020908152604080832080546001600160a01b03199081169091556001600160a01b0387811680865260038552838620805460001901905590871680865283862080546001019055868652600290945282852080549092168417909155905184937fddf252ad1be2c89b69c2b068fc378daa952ba7f163c4a11628f55a4df523b3ef91a4505050565b6000908152600260205260409020546001600160a01b0316151590565b600680546001600160a01b03838116610100818102610100600160a81b031985161790945560405193909204169182907f8be0079c531659141344cd1fd0a4f28419497f9722a3daafe3b4186f6b6457e090600090a35050565b600088116123535760405162461bcd60e51b8152602060048201526013602482015272125b9d985b1a59081d195b5c1b185d19481251606a1b604482015260640161098a565b600087511161239b5760405162461bcd60e51b81526020600482015260146024820152734e616d652063616e6e6f7420626520656d70747960601b604482015260640161098a565b60648411156123ec5760405162461bcd60e51b815260206004820152601b60248201527f496e76616c696420646973636f756e742070657263656e746167650000000000604482015260640161098a565b6000888152600960205260409020600101541561244b5760405162461bcd60e51b815260206004820152601760248201527f54656d706c61746520616c726561647920657869737473000000000000000000604482015260640161098a565b6040805160e081018252888152602080820189905281830188905260608201879052851515608083015260a0820185905283151560c083015260008b8152600990915291909120815181906124a0908261339a565b50602082015160018201556040820151600282015560608201516003820155608082015160048201805460ff191691151591909117905560a082015160058201906124eb908261339a565b5060c091909101516006909101805460ff191691151591909117905560405188907fc0fdbb34fd837325f175bd973a8607230e48718904c92805638b65905f616d7d90611ed8908a908a908a908a908a908a908a90612fb0565b816001600160a01b0316836001600160a01b0316036125a65760405162461bcd60e51b815260206004820152601960248201527f4552433732313a20617070726f766520746f2063616c6c657200000000000000604482015260640161098a565b6001600160a01b03838116600081815260056020908152604080832094871680845294825291829020805460ff191686151590811790915591519182527f17307eab39ab6107e8899845ad3d59bd9653f200f220920489ca2b5937696c31910160405180910390a3505050565b61261e848484612132565b61262a84848484612874565b6119e65760405162461bcd60e51b815260040161098a90613654565b611743828260405180602001604052806000815250612972565b61266982612296565b6126cc5760405162461bcd60e51b815260206004820152602e60248201527f45524337323155524953746f726167653a2055524920736574206f66206e6f6e60448201526d32bc34b9ba32b73a103a37b5b2b760911b606482015260840161098a565b60008281526007602052604090206126e4828261339a565b506040518281527ff8e1a15aba9398e019f0b49df1a4fde98ee17ae345cb5f6b5e2c27f5033e8ce79060200160405180910390a15050565b606061272782612016565b6000828152600760205260408120805461274090613312565b80601f016020809104026020016040519081016040528092919081815260200182805461276c90613312565b80156127b95780601f1061278e576101008083540402835291602001916127b9565b820191906000526020600020905b81548152906001019060200180831161279c57829003601f168201915b5050505050905060006127d760408051602081019091526000815290565b905080516000036127e9575092915050565b81511561281b5780826040516020016128039291906136a6565b60405160208183030381529060405292505050919050565b610855846129a5565b60006001600160e01b031982166380ac58cd60e01b148061285557506001600160e01b03198216635b5e139f60e01b145b8061078957506301ffc9a760e01b6001600160e01b0319831614610789565b60006001600160a01b0384163b1561296a57604051630a85bd0160e11b81526001600160a01b0385169063150b7a02906128b89033908990889088906004016136d5565b6020604051808303816000875af19250505080156128f3575060408051601f3d908101601f191682019092526128f091810190613712565b60015b612950573d808015612921576040519150601f19603f3d011682016040523d82523d6000602084013e612926565b606091505b5080516000036129485760405162461bcd60e51b815260040161098a90613654565b805181602001fd5b6001600160e01b031916630a85bd0160e11b149050610855565b506001610855565b61297c8383612a19565b6129896000848484612874565b610a2b5760405162461bcd60e51b815260040161098a90613654565b60606129b082612016565b60006129c760408051602081019091526000815290565b905060008151116129e75760405180602001604052806000815250612a12565b806129f184612b86565b604051602001612a029291906136a6565b6040516020818303038152906040525b9392505050565b6001600160a01b038216612a6f5760405162461bcd60e51b815260206004820181905260248201527f4552433732313a206d696e7420746f20746865207a65726f2061646472657373604482015260640161098a565b612a7881612296565b15612ac55760405162461bcd60e51b815260206004820152601c60248201527f4552433732313a20746f6b656e20616c7265616479206d696e74656400000000604482015260640161098a565b612ace81612296565b15612b1b5760405162461bcd60e51b815260206004820152601c60248201527f4552433732313a20746f6b656e20616c7265616479206d696e74656400000000604482015260640161098a565b6001600160a01b038216600081815260036020908152604080832080546001019055848352600290915280822080546001600160a01b0319168417905551839291907fddf252ad1be2c89b69c2b068fc378daa952ba7f163c4a11628f55a4df523b3ef908290a45050565b60606000612b9383612c19565b600101905060008167ffffffffffffffff811115612bb357612bb3612d24565b6040519080825280601f01601f191660200182016040528015612bdd576020820181803683370190505b5090508181016020015b600019016f181899199a1a9b1b9c1cb0b131b232b360811b600a86061a8153600a8504945084612be757509392505050565b60008072184f03e93ff9f4daa797ed6e38ed64bf6a1f0160401b8310612c585772184f03e93ff9f4daa797ed6e38ed64bf6a1f0160401b830492506040015b6d04ee2d6d415b85acef81000000008310612c84576d04ee2d6d415b85acef8100000000830492506020015b662386f26fc100008310612ca257662386f26fc10000830492506010015b6305f5e1008310612cba576305f5e100830492506008015b6127108310612cce57612710830492506004015b60648310612ce0576064830492506002015b600a83106107895760010192915050565b6001600160e01b031981168114611f8e57600080fd5b600060208284031215612d1957600080fd5b8135612a1281612cf1565b634e487b7160e01b600052604160045260246000fd5b600067ffffffffffffffff80841115612d5557612d55612d24565b604051601f8501601f19908116603f01168101908282118183101715612d7d57612d7d612d24565b81604052809350858152868686011115612d9657600080fd5b858560208301376000602087830101525050509392505050565b600082601f830112612dc157600080fd5b612a1283833560208501612d3a565b60008060008060808587031215612de657600080fd5b843567ffffffffffffffff811115612dfd57600080fd5b612e0987828801612db0565b97602087013597506040870135966060013595509350505050565b60005b83811015612e3f578181015183820152602001612e27565b50506000910152565b60008151808452612e60816020860160208601612e24565b601f01601f19169290920160200192915050565b602081526000612a126020830184612e48565b600060208284031215612e9957600080fd5b5035919050565b80356001600160a01b0381168114612eb757600080fd5b919050565b60008060408385031215612ecf57600080fd5b612ed883612ea0565b946020939093013593505050565b60c081526000612ef960c0830189612e48565b602083019790975250604081019490945260608401929092521515608083015260a090910152919050565b600080600060608486031215612f3957600080fd5b612f4284612ea0565b9250612f5060208501612ea0565b9150604084013590509250925092565b600080600060608486031215612f7557600080fd5b8335925060208401359150604084013567ffffffffffffffff811115612f9a57600080fd5b612fa686828701612db0565b9150509250925092565b60e081526000612fc360e083018a612e48565b886020840152876040840152866060840152851515608084015282810360a0840152612fef8186612e48565b91505082151560c083015298975050505050505050565b60008060006060848603121561301b57600080fd5b833592506020840135915061303260408501612ea0565b90509250925092565b60006020828403121561304d57600080fd5b612a1282612ea0565b6000806040838503121561306957600080fd5b50508035926020909101359150565b85815260018060a01b038516602082015283604082015260a0606082015260006130a560a0830185612e48565b82810360808401526130b78185612e48565b98975050505050505050565b8015158114611f8e57600080fd5b600080600080600080600080610100898b0312156130ee57600080fd5b88359750602089013567ffffffffffffffff8082111561310d57600080fd5b6131198c838d01612db0565b985060408b0135975060608b0135965060808b0135955060a08b01359150613140826130c3565b90935060c08a0135908082111561315657600080fd5b506131638b828c01612db0565b92505060e0890135613174816130c3565b809150509295985092959890939650565b6000806040838503121561319857600080fd5b6131a183612ea0565b915060208301356131b1816130c3565b809150509250929050565b600080600080608085870312156131d257600080fd5b6131db85612ea0565b93506131e960208601612ea0565b925060408501359150606085013567ffffffffffffffff81111561320c57600080fd5b8501601f8101871361321d57600080fd5b61322c87823560208401612d3a565b91505092959194509250565b6020808252825182820181905260009190848201906040850190845b8181101561327057835183529284019291840191600101613254565b50909695505050505050565b60008060006060848603121561329157600080fd5b833592506132a160208501612ea0565b9150604084013567ffffffffffffffff811115612f9a57600080fd5b600080604083850312156132d057600080fd5b6132d983612ea0565b91506132e760208401612ea0565b90509250929050565b60008351613302818460208801612e24565b9190910191825250602001919050565b600181811c9082168061332657607f821691505b60208210810361334657634e487b7160e01b600052602260045260246000fd5b50919050565b601f821115610a2b57600081815260208120601f850160051c810160208610156133735750805b601f850160051c820191505b818110156133925782815560010161337f565b505050505050565b815167ffffffffffffffff8111156133b4576133b4612d24565b6133c8816133c28454613312565b8461334c565b602080601f8311600181146133fd57600084156133e55750858301515b600019600386901b1c1916600185901b178555613392565b600085815260208120601f198616915b8281101561342c5788860151825594840194600190910190840161340d565b508582101561344a5787850151600019600388901b60f8161c191681555b5050505050600190811b01905550565b6020808252602d908201527f4552433732313a2063616c6c6572206973206e6f7420746f6b656e206f776e6560408201526c1c881bdc88185c1c1c9bdd9959609a1b606082015260800190565b602080825260149082015273151bdad95b88191bd95cc81b9bdd08195e1a5cdd60621b604082015260600190565b634e487b7160e01b600052601160045260246000fd5b81810381811115610789576107896134d5565b818152604060208201526000612a126040830160078152661410565351539560ca1b602082015260400190565b6040815260006135526040830160078152661410565351539560ca1b602082015260400190565b905082602083015292915050565b60006020828403121561357257600080fd5b8151612a12816130c3565b80820180821115610789576107896134d5565b818152604060208201526000612a126040830160058152640544f5055560dc1b602082015260400190565b6040815260006135526040830160058152640544f5055560dc1b602082015260400190565b634e487b7160e01b600052603260045260246000fd5b600060018201613608576136086134d5565b5060010190565b60208082526025908201527f4552433732313a207472616e736665722066726f6d20696e636f72726563742060408201526437bbb732b960d91b606082015260800190565b60208082526032908201527f4552433732313a207472616e7366657220746f206e6f6e20455243373231526560408201527131b2b4bb32b91034b6b83632b6b2b73a32b960711b606082015260800190565b600083516136b8818460208801612e24565b8351908301906136cc818360208801612e24565b01949350505050565b6001600160a01b038581168252841660208201526040810183905260806060820181905260009061370890830184612e48565b9695505050505050565b60006020828403121561372457600080fd5b8151612a1281612cf156feec928c2fe6632313165f754a793ab00b2cde005b5c7571959d3137d5c4d4ac67a2646970667358221220dc3ff95ab61101d1c2e5969d1357ce38df73c7a3ed8beec54d0b7ad42e124ced64736f6c63430008140033",
  "linkReferences": {},
  "deployedLinkReferences": {}
}